{
  "_format": "hh-sol-artifact-1",
  "contractName": "CryptoPredictionMarket",
  "sourceName": "contracts/CryptoPredictionMarket.sol",
  "abi": [
    {
      "inputs": [
        {
          "internalType": "string",
          "name": "_assetSymbol",
          "type": "string"
        },
        {
          "internalType": "uint8",
          "name": "_priceDecimals",
          "type": "uint8"
        },
        {
          "internalType": "address",
          "name": "_stakingToken",
          "type": "address"
        },
        {
          "internalType": "uint256",
          "name": "_minStake",
          "type": "uint256"
        },
        {
          "internalType": "uint256",
          "name": "_maxStake",
          "type": "uint256"
        }
      ],
      "stateMutability": "nonpayable",
      "type": "constructor"
    },
    {
      "anonymous": false,
      "inputs": [
        {
          "indexed": true,
          "internalType": "uint256",
          "name": "bucket",
          "type": "uint256"
        },
        {
          "indexed": false,
          "internalType": "uint256",
          "name": "totalWinningWeight",
          "type": "uint256"
        }
      ],
      "name": "AggregationCompleted",
      "type": "event"
    },
    {
      "anonymous": false,
      "inputs": [
        {
          "indexed": true,
          "internalType": "string",
          "name": "asset",
          "type": "string"
        },
        {
          "indexed": true,
          "internalType": "uint256",
          "name": "timestamp",
          "type": "uint256"
        },
        {
          "indexed": false,
          "internalType": "uint256",
          "name": "price",
          "type": "uint256"
        }
      ],
      "name": "AssetPriceResolved",
      "type": "event"
    },
    {
      "anonymous": false,
      "inputs": [
        {
          "indexed": true,
          "internalType": "uint256",
          "name": "bucket",
          "type": "uint256"
        },
        {
          "indexed": false,
          "internalType": "uint256",
          "name": "processedCount",
          "type": "uint256"
        },
        {
          "indexed": false,
          "internalType": "uint256",
          "name": "winningWeight",
          "type": "uint256"
        }
      ],
      "name": "BatchProcessed",
      "type": "event"
    },
    {
      "anonymous": false,
      "inputs": [
        {
          "indexed": true,
          "internalType": "uint256",
          "name": "betId",
          "type": "uint256"
        },
        {
          "indexed": true,
          "internalType": "address",
          "name": "bettor",
          "type": "address"
        },
        {
          "indexed": false,
          "internalType": "uint256",
          "name": "payout",
          "type": "uint256"
        }
      ],
      "name": "BetClaimed",
      "type": "event"
    },
    {
      "anonymous": false,
      "inputs": [
        {
          "indexed": true,
          "internalType": "uint256",
          "name": "betId",
          "type": "uint256"
        },
        {
          "indexed": false,
          "internalType": "uint256",
          "name": "actualPrice",
          "type": "uint256"
        },
        {
          "indexed": false,
          "internalType": "bool",
          "name": "won",
          "type": "bool"
        },
        {
          "indexed": false,
          "internalType": "uint256",
          "name": "payout",
          "type": "uint256"
        }
      ],
      "name": "BetFinalized",
      "type": "event"
    },
    {
      "anonymous": false,
      "inputs": [
        {
          "indexed": true,
          "internalType": "uint256",
          "name": "betId",
          "type": "uint256"
        },
        {
          "indexed": true,
          "internalType": "address",
          "name": "bettor",
          "type": "address"
        },
        {
          "indexed": false,
          "internalType": "uint256",
          "name": "stake",
          "type": "uint256"
        },
        {
          "indexed": false,
          "internalType": "uint256",
          "name": "priceMin",
          "type": "uint256"
        },
        {
          "indexed": false,
          "internalType": "uint256",
          "name": "priceMax",
          "type": "uint256"
        },
        {
          "indexed": false,
          "internalType": "uint256",
          "name": "targetTimestamp",
          "type": "uint256"
        },
        {
          "indexed": false,
          "internalType": "string",
          "name": "asset",
          "type": "string"
        }
      ],
      "name": "BetPlaced",
      "type": "event"
    },
    {
      "anonymous": false,
      "inputs": [
        {
          "indexed": true,
          "internalType": "uint256",
          "name": "bucket",
          "type": "uint256"
        },
        {
          "indexed": false,
          "internalType": "uint256",
          "name": "price",
          "type": "uint256"
        }
      ],
      "name": "BucketPriceSet",
      "type": "event"
    },
    {
      "anonymous": false,
      "inputs": [
        {
          "indexed": false,
          "internalType": "uint256",
          "name": "amount",
          "type": "uint256"
        }
      ],
      "name": "FeeCollected",
      "type": "event"
    },
    {
      "anonymous": false,
      "inputs": [
        {
          "indexed": true,
          "internalType": "address",
          "name": "to",
          "type": "address"
        },
        {
          "indexed": false,
          "internalType": "uint256",
          "name": "amount",
          "type": "uint256"
        }
      ],
      "name": "FeesWithdrawn",
      "type": "event"
    },
    {
      "anonymous": false,
      "inputs": [
        {
          "indexed": true,
          "internalType": "uint256",
          "name": "bucket",
          "type": "uint256"
        },
        {
          "indexed": false,
          "internalType": "uint256",
          "name": "amountSwept",
          "type": "uint256"
        }
      ],
      "name": "NoWinnersSwept",
      "type": "event"
    },
    {
      "anonymous": false,
      "inputs": [
        {
          "indexed": true,
          "internalType": "address",
          "name": "previousOwner",
          "type": "address"
        },
        {
          "indexed": true,
          "internalType": "address",
          "name": "newOwner",
          "type": "address"
        }
      ],
      "name": "OwnershipTransferStarted",
      "type": "event"
    },
    {
      "anonymous": false,
      "inputs": [
        {
          "indexed": true,
          "internalType": "address",
          "name": "previousOwner",
          "type": "address"
        },
        {
          "indexed": true,
          "internalType": "address",
          "name": "newOwner",
          "type": "address"
        }
      ],
      "name": "OwnershipTransferred",
      "type": "event"
    },
    {
      "anonymous": false,
      "inputs": [
        {
          "indexed": false,
          "internalType": "address",
          "name": "account",
          "type": "address"
        }
      ],
      "name": "Paused",
      "type": "event"
    },
    {
      "anonymous": false,
      "inputs": [
        {
          "indexed": false,
          "internalType": "address",
          "name": "account",
          "type": "address"
        }
      ],
      "name": "Unpaused",
      "type": "event"
    },
    {
      "inputs": [],
      "name": "BATCH_SIZE",
      "outputs": [
        {
          "internalType": "uint256",
          "name": "",
          "type": "uint256"
        }
      ],
      "stateMutability": "view",
      "type": "function"
    },
    {
      "inputs": [],
      "name": "BPS_DENOM",
      "outputs": [
        {
          "internalType": "uint256",
          "name": "",
          "type": "uint256"
        }
      ],
      "stateMutability": "view",
      "type": "function"
    },
    {
      "inputs": [],
      "name": "FEE_BPS",
      "outputs": [
        {
          "internalType": "uint256",
          "name": "",
          "type": "uint256"
        }
      ],
      "stateMutability": "view",
      "type": "function"
    },
    {
      "inputs": [],
      "name": "MAX_BUCKET_SCAN",
      "outputs": [
        {
          "internalType": "uint256",
          "name": "",
          "type": "uint256"
        }
      ],
      "stateMutability": "view",
      "type": "function"
    },
    {
      "inputs": [],
      "name": "MAX_DAYS_AHEAD",
      "outputs": [
        {
          "internalType": "uint256",
          "name": "",
          "type": "uint256"
        }
      ],
      "stateMutability": "view",
      "type": "function"
    },
    {
      "inputs": [],
      "name": "MIN_DAYS_AHEAD",
      "outputs": [
        {
          "internalType": "uint256",
          "name": "",
          "type": "uint256"
        }
      ],
      "stateMutability": "view",
      "type": "function"
    },
    {
      "inputs": [],
      "name": "RESOLUTION_DELAY",
      "outputs": [
        {
          "internalType": "uint256",
          "name": "",
          "type": "uint256"
        }
      ],
      "stateMutability": "view",
      "type": "function"
    },
    {
      "inputs": [],
      "name": "SECONDS_PER_DAY",
      "outputs": [
        {
          "internalType": "uint256",
          "name": "",
          "type": "uint256"
        }
      ],
      "stateMutability": "view",
      "type": "function"
    },
    {
      "inputs": [],
      "name": "acceptOwnership",
      "outputs": [],
      "stateMutability": "nonpayable",
      "type": "function"
    },
    {
      "inputs": [
        {
          "internalType": "uint256",
          "name": "bucket",
          "type": "uint256"
        }
      ],
      "name": "arePricesSetForBucket",
      "outputs": [
        {
          "internalType": "bool",
          "name": "",
          "type": "bool"
        }
      ],
      "stateMutability": "view",
      "type": "function"
    },
    {
      "inputs": [
        {
          "internalType": "uint256",
          "name": "bucket",
          "type": "uint256"
        },
        {
          "internalType": "uint256",
          "name": "start",
          "type": "uint256"
        },
        {
          "internalType": "uint256",
          "name": "limit",
          "type": "uint256"
        }
      ],
      "name": "arePricesSetForBucketRange",
      "outputs": [
        {
          "internalType": "bool",
          "name": "allSet",
          "type": "bool"
        },
        {
          "internalType": "uint256",
          "name": "checked",
          "type": "uint256"
        }
      ],
      "stateMutability": "view",
      "type": "function"
    },
    {
      "inputs": [],
      "name": "assetSymbol",
      "outputs": [
        {
          "internalType": "string",
          "name": "",
          "type": "string"
        }
      ],
      "stateMutability": "view",
      "type": "function"
    },
    {
      "inputs": [
        {
          "internalType": "address",
          "name": "token",
          "type": "address"
        }
      ],
      "name": "associateToken",
      "outputs": [],
      "stateMutability": "nonpayable",
      "type": "function"
    },
    {
      "inputs": [
        {
          "internalType": "uint256",
          "name": "",
          "type": "uint256"
        }
      ],
      "name": "betAssets",
      "outputs": [
        {
          "internalType": "string",
          "name": "",
          "type": "string"
        }
      ],
      "stateMutability": "view",
      "type": "function"
    },
    {
      "inputs": [
        {
          "internalType": "uint256",
          "name": "",
          "type": "uint256"
        }
      ],
      "name": "bets",
      "outputs": [
        {
          "internalType": "address",
          "name": "bettor",
          "type": "address"
        },
        {
          "internalType": "uint256",
          "name": "targetTimestamp",
          "type": "uint256"
        },
        {
          "internalType": "uint256",
          "name": "priceMin",
          "type": "uint256"
        },
        {
          "internalType": "uint256",
          "name": "priceMax",
          "type": "uint256"
        },
        {
          "internalType": "uint256",
          "name": "stake",
          "type": "uint256"
        },
        {
          "internalType": "uint256",
          "name": "qualityBps",
          "type": "uint256"
        },
        {
          "internalType": "uint256",
          "name": "weight",
          "type": "uint256"
        },
        {
          "internalType": "bool",
          "name": "finalized",
          "type": "bool"
        },
        {
          "internalType": "bool",
          "name": "claimed",
          "type": "bool"
        },
        {
          "internalType": "uint256",
          "name": "actualPrice",
          "type": "uint256"
        },
        {
          "internalType": "bool",
          "name": "won",
          "type": "bool"
        }
      ],
      "stateMutability": "view",
      "type": "function"
    },
    {
      "inputs": [
        {
          "internalType": "uint256",
          "name": "targetTs",
          "type": "uint256"
        }
      ],
      "name": "bucketIndex",
      "outputs": [
        {
          "internalType": "uint256",
          "name": "",
          "type": "uint256"
        }
      ],
      "stateMutability": "view",
      "type": "function"
    },
    {
      "inputs": [
        {
          "internalType": "uint256",
          "name": "",
          "type": "uint256"
        }
      ],
      "name": "buckets",
      "outputs": [
        {
          "internalType": "uint256",
          "name": "totalStaked",
          "type": "uint256"
        },
        {
          "internalType": "uint256",
          "name": "totalWeight",
          "type": "uint256"
        },
        {
          "internalType": "uint256",
          "name": "totalWinningWeight",
          "type": "uint256"
        },
        {
          "internalType": "uint256",
          "name": "nextProcessIndex",
          "type": "uint256"
        },
        {
          "internalType": "bool",
          "name": "aggregationComplete",
          "type": "bool"
        }
      ],
      "stateMutability": "view",
      "type": "function"
    },
    {
      "inputs": [
        {
          "internalType": "uint256",
          "name": "betId",
          "type": "uint256"
        }
      ],
      "name": "claimBet",
      "outputs": [],
      "stateMutability": "nonpayable",
      "type": "function"
    },
    {
      "inputs": [
        {
          "internalType": "uint256",
          "name": "price",
          "type": "uint256"
        }
      ],
      "name": "formatPrice",
      "outputs": [
        {
          "internalType": "string",
          "name": "",
          "type": "string"
        }
      ],
      "stateMutability": "view",
      "type": "function"
    },
    {
      "inputs": [],
      "name": "getAssetSymbol",
      "outputs": [
        {
          "internalType": "string",
          "name": "",
          "type": "string"
        }
      ],
      "stateMutability": "view",
      "type": "function"
    },
    {
      "inputs": [
        {
          "internalType": "uint256",
          "name": "bucket",
          "type": "uint256"
        }
      ],
      "name": "getBatchInfo",
      "outputs": [
        {
          "internalType": "uint256",
          "name": "nextBatchStart",
          "type": "uint256"
        },
        {
          "internalType": "uint256",
          "name": "nextBatchEnd",
          "type": "uint256"
        },
        {
          "internalType": "uint256",
          "name": "remainingBets",
          "type": "uint256"
        },
        {
          "internalType": "bool",
          "name": "canProcess",
          "type": "bool"
        }
      ],
      "stateMutability": "view",
      "type": "function"
    },
    {
      "inputs": [
        {
          "internalType": "uint256",
          "name": "betId",
          "type": "uint256"
        }
      ],
      "name": "getBet",
      "outputs": [
        {
          "components": [
            {
              "internalType": "address",
              "name": "bettor",
              "type": "address"
            },
            {
              "internalType": "uint256",
              "name": "targetTimestamp",
              "type": "uint256"
            },
            {
              "internalType": "uint256",
              "name": "priceMin",
              "type": "uint256"
            },
            {
              "internalType": "uint256",
              "name": "priceMax",
              "type": "uint256"
            },
            {
              "internalType": "uint256",
              "name": "stake",
              "type": "uint256"
            },
            {
              "internalType": "uint256",
              "name": "qualityBps",
              "type": "uint256"
            },
            {
              "internalType": "uint256",
              "name": "weight",
              "type": "uint256"
            },
            {
              "internalType": "bool",
              "name": "finalized",
              "type": "bool"
            },
            {
              "internalType": "bool",
              "name": "claimed",
              "type": "bool"
            },
            {
              "internalType": "uint256",
              "name": "actualPrice",
              "type": "uint256"
            },
            {
              "internalType": "bool",
              "name": "won",
              "type": "bool"
            }
          ],
          "internalType": "struct CryptoPredictionMarket.Bet",
          "name": "",
          "type": "tuple"
        }
      ],
      "stateMutability": "view",
      "type": "function"
    },
    {
      "inputs": [
        {
          "internalType": "uint256",
          "name": "betId",
          "type": "uint256"
        }
      ],
      "name": "getBetAsset",
      "outputs": [
        {
          "internalType": "string",
          "name": "",
          "type": "string"
        }
      ],
      "stateMutability": "view",
      "type": "function"
    },
    {
      "inputs": [
        {
          "internalType": "uint256",
          "name": "bucket",
          "type": "uint256"
        }
      ],
      "name": "getBucketInfo",
      "outputs": [
        {
          "internalType": "uint256",
          "name": "totalBets",
          "type": "uint256"
        },
        {
          "internalType": "uint256",
          "name": "totalWinningWeight",
          "type": "uint256"
        },
        {
          "internalType": "uint256",
          "name": "nextProcessIndex",
          "type": "uint256"
        },
        {
          "internalType": "bool",
          "name": "aggregationComplete",
          "type": "bool"
        }
      ],
      "stateMutability": "view",
      "type": "function"
    },
    {
      "inputs": [
        {
          "internalType": "uint256",
          "name": "bucket",
          "type": "uint256"
        }
      ],
      "name": "getBucketStats",
      "outputs": [
        {
          "internalType": "uint256",
          "name": "totalStaked",
          "type": "uint256"
        },
        {
          "internalType": "uint256",
          "name": "totalWeight",
          "type": "uint256"
        }
      ],
      "stateMutability": "view",
      "type": "function"
    },
    {
      "inputs": [
        {
          "internalType": "string",
          "name": "asset",
          "type": "string"
        },
        {
          "internalType": "uint256",
          "name": "timestamp",
          "type": "uint256"
        }
      ],
      "name": "getPriceAtTimestamp",
      "outputs": [
        {
          "internalType": "uint256",
          "name": "",
          "type": "uint256"
        }
      ],
      "stateMutability": "view",
      "type": "function"
    },
    {
      "inputs": [],
      "name": "getPriceDecimals",
      "outputs": [
        {
          "internalType": "uint8",
          "name": "",
          "type": "uint8"
        }
      ],
      "stateMutability": "view",
      "type": "function"
    },
    {
      "inputs": [
        {
          "internalType": "uint256",
          "name": "priceMin",
          "type": "uint256"
        },
        {
          "internalType": "uint256",
          "name": "priceMax",
          "type": "uint256"
        }
      ],
      "name": "getSharpnessMultiplier",
      "outputs": [
        {
          "internalType": "uint256",
          "name": "",
          "type": "uint256"
        }
      ],
      "stateMutability": "pure",
      "type": "function"
    },
    {
      "inputs": [],
      "name": "getStats",
      "outputs": [
        {
          "internalType": "uint256",
          "name": "totalBets",
          "type": "uint256"
        },
        {
          "internalType": "uint256",
          "name": "totalFees",
          "type": "uint256"
        },
        {
          "internalType": "uint256",
          "name": "contractBalance",
          "type": "uint256"
        }
      ],
      "stateMutability": "view",
      "type": "function"
    },
    {
      "inputs": [
        {
          "internalType": "uint256",
          "name": "targetTimestamp",
          "type": "uint256"
        }
      ],
      "name": "getTimeMultiplier",
      "outputs": [
        {
          "internalType": "uint256",
          "name": "",
          "type": "uint256"
        }
      ],
      "stateMutability": "view",
      "type": "function"
    },
    {
      "inputs": [],
      "name": "isTokenMode",
      "outputs": [
        {
          "internalType": "bool",
          "name": "",
          "type": "bool"
        }
      ],
      "stateMutability": "view",
      "type": "function"
    },
    {
      "inputs": [],
      "name": "knownTokenBalance",
      "outputs": [
        {
          "internalType": "uint256",
          "name": "",
          "type": "uint256"
        }
      ],
      "stateMutability": "view",
      "type": "function"
    },
    {
      "inputs": [],
      "name": "maxStake",
      "outputs": [
        {
          "internalType": "uint256",
          "name": "",
          "type": "uint256"
        }
      ],
      "stateMutability": "view",
      "type": "function"
    },
    {
      "inputs": [],
      "name": "minStake",
      "outputs": [
        {
          "internalType": "uint256",
          "name": "",
          "type": "uint256"
        }
      ],
      "stateMutability": "view",
      "type": "function"
    },
    {
      "inputs": [],
      "name": "nextBetId",
      "outputs": [
        {
          "internalType": "uint256",
          "name": "",
          "type": "uint256"
        }
      ],
      "stateMutability": "view",
      "type": "function"
    },
    {
      "inputs": [],
      "name": "owner",
      "outputs": [
        {
          "internalType": "address",
          "name": "",
          "type": "address"
        }
      ],
      "stateMutability": "view",
      "type": "function"
    },
    {
      "inputs": [],
      "name": "pause",
      "outputs": [],
      "stateMutability": "nonpayable",
      "type": "function"
    },
    {
      "inputs": [],
      "name": "paused",
      "outputs": [
        {
          "internalType": "bool",
          "name": "",
          "type": "bool"
        }
      ],
      "stateMutability": "view",
      "type": "function"
    },
    {
      "inputs": [],
      "name": "pendingOwner",
      "outputs": [
        {
          "internalType": "address",
          "name": "",
          "type": "address"
        }
      ],
      "stateMutability": "view",
      "type": "function"
    },
    {
      "inputs": [
        {
          "internalType": "uint256",
          "name": "targetTimestamp",
          "type": "uint256"
        },
        {
          "internalType": "uint256",
          "name": "priceMin",
          "type": "uint256"
        },
        {
          "internalType": "uint256",
          "name": "priceMax",
          "type": "uint256"
        }
      ],
      "name": "placeBet",
      "outputs": [
        {
          "internalType": "uint256",
          "name": "",
          "type": "uint256"
        }
      ],
      "stateMutability": "payable",
      "type": "function"
    },
    {
      "inputs": [
        {
          "internalType": "string",
          "name": "asset",
          "type": "string"
        },
        {
          "internalType": "uint256",
          "name": "targetTimestamp",
          "type": "uint256"
        },
        {
          "internalType": "uint256",
          "name": "priceMin",
          "type": "uint256"
        },
        {
          "internalType": "uint256",
          "name": "priceMax",
          "type": "uint256"
        }
      ],
      "name": "placeBetWithAsset",
      "outputs": [
        {
          "internalType": "uint256",
          "name": "",
          "type": "uint256"
        }
      ],
      "stateMutability": "payable",
      "type": "function"
    },
    {
      "inputs": [
        {
          "internalType": "string",
          "name": "asset",
          "type": "string"
        },
        {
          "internalType": "uint256",
          "name": "targetTimestamp",
          "type": "uint256"
        },
        {
          "internalType": "uint256",
          "name": "priceMin",
          "type": "uint256"
        },
        {
          "internalType": "uint256",
          "name": "priceMax",
          "type": "uint256"
        },
        {
          "internalType": "uint256",
          "name": "amount",
          "type": "uint256"
        }
      ],
      "name": "placeBetWithAssetToken",
      "outputs": [
        {
          "internalType": "uint256",
          "name": "",
          "type": "uint256"
        }
      ],
      "stateMutability": "nonpayable",
      "type": "function"
    },
    {
      "inputs": [
        {
          "internalType": "address",
          "name": "bettor",
          "type": "address"
        },
        {
          "internalType": "uint256",
          "name": "targetTimestamp",
          "type": "uint256"
        },
        {
          "internalType": "uint256",
          "name": "priceMin",
          "type": "uint256"
        },
        {
          "internalType": "uint256",
          "name": "priceMax",
          "type": "uint256"
        },
        {
          "internalType": "uint256",
          "name": "amount",
          "type": "uint256"
        }
      ],
      "name": "placeBetWithPreTransferredToken",
      "outputs": [
        {
          "internalType": "uint256",
          "name": "",
          "type": "uint256"
        }
      ],
      "stateMutability": "nonpayable",
      "type": "function"
    },
    {
      "inputs": [
        {
          "internalType": "uint256",
          "name": "targetTimestamp",
          "type": "uint256"
        },
        {
          "internalType": "uint256",
          "name": "priceMin",
          "type": "uint256"
        },
        {
          "internalType": "uint256",
          "name": "priceMax",
          "type": "uint256"
        },
        {
          "internalType": "uint256",
          "name": "amount",
          "type": "uint256"
        }
      ],
      "name": "placeBetWithToken",
      "outputs": [
        {
          "internalType": "uint256",
          "name": "",
          "type": "uint256"
        }
      ],
      "stateMutability": "nonpayable",
      "type": "function"
    },
    {
      "inputs": [],
      "name": "priceDecimals",
      "outputs": [
        {
          "internalType": "uint8",
          "name": "",
          "type": "uint8"
        }
      ],
      "stateMutability": "view",
      "type": "function"
    },
    {
      "inputs": [
        {
          "internalType": "string",
          "name": "",
          "type": "string"
        },
        {
          "internalType": "uint256",
          "name": "",
          "type": "uint256"
        }
      ],
      "name": "priceSetAt",
      "outputs": [
        {
          "internalType": "uint256",
          "name": "",
          "type": "uint256"
        }
      ],
      "stateMutability": "view",
      "type": "function"
    },
    {
      "inputs": [
        {
          "internalType": "string",
          "name": "",
          "type": "string"
        },
        {
          "internalType": "uint256",
          "name": "",
          "type": "uint256"
        }
      ],
      "name": "pricesAtTimestamp",
      "outputs": [
        {
          "internalType": "uint256",
          "name": "",
          "type": "uint256"
        }
      ],
      "stateMutability": "view",
      "type": "function"
    },
    {
      "inputs": [
        {
          "internalType": "uint256",
          "name": "bucket",
          "type": "uint256"
        }
      ],
      "name": "processBatch",
      "outputs": [
        {
          "internalType": "uint256",
          "name": "processedCount",
          "type": "uint256"
        },
        {
          "internalType": "uint256",
          "name": "winningWeight",
          "type": "uint256"
        }
      ],
      "stateMutability": "nonpayable",
      "type": "function"
    },
    {
      "inputs": [],
      "name": "renounceOwnership",
      "outputs": [],
      "stateMutability": "nonpayable",
      "type": "function"
    },
    {
      "inputs": [
        {
          "internalType": "string",
          "name": "asset",
          "type": "string"
        },
        {
          "internalType": "uint256",
          "name": "timestamp",
          "type": "uint256"
        },
        {
          "internalType": "uint256",
          "name": "price",
          "type": "uint256"
        }
      ],
      "name": "setAssetPrice",
      "outputs": [],
      "stateMutability": "nonpayable",
      "type": "function"
    },
    {
      "inputs": [
        {
          "internalType": "string[]",
          "name": "assets",
          "type": "string[]"
        },
        {
          "internalType": "uint256[]",
          "name": "timestamps",
          "type": "uint256[]"
        },
        {
          "internalType": "uint256[]",
          "name": "prices",
          "type": "uint256[]"
        }
      ],
      "name": "setAssetPrices",
      "outputs": [],
      "stateMutability": "nonpayable",
      "type": "function"
    },
    {
      "inputs": [
        {
          "internalType": "uint256",
          "name": "timestamp",
          "type": "uint256"
        },
        {
          "internalType": "uint256",
          "name": "price",
          "type": "uint256"
        }
      ],
      "name": "setPriceForTimestamp",
      "outputs": [],
      "stateMutability": "nonpayable",
      "type": "function"
    },
    {
      "inputs": [
        {
          "internalType": "uint256[]",
          "name": "timestamps",
          "type": "uint256[]"
        },
        {
          "internalType": "uint256[]",
          "name": "prices",
          "type": "uint256[]"
        }
      ],
      "name": "setPricesForTimestamps",
      "outputs": [],
      "stateMutability": "nonpayable",
      "type": "function"
    },
    {
      "inputs": [
        {
          "internalType": "uint256",
          "name": "targetTimestamp",
          "type": "uint256"
        },
        {
          "internalType": "uint256",
          "name": "priceMin",
          "type": "uint256"
        },
        {
          "internalType": "uint256",
          "name": "priceMax",
          "type": "uint256"
        },
        {
          "internalType": "uint256",
          "name": "stakeAmount",
          "type": "uint256"
        }
      ],
      "name": "simulatePlaceBet",
      "outputs": [
        {
          "components": [
            {
              "internalType": "uint256",
              "name": "fee",
              "type": "uint256"
            },
            {
              "internalType": "uint256",
              "name": "stakeNet",
              "type": "uint256"
            },
            {
              "internalType": "uint256",
              "name": "sharpnessBps",
              "type": "uint256"
            },
            {
              "internalType": "uint256",
              "name": "timeBps",
              "type": "uint256"
            },
            {
              "internalType": "uint256",
              "name": "qualityBps",
              "type": "uint256"
            },
            {
              "internalType": "uint256",
              "name": "weight",
              "type": "uint256"
            },
            {
              "internalType": "uint256",
              "name": "bucket",
              "type": "uint256"
            },
            {
              "internalType": "bool",
              "name": "isValid",
              "type": "bool"
            },
            {
              "internalType": "string",
              "name": "errorMessage",
              "type": "string"
            }
          ],
          "internalType": "struct CryptoPredictionMarket.BetSimulation",
          "name": "",
          "type": "tuple"
        }
      ],
      "stateMutability": "view",
      "type": "function"
    },
    {
      "inputs": [],
      "name": "stakingToken",
      "outputs": [
        {
          "internalType": "contract IERC20",
          "name": "",
          "type": "address"
        }
      ],
      "stateMutability": "view",
      "type": "function"
    },
    {
      "inputs": [],
      "name": "startTimestamp",
      "outputs": [
        {
          "internalType": "uint256",
          "name": "",
          "type": "uint256"
        }
      ],
      "stateMutability": "view",
      "type": "function"
    },
    {
      "inputs": [],
      "name": "totalFeesCollected",
      "outputs": [
        {
          "internalType": "uint256",
          "name": "",
          "type": "uint256"
        }
      ],
      "stateMutability": "view",
      "type": "function"
    },
    {
      "inputs": [],
      "name": "totalObligations",
      "outputs": [
        {
          "internalType": "uint256",
          "name": "",
          "type": "uint256"
        }
      ],
      "stateMutability": "view",
      "type": "function"
    },
    {
      "inputs": [
        {
          "internalType": "address",
          "name": "newOwner",
          "type": "address"
        }
      ],
      "name": "transferOwnership",
      "outputs": [],
      "stateMutability": "nonpayable",
      "type": "function"
    },
    {
      "inputs": [],
      "name": "unpause",
      "outputs": [],
      "stateMutability": "nonpayable",
      "type": "function"
    },
    {
      "inputs": [],
      "name": "withdrawFees",
      "outputs": [],
      "stateMutability": "nonpayable",
      "type": "function"
    }
  ],
  "bytecode": "0x604060e08152346200040257620041b3803803806200001e816200041c565b92833981019060a081830312620004025780516001600160401b03908181116200040257820190601f84818401121562000402578251928284116200032657602093601f199162000075848301841687016200041c565b978289528683830101116200040257859060005b8381106200040757505060009188010152838501519260ff8416809403620004025785880151946001600160a01b03938487168703620004025760806060890151980151986001928354966000543360018060a01b03198216176000558d51913391167f8be0079c531659141344cd1fd0a4f28419497f9722a3daafe3b4186f6b6457e0600080a36001600160a81b031997881685556002859055825115620003c2575089156200037f57898b11156200033c57815194851162000326576007548481811c911680156200031b575b828210146200030557838111620002b9575b50809285116001146200024e57508394509083929160009462000242575b50501b916000199060031b1c1916176007555b60085492610100600160a81b039060081b16921617176008554260805260a05260c05251613d7090816200044382396080518181816105630152613683015260a0518181816103f1015281816107b801528181610af20152818161178f01528181611b6f01528181611ca10152613867015260c0518181816103810152818161041d015281816107e401528181610b1e015281816117bb01528181611ccd01526139dc0152f35b01519250388062000188565b929484908116600760005284600020946000905b888383106200029e575050501062000284575b505050811b016007556200019b565b015160001960f88460031b161c1916905538808062000275565b85870151885590960195948501948793509081019062000262565b6007600052816000208480880160051c820192848910620002fb575b0160051c019085905b828110620002ee5750506200016a565b60008155018590620002de565b92508192620002d5565b634e487b7160e01b600052602260045260246000fd5b90607f169062000158565b634e487b7160e01b600052604160045260246000fd5b6064908c519062461bcd60e51b82526004820152601d60248201527f6d61785374616b65206d75737420657863656564206d696e5374616b650000006044820152fd5b6064908c519062461bcd60e51b82526004820152601460248201527f6d696e5374616b65206d757374206265203e20300000000000000000000000006044820152fd5b60649162461bcd60e51b82526004820152601560248201527f41737365742073796d626f6c20726571756972656400000000000000000000006044820152fd5b600080fd5b8181018301518a820184015287920162000089565b6040519190601f01601f191682016001600160401b03811183821017620003265760405256fe60808060405260048036101561001457600080fd5b600091823560e01c908162e2ad85146121525750806305300b2814611f23578063061e494f14611feb578063176de7a8146113a95780631a0058f514611f445780631b30aafc14611f23578063227f960414611f0757806322af00fa14611e585780632597579d14611c3c57806329796a6a14611be157806332f8fa0f14611bb057806334a2c07614611b92578063375b3c0a14611b575780633afcdf0c1461195c5780633f4ba83a146118b557806345c354b51461173d578063476343ee1461164357806349faa4d4146116275780634df86c43146113c557806356ca72fe146113a95780635c975abb1461138357806360c6d8ae146113655780636309463b146113325780636637e38c14611315578063706cabd5146112b6578063715018a61461125b57806372f702f314611231578063739830861461116357806374f0314f146111455780637872ab251461111d57806379ba5097146110515780637a7b332214610f7c5780637d2b219314610f525780637e8c5f1414610f335780637ec174df14610ea45780638456cb5914610e415780638a3e41cd14610cad5780638aa34ae014610c775780638da5cb5b14610c515780639568786c14610c32578063964d7c2314610a915780639aca279214610a735780639b51fb0d14610a155780639fa4cc86146109e9578063a42c7308146109a4578063a5a150ff1461097b578063a7efe348146108c6578063ac5d85c414610868578063ade68de014610740578063bf333f2c14610724578063c00ea2c214610620578063c59d4847146105ec578063d07c2561146105ca578063dd899e2c146105ad578063e30c397814610586578063e6fd48bc1461054b578063e71c9697146103a4578063ea1b28e014610369578063f2fde38b146102ff578063f78ed108146102e05763fbe1f9eb146102c057600080fd5b346102dc57816003193601126102dc5760209054604051908152f35b5080fd5b82346102fc57806003193601126102fc57602060405160018152f35b80fd5b82346102fc5760203660031901126102fc576103196123fb565b610321612558565b6001600160a01b0380911690816001600160a01b031960015416176001558254167f38d16b8cac22d99fc7c124b9cd0de2d3fa1faef420bfe791d8c362d765e227008380a380f35b82346102fc57806003193601126102fc5760206040517f00000000000000000000000000000000000000000000000000000000000000008152f35b50906103af3661253e565b6103bb93919293612869565b6103c36128bd565b6103ec6103cf426125d9565b6103e46103db426125e9565b91871015612606565b851115612652565b6104187f000000000000000000000000000000000000000000000000000000000000000034101561269e565b6104447f00000000000000000000000000000000000000000000000000000000000000003411156126da565b61045c6001600160a01b0360085460081c1615612716565b610467818410612762565b82151580610542575b610479906127a4565b6104844285116127f0565b60643402913483046064143415171561052f5760206105228686612710808804877fc472cb3a7a659a876494d66b3063145f279701771d6150b9329c31611ed6405c876104d1843461285c565b936104de816003546125f9565b600355604051908152a1826105056104f68387613701565b6104ff8861379b565b906125b0565b049261051184846125b0565b049361051b612251565b9533613416565b6001600255604051908152f35b634e487b7160e01b815260118652602490fd5b50801515610470565b82346102fc57806003193601126102fc5760206040517f00000000000000000000000000000000000000000000000000000000000000008152f35b82346102fc57806003193601126102fc5760206001600160a01b0360015416604051908152f35b82346102fc57806003193601126102fc576020604051610e108152f35b82346102fc5760206105e46105de36612528565b90613701565b604051908152f35b82346102fc57806003193601126102fc57606060055460035461060d61339f565b9060405192835260208301526040820152f35b50346102dc5760603660031901126102dc5780359067ffffffffffffffff82116107205761065091369101612416565b7f4c03b6c1689a03dd5aac5fc8c2ba9f66e08b0729a35cd56d1132757f19f093ae6024359260443592610681612558565b61068c841515612f36565b610697811515612911565b604051918181843782828101600c81526020948591030190208688528352846040882055604051828282378381848101600d8152030190208688528352426040882055857f8fa8f97aaf26189ac469c7662e87dbceda87bd9ade91a749b64fc4c14ad98d6684604051888152a2816040519283928337810187815203902092604051908152a380f35b8280fd5b82346102fc57806003193601126102fc57602060405160648152f35b509060803660031901126102fc5781359067ffffffffffffffff82116102fc57602061052261077136858701612460565b602435606435604435610782612869565b61078a6128bd565b6107b3610796426125d9565b6107ab6107a2426125e9565b91861015612606565b841115612652565b6107df7f000000000000000000000000000000000000000000000000000000000000000034101561269e565b61080b7f00000000000000000000000000000000000000000000000000000000000000003411156126da565b6108236001600160a01b0360085460081c1615612716565b61082f84511515612911565b61083a828210612762565b8015158061085f575b61084c906127a4565b6108574284116127f0565b349233612bbe565b50811515610843565b50346102dc5760203660031901126102dc57358152600960205261088e6040822061230f565b8051909150156108b5576108b1905b6040519182916020835260208301906123d6565b0390f35b506108b16108c1612251565b61089d565b50346102dc5760203660031901126102dc5781806108e26123fb565b6108ea612558565b6040516001600160a01b03602082019263248a35ef60e11b84523060248401521660448201526044815261091d816121f7565b5190826101675af161092d612af1565b5015610937575080f35b60649060206040519162461bcd60e51b8352820152601860248201527f546f6b656e206173736f63696174696f6e206661696c656400000000000000006044820152fd5b5090346102fc5760203660031901126102fc57602061099a8335613ade565b6040519015158152f35b82346102fc576040602091826109d06109bc366124a7565b9290818651938285809451938492016123b3565b8101600d81520301902090825283522054604051908152f35b82346102fc57806003193601126102fc5760206001600160a01b0360085460081c161515604051908152f35b50346102dc5760203660031901126102dc57604060a09282358152600b602052209060018201549160028101549160ff6005600384015492840154930154169260405194855260208501526040840152606083015215156080820152f35b82346102fc57806003193601126102fc576020600554604051908152f35b50346102dc5760a03660031901126102dc57803567ffffffffffffffff811161072057610ac19036908301612460565b91602435604435906064359260843594610ad9612869565b610ae16128bd565b610aed610796426125d9565b610b197f000000000000000000000000000000000000000000000000000000000000000087101561269e565b610b457f00000000000000000000000000000000000000000000000000000000000000008711156126da565b60206001600160a01b03610ba3888260085460081c16610b6681151561295d565b610b728c511515612911565b610b7d8a8a10612762565b88151580610c29575b610b8f906127a4565b610b9a4289116127f0565b309033906129a9565b60085460081c16916024604051809481936370a0823160e01b835230908301525afa918215610c1d578092610be7575b602061052289898989898960065533612bbe565b9091506020823d8211610c15575b81610c026020938361222f565b810103126102fc57505181610522610bd3565b3d9150610bf5565b604051903d90823e3d90fd5b50891515610b86565b5090346102fc5760203660031901126102fc5760206105e4833561379b565b82346102fc57806003193601126102fc576001600160a01b036020915416604051908152f35b50346102dc5760203660031901126102dc576040918291358152600b602052206002600182015491015482519182526020820152f35b50346102dc5760403660031901126102dc5767ffffffffffffffff8135818111610e3d57610cde90369084016124d9565b919092602435918211610e3957610cf7913691016124d9565b9091610d01612558565b610d0c828214612eda565b845b818110610d19578580f35b80610d33610d2b610e34938688612f26565b351515612f36565b610d3e818587612f26565b356040519081610d4d81612f82565b600c8152602093849103019020610d6584878b612f26565b358a52825260408920556040518181610d7d81612f82565b600d815203019020610d9083868a612f26565b3589528152426040892055610da6828589612f26565b357f8fa8f97aaf26189ac469c7662e87dbceda87bd9ade91a749b64fc4c14ad98d6682610dd485898b612f26565b35604051908152a2610de7828589612f26565b35907f4c03b6c1689a03dd5aac5fc8c2ba9f66e08b0729a35cd56d1132757f19f093ae610e1584888a612f26565b359160405180610e2481612f82565b03902092604051908152a3612c51565b610d0e565b8480fd5b8380fd5b82346102fc57806003193601126102fc57610e5a612558565b610e62612869565b6001805460ff60a01b1916600160a01b1790556040513381527f62e78cea01bee320cd4e420270b5ea74000d11b0c9f74754ebdbfc544b05a25890602090a180f35b82346102fc576108b1610ec2610eb93661250a565b9291909161380d565b6040519182916020835280516020840152602081015160408401526040810151606084015260608101516080840152608081015160a084015260a081015160c084015260c081015160e084015260e081015115159061010091828501520151610120808401526101408301906123d6565b5090346102fc5760203660031901126102fc5760206105e48335613681565b50346102dc5760203660031901126102dc5760406108b19261089d9235815260096020522061230f565b5090346102fc57602090816003193601126102fc5782359260ff60085416604d811161103e57600a0a91610fb0838661283c565b91831561102b575050610fd261101792610fcb602193613c44565b9506613c44565b936040519481610feb87935180928880870191016123b3565b8201601760f91b86820152611008825180938887850191016123b3565b0103600181018552018361222f565b6108b16040519282849384528301906123d6565b634e487b7160e01b825260129052602490fd5b634e487b7160e01b835260118252602483fd5b50346102dc57816003193601126102dc57600154906001600160a01b039033828416036110c7575073ffffffffffffffffffffffffffffffffffffffff1991821660015582543392811683178455167f8be0079c531659141344cd1fd0a4f28419497f9722a3daafe3b4186f6b6457e08380a380f35b60849060206040519162461bcd60e51b8352820152602960248201527f4f776e61626c6532537465703a2063616c6c6572206973206e6f7420746865206044820152683732bb9037bbb732b960b91b6064820152fd5b82346102fc5760406111376111313661253e565b91613b82565b825191151582526020820152f35b82346102fc57806003193601126102fc576020604051620151808152f35b82346102fc5761117236612528565b61117a612558565b611185811515612f36565b7f4c03b6c1689a03dd5aac5fc8c2ba9f66e08b0729a35cd56d1132757f19f093ae604051806111b381612f82565b600c8152602092839103019020848652815282604086205560405181816111d981612f82565b600d8152030190208486528152426040862055837f8fa8f97aaf26189ac469c7662e87dbceda87bd9ade91a749b64fc4c14ad98d6682604051868152a26040518061122381612f82565b03902092604051908152a380f35b82346102fc57806003193601126102fc5760206001600160a01b0360085460081c16604051908152f35b82346102fc57806003193601126102fc57611274612558565b806001600160a01b038019806001541660015582549081168355167f8be0079c531659141344cd1fd0a4f28419497f9722a3daafe3b4186f6b6457e08280a380f35b5090346102fc5760203660031901126102fc5760409082358152600b602052206108b181549160ff6005600383015495830154920154169060405194859485926060929594919560808501968552602085015260408401521515910152565b82346102fc57806003193601126102fc5760206040516127108152f35b5090346102fc5760203660031901126102fc57604061135983611353612869565b35612c8e565b82519182526020820152f35b82346102fc57806003193601126102fc576020600354604051908152f35b82346102fc57806003193601126102fc57602060ff60015460a01c166040519015158152f35b82346102fc57806003193601126102fc576108b161089d612251565b50346102dc57602080600319360112610720578135906113e3612869565b6113eb6128bd565b818452600a8152604084206001600160a01b0381541633036115f357600781019081549160ff8316156115af5760ff8360081c1661156b576114306001830154613681565b8752600b8452604087209260ff600585015416156115275761ff001916610100179055600981015460ff16156114f35760038201547fad65ef4ba28f4ce1aaee7e8f86645eb4ce0ddc8b6c8fa2821564a94dbd2485fe93929181156114e9576114ab92600160066114a6930154910154906125b0565b61283c565b935b8054869086116114e257506114c385825461285c565b90555b6114d08433613053565b6040519384523393a35b600160025580f35b90556114c6565b50505084936114ad565b505091507fad65ef4ba28f4ce1aaee7e8f86645eb4ce0ddc8b6c8fa2821564a94dbd2485fe604051928484523393a36114da565b60405162461bcd60e51b8152808801869052601860248201527f4167677265676174696f6e206e6f7420636f6d706c65746500000000000000006044820152606490fd5b60405162461bcd60e51b8152808701859052600f60248201527f416c726561647920636c61696d656400000000000000000000000000000000006044820152606490fd5b60405162461bcd60e51b8152808701859052601160248201527f426574206e6f742066696e616c697a65640000000000000000000000000000006044820152606490fd5b60405162461bcd60e51b8152808501839052600d60248201526c2737ba103132ba1037bbb732b960991b6044820152606490fd5b82346102fc57806003193601126102fc57602060405160328152f35b50346102dc57816003193601126102dc5761165c612558565b6116646128bd565b61166c61339f565b8154808211156117355761167f9161285c565b600354908082101561172f575080915b82156116eb5750816116a09161285c565b6003557fc0819c13be868895eb93e40eaceb96de976442fa1d404e5c55f14bb65a8c489a60206001600160a01b03845416926116dc8185613053565b604051908152a2600160025580f35b60649060206040519162461bcd60e51b8352820152601460248201527f4e6f20776974686472617761626c6520666565730000000000000000000000006044820152fd5b9161168f565b50508161167f565b5090346102fc5761174d3661250a565b93909294611759612869565b6117616128bd565b61178a61176d426125d9565b611782611779426125e9565b91891015612606565b871115612652565b6117b67f000000000000000000000000000000000000000000000000000000000000000086101561269e565b6117e27f00000000000000000000000000000000000000000000000000000000000000008611156126da565b60206001600160a01b0361182b878260085460081c1661180381151561295d565b61180e898910612762565b871515806118ac575b611820906127a4565b610b9a428c116127f0565b60085460081c16916024604051809481936370a0823160e01b835230908301525afa918215610c1d578092611877575b60206105228888888888600655611870612251565b9333612bbe565b9091506020823d82116118a4575b816118926020938361222f565b810103126102fc57505181602061185b565b3d9150611885565b50881515611817565b50346102dc57816003193601126102dc576118ce612558565b6001549060ff8260a01c1615611918575060ff60a01b19166001556040513381527f5db9ee0a495bf2e6ff9c91a7834c1ba4fdd244a5e8aa4e537bd38aeae4b073aa90602090a180f35b60649060206040519162461bcd60e51b8352820152601460248201527f5061757361626c653a206e6f74207061757365640000000000000000000000006044820152fd5b50346102dc5760603660031901126102dc5767ffffffffffffffff908035828111610e3d5761198e90369083016124d9565b9092602435818111611b53576119a790369085016124d9565b919093604435918211611b4f576119c0913691016124d9565b93906119ca612558565b82841480611b46575b6119dc90612eda565b865b8381106119e9578780f35b6119f4818784612f26565b351515611a0090612f36565b611a0b818689613011565b611a1791501515612911565b611a22818784612f26565b35611a2e82878a613011565b91908260405193849283378101600c8152602093849103019020611a53848888612f26565b358b52825260408a205580611a6983888b613011565b91908260405193849283378101600d815203019020611a89838787612f26565b358a5281524260408a2055611a9f828686612f26565b35611aab838986612f26565b35826040519182527f8fa8f97aaf26189ac469c7662e87dbceda87bd9ade91a749b64fc4c14ad98d6691a2611ae182878a613011565b9190611aee848888612f26565b3592611afb858b88612f26565b359181604051928392833781018d8152039020916040519182527f4c03b6c1689a03dd5aac5fc8c2ba9f66e08b0729a35cd56d1132757f19f093ae91a3611b4190612c51565b6119de565b508285146119d3565b8680fd5b8580fd5b82346102fc57806003193601126102fc5760206040517f00000000000000000000000000000000000000000000000000000000000000008152f35b82346102fc57806003193601126102fc576020600654604051908152f35b82346102fc57604060209182611bc86109bc366124a7565b8101600c81520301902090825283522054604051908152f35b50346102dc5760403660031901126102dc57803567ffffffffffffffff811161072057916020611c176040938295369101612416565b919082855193849283378101600c815203019020602435825283522054604051908152f35b5090346102fc5760a03660031901126102fc57611c576123fb565b608435606435604435602435611c6b612869565b611c736128bd565b611c9c611c7f426125d9565b611c94611c8b426125e9565b91841015612606565b821115612652565b611cc87f000000000000000000000000000000000000000000000000000000000000000085101561269e565b611cf47f00000000000000000000000000000000000000000000000000000000000000008511156126da565b6001600160a01b03958660085460081c1696611d1188151561295d565b611d1c858510612762565b83151580611e4f575b611d2e906127a4565b611d394284116127f0565b861615611e0b5760405180976370a0823160e01b8252308a83015281602460209a8b935afa918215610c1d578092611ddb575b505084611d7b6006548361285c565b10611d9757610522969750600655611d91612251565b94612bbe565b60405162461bcd60e51b8152808901889052601b60248201527f546f6b656e732077657265206e6f74207472616e7366657272656400000000006044820152606490fd5b9091508782813d8311611e04575b611df3818361222f565b810103126102fc5750513880611d6c565b503d611de9565b60405162461bcd60e51b81526020818a0152601660248201527f496e76616c696420626574746f722061646472657373000000000000000000006044820152606490fd5b50841515611d25565b50346102dc5760203660031901126102dc5760406101609282358152600a60205220906001600160a01b038254169160ff60018201549260028301549060038401549084015460058501549060068601549260078701549486600960088a015499015416986040519a8b5260208b015260408a01526060890152608088015260a087015260c0860152818116151560e086015260081c1615156101008401526101208301521515610140820152f35b82346102fc57806003193601126102fc576020604051601e8152f35b82346102fc57806003193601126102fc57602060ff60085416604051908152f35b5090346102fc5760203660031901126102fc5781358152600b6020526040812082810154916032830193848411611fd85750508054808411611fd0575b9060ff6005611f93856108b19561285c565b92015416159081611fc6575b60405194859485926060929594919560808501968552602085015260408401521515910152565b8015159150611f9f565b925082611f81565b634e487b7160e01b825260119052602490fd5b50346102dc5760203660031901126102dc5761014061016092604051612010816121a7565b8181528160208201528160408201528160608201528160808201528160a08201528160c08201528160e082015260406101009280848401528085610120948286820152015285358152600a602052209160ff600960405194612071866121a7565b6001600160a01b03815416978887526001820154602088015260028201546040880152600382015460608801528101546080870152600581015460a0870152600681015460c0870152826007820154818116151560e089015260081c161515848701526008810154858701520154161515848401526040519485526020830151602086015260408301516040860152606083015160608601526080830151608086015260a083015160a086015260c083015160c086015260e0830151151560e086015280830151151590850152808201519084015201511515610140820152f35b8390346102dc57816003193601126102dc578060c860209252f35b90600182811c9216801561219d575b602083101461218757565b634e487b7160e01b600052602260045260246000fd5b91607f169161217c565b610160810190811067ffffffffffffffff8211176121c457604052565b634e487b7160e01b600052604160045260246000fd5b610120810190811067ffffffffffffffff8211176121c457604052565b6080810190811067ffffffffffffffff8211176121c457604052565b6040810190811067ffffffffffffffff8211176121c457604052565b90601f8019910116810190811067ffffffffffffffff8211176121c457604052565b60405190600082600754916122658361216d565b808352926001908181169081156122ed575060011461228e575b5061228c9250038361222f565b565b6007600090815291507fa66cc928b5edb82af9bd49922954155ab7b0942694bea4ce44661d9a8736c6885b8483106122d2575061228c93505081016020013861227f565b81935090816020925483858a010152019101909185926122b9565b90506020925061228c94915060ff191682840152151560051b8201013861227f565b90604051918260008254926123238461216d565b908184526001948581169081600014612390575060011461234d575b505061228c9250038361222f565b9093915060005260209081600020936000915b81831061237857505061228c9350820101388061233f565b85548884018501529485019487945091830191612360565b91505061228c94506020925060ff191682840152151560051b820101388061233f565b60005b8381106123c65750506000910152565b81810151838201526020016123b6565b906020916123ef815180928185528580860191016123b3565b601f01601f1916010190565b600435906001600160a01b038216820361241157565b600080fd5b9181601f840112156124115782359167ffffffffffffffff8311612411576020838186019501011161241157565b67ffffffffffffffff81116121c457601f01601f191660200190565b81601f820112156124115780359061247782612444565b92612485604051948561222f565b8284526020838301011161241157816000926020809301838601378301015290565b6040600319820112612411576004359067ffffffffffffffff8211612411576124d291600401612460565b9060243590565b9181601f840112156124115782359167ffffffffffffffff8311612411576020808501948460051b01011161241157565b60809060031901126124115760043590602435906044359060643590565b6040906003190112612411576004359060243590565b606090600319011261241157600435906024359060443590565b6001600160a01b0360005416330361256c57565b606460405162461bcd60e51b815260206004820152602060248201527f4f776e61626c653a2063616c6c6572206973206e6f7420746865206f776e65726044820152fd5b818102929181159184041417156125c357565b634e487b7160e01b600052601160045260246000fd5b906201518082018092116125c357565b9062278d0082018092116125c357565b919082018092116125c357565b1561260d57565b60405162461bcd60e51b815260206004820152600f60248201527f54617267657420746f6f20736f6f6e00000000000000000000000000000000006044820152606490fd5b1561265957565b60405162461bcd60e51b815260206004820152600e60248201527f54617267657420746f6f206661720000000000000000000000000000000000006044820152606490fd5b156126a557565b60405162461bcd60e51b815260206004820152600d60248201526c10995d081d1bdbc81cdb585b1b609a1b6044820152606490fd5b156126e157565b60405162461bcd60e51b815260206004820152600d60248201526c42657420746f6f206c6172676560981b6044820152606490fd5b1561271d57565b60405162461bcd60e51b815260206004820152601460248201527f4e6174697665206d6f64652064697361626c65640000000000000000000000006044820152606490fd5b1561276957565b60405162461bcd60e51b8152602060048201526013602482015272496e76616c69642070726963652072616e676560681b6044820152606490fd5b156127ab57565b60405162461bcd60e51b815260206004820152601760248201527f507269636573206d75737420626520706f7369746976650000000000000000006044820152606490fd5b156127f757565b60405162461bcd60e51b815260206004820152601d60248201527f43616e6e6f7420626574206f6e20706173742074696d657374616d70730000006044820152606490fd5b8115612846570490565b634e487b7160e01b600052601260045260246000fd5b919082039182116125c357565b60ff60015460a01c1661287857565b60405162461bcd60e51b815260206004820152601060248201527f5061757361626c653a20706175736564000000000000000000000000000000006044820152606490fd5b60028054146128cc5760028055565b60405162461bcd60e51b815260206004820152601f60248201527f5265656e7472616e637947756172643a207265656e7472616e742063616c6c006044820152606490fd5b1561291857565b60405162461bcd60e51b815260206004820152600e60248201527f41737365742072657175697265640000000000000000000000000000000000006044820152606490fd5b1561296457565b60405162461bcd60e51b815260206004820152601660248201527f546f6b656e206d6f6465206e6f7420656e61626c6564000000000000000000006044820152606490fd5b9290604051926323b872dd60e01b60208501526001600160a01b03809216602485015216604483015260648201526064815260a081019181831067ffffffffffffffff8411176121c45761228c926040525b6001600160a01b031690612a5b604051612a1481612213565b6020938482527f5361666545524332303a206c6f772d6c6576656c2063616c6c206661696c6564858301526000808587829751910182855af1612a55612af1565b91612b21565b805191821591848315612acd575b505050905015612a765750565b6084906040519062461bcd60e51b82526004820152602a60248201527f5361666545524332303a204552433230206f7065726174696f6e20646964206e6044820152691bdd081cdd58d8d9595960b21b6064820152fd5b9193818094500103126102dc578201519081151582036102fc575080388084612a69565b3d15612b1c573d90612b0282612444565b91612b10604051938461222f565b82523d6000602084013e565b606090565b91929015612b835750815115612b35575090565b3b15612b3e5790565b60405162461bcd60e51b815260206004820152601d60248201527f416464726573733a2063616c6c20746f206e6f6e2d636f6e74726163740000006044820152606490fd5b825190915015612b965750805190602001fd5b60405162461bcd60e51b815260206004820152908190612bba9060248301906123d6565b0390fd5b92949390946064820292828404606414831517156125c357612c4e967fc472cb3a7a659a876494d66b3063145f279701771d6150b9329c31611ed6405c6020612c0d612710809804809761285c565b95612c1a816003546125f9565b600355604051908152a184612c3b612c328585613701565b6104ff8461379b565b0494612c4786866125b0565b0495613416565b90565b60001981146125c35760010190565b8054821015612c785760005260206000200190600090565b634e487b7160e01b600052603260045260246000fd5b906000908282526020600b81526040938484209460ff9283600588015416612e9857600496878101978854956032870191828811612e85578354808411612e7d575b881015612e66578980985b848110612d485750505050807fd03f99f321df6e5a7f705a548f7e6b4880d02286dda4ffbbf00ff5353381fa89959697989960038401612d1c8c82546125f9565b90555581541115612d38575b5086825191868352820152a29190565b612d429085613185565b38612d28565b612d528187612c60565b9054600391821b1c90818452600a8952898420916007830180549188831615612d89575b5050505050612d8490612c51565b612cdb565b612d95909e959e613238565b908115612e1957600160ff1980941617905580600885015560028401548110159283612e0b575b5050866009840191825416921515168092179055612ded575b50612de2612d8491612c51565b999038808080612d76565b612e03612d84929d6006612de2930154906125f9565b9c9150612dd5565b840154101591503880612dbc565b8c5162461bcd60e51b81528089018d9052602160248201527f5072696365206e6f742073657420666f722061737365742b74696d657374616d6044820152600760fc1b6064820152608490fd5b50505093505050612e7992939450613185565b8190565b925082612cd0565b634e487b7160e01b8a5260119052602489fd5b606491519062461bcd60e51b82526004820152601c60248201527f4167677265676174696f6e20616c726561647920636f6d706c657465000000006044820152fd5b15612ee157565b60405162461bcd60e51b815260206004820152601260248201527f4c656e67746873206d757374206d6174636800000000000000000000000000006044820152606490fd5b9190811015612c785760051b0190565b15612f3d57565b60405162461bcd60e51b815260206004820152601660248201527f5072696365206d75737420626520706f736974697665000000000000000000006044820152606490fd5b60075460009291612f928261216d565b91600190818116908115612ffe5750600114612fad57505050565b909192935060076000527fa66cc928b5edb82af9bd49922954155ab7b0942694bea4ce44661d9a8736c688906000915b848310612feb575050500190565b8181602092548587015201920191612fdd565b60ff191683525050811515909102019150565b9190811015612c785760051b81013590601e198136030182121561241157019081359167ffffffffffffffff8311612411576020018236038113612411579190565b811561318157600880546001600160a01b039290821c83161561311f57906130af83926024956020958454851c1690856040519363a9059cbb60e01b8986015216888401526044830152604482526130aa826121f7565b6129fb565b8054901c16604051928380926370a0823160e01b82523060048301525afa908115613113576000916130e2575b50600655565b906020823d821161310b575b816130fb6020938361222f565b810103126102fc575051386130dc565b3d91506130ee565b6040513d6000823e3d90fd5b60009384938493508392165af1613134612af1565b501561313c57565b60405162461bcd60e51b815260206004820152600f60248201527f5472616e73666572206661696c656400000000000000000000000000000000006044820152606490fd5b5050565b9060207fc8076cf096b541fb33d9acbd6bfd0ef234ae377710816fd316e2964d795b7afb9160058101600160ff1982541617905583600382019182541560001461321f5760010154806131e0575b50505b54604051908152a2565b838161320e7e8ea0be615f0ab399dabe6854c4d159dd8f0f1e0af154a2c51bfc4883f35e7e936003546125f9565b600355604051908152a283386131d3565b6132309150600101546004546125f9565b6004556131d6565b6000818152602091600a8352604092838320916009825261325b8585205461216d565b15613397578352600981528383205b8451815485826132798361216d565b918282528682019560019488868216918260001461337957505060011461333b575b506132a89250038361222f565b8651848184516132b98183896123b3565b8101600d815203019020940154938486528352858520548015908115613311575b50613308576132f591839187519384928392519283916123b3565b8101600c81520301902091835252205490565b50505050905090565b9050610e108101809111613327574210386132da565b634e487b7160e01b86526011600452602486fd5b91505087528285808920848a915b8583106133605750506132a893508201013861329b565b8091929450548385890101520191018690848693613349565b60ff191689526132a895151560051b850101925038915061329b9050565b50600761326a565b6001600160a01b0360085460081c16806133b857504790565b6020602491604051928380926370a0823160e01b82523060048301525afa908115613113576000916133e8575090565b906020823d821161340e575b816134016020938361222f565b810103126102fc57505190565b3d91506133f4565b95969290916005549761342889612c51565b60055561343484613681565b6000908a8252602098600a8a528360066001600160a01b03604086209d169c8d6001600160a01b03198254161781556001938a858301558860028301558960038301558c60048301556005820155015560098a5260408320885167ffffffffffffffff81116135ae578b6134a8835461216d565b601f8111613639575b5050808c601f82116001146135cd5786916135c2575b50600019600383901b1c191690831b1790555b818352600b8a5260408320805490680100000000000000008210156135ae5760406135a898958f9d9b9895858f7f98c3c8e636f21d70ec83e6f86323d373462d4c02edde7a2142b84142b9265b6e9f9d9a978f909161354589600299600b956135809c018155612c60565b819291549060031b91821b91600019901b1916179055838552528383200161356e8d82546125f9565b90558152600b8c5220019182546125f9565b905560405196879687528601526040850152606084015260a0608084015260a08301906123d6565b0390a390565b634e487b7160e01b85526041600452602485fd5b90508a0151386134c7565b8492508d90601f1983168589528d838a20938a915b8383106136185750505083116135ff575b5050811b0190556134da565b8c015160001960f88460031b161c1916905538806135f3565b94848294959798929396015181550194019201908f9187959493928f6135e2565b83875281872090601f840160051c8201928410613677575b601f0160051c019084905b82811061366c57508d91506134b1565b87815501849061365c565b9091508190613651565b7f0000000000000000000000000000000000000000000000000000000000000000908181106136bc5762015180916136b89161285c565b0490565b60405162461bcd60e51b815260206004820152601060248201527f4d757374206265203e3d207374617274000000000000000000000000000000006044820152606490fd5b9061371690613710838261285c565b926125f9565b60011c600081156137935750612710918281029281840414901517156125c35761373f9161283c565b610fa081111561375057506103e890565b6107d081106137605750610bb890565b6103e88110613770575061138890565b6101f48110613780575061271090565b60c81161378d57613a9890565b614e2090565b91505061373f565b6137a690429061285c565b6205460081106137b75750614e2090565b6202a30081106137c85750613a9890565b6201518081106137d9575061271090565b61708081106137e9575061138890565b611c2081106137f95750610bb890565b610e1011613807576103e890565b6103e890565b604080519261381b846121da565b60009283855260209584878701528484870152606085818801528560808801528560a08801528560c08801528560e0880152806101008098015242831115613a6b5781841015613a02577f0000000000000000000000000000000000000000000000000000000000000000891080156139d9575b6139665760648902918983046064148a151715613952576138c0906138ba612710809504809c61285c565b95613701565b906138ca8461379b565b916138ec846138d985846125b0565b04946138e586896125b0565b0495613681565b9587519b6138f98d6121da565b8c528a8c0152868b0152890152608088015260a087015260c0860152600160e086015280519384019084821067ffffffffffffffff83111761393e5752825282015290565b634e487b7160e01b83526041600452602483fd5b634e487b7160e01b87526011600452602487fd5b9750505050817f496e76616c6964207374616b6520616d6f756e740000000000000000000000009282519661399a886121da565b818852818789015281848901528701528060808701528060a08701528060c087015260e086015251926139cc84612213565b6014845283015282015290565b507f0000000000000000000000000000000000000000000000000000000000000000891161388f565b97505050508172496e76616c69642070726963652072616e676560681b92825196613a2c886121da565b818852818789015281848901528701528060808701528060a08701528060c087015260e08601525192613a5e84612213565b6013845283015282015290565b9750505050817f4d757374206265206675747572652074696d657374616d70000000000000000092825196613a9f886121da565b818852818789015281848901528701528060808701528060a08701528060c087015260e08601525192613ad184612213565b6018845283015282015290565b6000908152600b602052604081209081549160c88311613b3d57815b838110613b0a5750505050600190565b613b23613b178284612c60565b90549060031b1c613238565b15613b3657613b3190612c51565b613afa565b5050905090565b60405162461bcd60e51b815260206004820152601b60248201527f4275636b657420746f6f206c617267653b207573652072616e676500000000006044820152606490fd5b92916000938452600b6020526040842080549182841015613c3a5760c8811115613c315750613bb360c85b846125f9565b91808311613c29575b50825b828110613bd8575050613bd392935061285c565b600191565b613be5613b178284612c60565b15613bf857613bf390612c51565b613bbf565b9050613c0592915061285c565b9160018301809311613c15579190565b634e487b7160e01b81526011600452602490fd5b915038613bbc565b613bb390613bad565b5050505060019190565b8015613d1c5780816000925b613d08575080613c5f83612444565b92613c6d604051948561222f565b808452601f19613c7c82612444565b01366020860137915b613c8e57505090565b6000198201918083116125c35782600a90818404938285029285840414851517156125c357613cc060ff93849261285c565b166030019182116125c35785511115612c785760f81b7fff000000000000000000000000000000000000000000000000000000000000001660001a908401601f015380613c85565b91613d14600a91612c51565b920480613c50565b50604051613d2981612213565b60018152600360fc1b60208201529056fea26469706673582212205a3027ea87d5f0e4e7d73b0f61ade48a214caec5bfbd2afc305183b5977b90b664736f6c63430008140033",
  "linkReferences": {},
  "deployedLinkReferences": {}
}