{
  "_format": "hh-sol-artifact-1",
  "contractName": "PoliticsPredictionMarket",
  "sourceName": "contracts/PoliticsPredictionMarket.sol",
  "abi": [
    {
      "inputs": [
        {
          "internalType": "address",
          "name": "_stakingToken",
          "type": "address"
        }
      ],
      "stateMutability": "nonpayable",
      "type": "constructor"
    },
    {
      "anonymous": false,
      "inputs": [
        {
          "indexed": true,
          "internalType": "uint256",
          "name": "bucket",
          "type": "uint256"
        },
        {
          "indexed": false,
          "internalType": "uint256",
          "name": "totalWinningWeight",
          "type": "uint256"
        }
      ],
      "name": "AggregationCompleted",
      "type": "event"
    },
    {
      "anonymous": false,
      "inputs": [
        {
          "indexed": true,
          "internalType": "uint256",
          "name": "bucket",
          "type": "uint256"
        },
        {
          "indexed": false,
          "internalType": "uint256",
          "name": "processedCount",
          "type": "uint256"
        },
        {
          "indexed": false,
          "internalType": "uint256",
          "name": "winningWeight",
          "type": "uint256"
        }
      ],
      "name": "BatchProcessed",
      "type": "event"
    },
    {
      "anonymous": false,
      "inputs": [
        {
          "indexed": true,
          "internalType": "uint256",
          "name": "betId",
          "type": "uint256"
        },
        {
          "indexed": true,
          "internalType": "address",
          "name": "bettor",
          "type": "address"
        },
        {
          "indexed": false,
          "internalType": "uint256",
          "name": "payout",
          "type": "uint256"
        }
      ],
      "name": "BetClaimed",
      "type": "event"
    },
    {
      "anonymous": false,
      "inputs": [
        {
          "indexed": true,
          "internalType": "uint256",
          "name": "betId",
          "type": "uint256"
        },
        {
          "indexed": false,
          "internalType": "uint256",
          "name": "actualValue",
          "type": "uint256"
        },
        {
          "indexed": false,
          "internalType": "bool",
          "name": "won",
          "type": "bool"
        },
        {
          "indexed": false,
          "internalType": "uint256",
          "name": "payout",
          "type": "uint256"
        }
      ],
      "name": "BetFinalized",
      "type": "event"
    },
    {
      "anonymous": false,
      "inputs": [
        {
          "indexed": true,
          "internalType": "uint256",
          "name": "betId",
          "type": "uint256"
        },
        {
          "indexed": true,
          "internalType": "address",
          "name": "bettor",
          "type": "address"
        },
        {
          "indexed": false,
          "internalType": "uint256",
          "name": "bucket",
          "type": "uint256"
        },
        {
          "indexed": false,
          "internalType": "uint256",
          "name": "stake",
          "type": "uint256"
        },
        {
          "indexed": false,
          "internalType": "uint256",
          "name": "rangeMin",
          "type": "uint256"
        },
        {
          "indexed": false,
          "internalType": "uint256",
          "name": "rangeMax",
          "type": "uint256"
        },
        {
          "indexed": false,
          "internalType": "uint256",
          "name": "targetTimestamp",
          "type": "uint256"
        }
      ],
      "name": "BetPlaced",
      "type": "event"
    },
    {
      "anonymous": false,
      "inputs": [
        {
          "indexed": true,
          "internalType": "uint256",
          "name": "bucket",
          "type": "uint256"
        },
        {
          "indexed": false,
          "internalType": "uint256",
          "name": "value",
          "type": "uint256"
        }
      ],
      "name": "BucketValueSet",
      "type": "event"
    },
    {
      "anonymous": false,
      "inputs": [
        {
          "indexed": false,
          "internalType": "uint256",
          "name": "amount",
          "type": "uint256"
        }
      ],
      "name": "FeeCollected",
      "type": "event"
    },
    {
      "anonymous": false,
      "inputs": [
        {
          "indexed": true,
          "internalType": "address",
          "name": "oracle",
          "type": "address"
        }
      ],
      "name": "OracleAdded",
      "type": "event"
    },
    {
      "anonymous": false,
      "inputs": [
        {
          "indexed": true,
          "internalType": "address",
          "name": "oracle",
          "type": "address"
        }
      ],
      "name": "OracleRemoved",
      "type": "event"
    },
    {
      "anonymous": false,
      "inputs": [
        {
          "indexed": true,
          "internalType": "address",
          "name": "previousOwner",
          "type": "address"
        },
        {
          "indexed": true,
          "internalType": "address",
          "name": "newOwner",
          "type": "address"
        }
      ],
      "name": "OwnershipTransferred",
      "type": "event"
    },
    {
      "anonymous": false,
      "inputs": [
        {
          "indexed": true,
          "internalType": "uint256",
          "name": "eventId",
          "type": "uint256"
        },
        {
          "indexed": false,
          "internalType": "string",
          "name": "eventName",
          "type": "string"
        },
        {
          "indexed": false,
          "internalType": "string",
          "name": "candidate",
          "type": "string"
        },
        {
          "indexed": false,
          "internalType": "enum PoliticsPredictionMarket.PredictionType",
          "name": "predType",
          "type": "uint8"
        },
        {
          "indexed": false,
          "internalType": "uint256",
          "name": "eventTimestamp",
          "type": "uint256"
        }
      ],
      "name": "PoliticalEventCreated",
      "type": "event"
    },
    {
      "anonymous": false,
      "inputs": [
        {
          "indexed": true,
          "internalType": "uint256",
          "name": "eventId",
          "type": "uint256"
        },
        {
          "indexed": false,
          "internalType": "string",
          "name": "eventName",
          "type": "string"
        },
        {
          "indexed": false,
          "internalType": "uint256",
          "name": "actualValue",
          "type": "uint256"
        }
      ],
      "name": "PoliticalEventResolved",
      "type": "event"
    },
    {
      "anonymous": false,
      "inputs": [
        {
          "indexed": true,
          "internalType": "uint256",
          "name": "betId",
          "type": "uint256"
        },
        {
          "indexed": true,
          "internalType": "address",
          "name": "bettor",
          "type": "address"
        },
        {
          "indexed": false,
          "internalType": "uint256",
          "name": "exitPayout",
          "type": "uint256"
        },
        {
          "indexed": false,
          "internalType": "uint256",
          "name": "exitFee",
          "type": "uint256"
        }
      ],
      "name": "SharesSold",
      "type": "event"
    },
    {
      "anonymous": false,
      "inputs": [
        {
          "indexed": true,
          "internalType": "uint256",
          "name": "timestamp",
          "type": "uint256"
        },
        {
          "indexed": false,
          "internalType": "uint256",
          "name": "value",
          "type": "uint256"
        },
        {
          "indexed": false,
          "internalType": "uint256",
          "name": "confirmations",
          "type": "uint256"
        }
      ],
      "name": "ValueResolved",
      "type": "event"
    },
    {
      "anonymous": false,
      "inputs": [
        {
          "indexed": true,
          "internalType": "uint256",
          "name": "timestamp",
          "type": "uint256"
        },
        {
          "indexed": true,
          "internalType": "address",
          "name": "oracle",
          "type": "address"
        },
        {
          "indexed": false,
          "internalType": "uint256",
          "name": "value",
          "type": "uint256"
        }
      ],
      "name": "ValueSubmitted",
      "type": "event"
    },
    {
      "inputs": [],
      "name": "BATCH_SIZE",
      "outputs": [
        {
          "internalType": "uint256",
          "name": "",
          "type": "uint256"
        }
      ],
      "stateMutability": "view",
      "type": "function"
    },
    {
      "inputs": [],
      "name": "BPS_DENOM",
      "outputs": [
        {
          "internalType": "uint256",
          "name": "",
          "type": "uint256"
        }
      ],
      "stateMutability": "view",
      "type": "function"
    },
    {
      "inputs": [],
      "name": "EXIT_FEE_BPS",
      "outputs": [
        {
          "internalType": "uint256",
          "name": "",
          "type": "uint256"
        }
      ],
      "stateMutability": "view",
      "type": "function"
    },
    {
      "inputs": [],
      "name": "FEE_BPS",
      "outputs": [
        {
          "internalType": "uint256",
          "name": "",
          "type": "uint256"
        }
      ],
      "stateMutability": "view",
      "type": "function"
    },
    {
      "inputs": [],
      "name": "MAX_DAYS_AHEAD",
      "outputs": [
        {
          "internalType": "uint256",
          "name": "",
          "type": "uint256"
        }
      ],
      "stateMutability": "view",
      "type": "function"
    },
    {
      "inputs": [],
      "name": "MAX_EXIT_RATIO_BPS",
      "outputs": [
        {
          "internalType": "uint256",
          "name": "",
          "type": "uint256"
        }
      ],
      "stateMutability": "view",
      "type": "function"
    },
    {
      "inputs": [],
      "name": "MAX_STAKE",
      "outputs": [
        {
          "internalType": "uint256",
          "name": "",
          "type": "uint256"
        }
      ],
      "stateMutability": "view",
      "type": "function"
    },
    {
      "inputs": [],
      "name": "MIN_DAYS_AHEAD",
      "outputs": [
        {
          "internalType": "uint256",
          "name": "",
          "type": "uint256"
        }
      ],
      "stateMutability": "view",
      "type": "function"
    },
    {
      "inputs": [],
      "name": "MIN_K",
      "outputs": [
        {
          "internalType": "uint256",
          "name": "",
          "type": "uint256"
        }
      ],
      "stateMutability": "view",
      "type": "function"
    },
    {
      "inputs": [],
      "name": "MIN_STAKE",
      "outputs": [
        {
          "internalType": "uint256",
          "name": "",
          "type": "uint256"
        }
      ],
      "stateMutability": "view",
      "type": "function"
    },
    {
      "inputs": [],
      "name": "REQUIRED_CONFIRMATIONS",
      "outputs": [
        {
          "internalType": "uint256",
          "name": "",
          "type": "uint256"
        }
      ],
      "stateMutability": "view",
      "type": "function"
    },
    {
      "inputs": [],
      "name": "SECONDS_PER_DAY",
      "outputs": [
        {
          "internalType": "uint256",
          "name": "",
          "type": "uint256"
        }
      ],
      "stateMutability": "view",
      "type": "function"
    },
    {
      "inputs": [
        {
          "internalType": "address",
          "name": "oracle",
          "type": "address"
        }
      ],
      "name": "addTrustedOracle",
      "outputs": [],
      "stateMutability": "nonpayable",
      "type": "function"
    },
    {
      "inputs": [
        {
          "internalType": "uint256",
          "name": "rangeMin",
          "type": "uint256"
        },
        {
          "internalType": "uint256",
          "name": "rangeMax",
          "type": "uint256"
        }
      ],
      "name": "bandIndex",
      "outputs": [
        {
          "internalType": "uint256",
          "name": "",
          "type": "uint256"
        }
      ],
      "stateMutability": "pure",
      "type": "function"
    },
    {
      "inputs": [
        {
          "internalType": "uint256",
          "name": "",
          "type": "uint256"
        },
        {
          "internalType": "uint256",
          "name": "",
          "type": "uint256"
        }
      ],
      "name": "bandWeights",
      "outputs": [
        {
          "internalType": "uint256",
          "name": "",
          "type": "uint256"
        }
      ],
      "stateMutability": "view",
      "type": "function"
    },
    {
      "inputs": [
        {
          "internalType": "uint256[]",
          "name": "eventIds",
          "type": "uint256[]"
        },
        {
          "internalType": "uint256[]",
          "name": "actualValues",
          "type": "uint256[]"
        }
      ],
      "name": "batchResolvePoliticalEvents",
      "outputs": [],
      "stateMutability": "nonpayable",
      "type": "function"
    },
    {
      "inputs": [
        {
          "internalType": "uint256",
          "name": "",
          "type": "uint256"
        }
      ],
      "name": "betToEventId",
      "outputs": [
        {
          "internalType": "uint256",
          "name": "",
          "type": "uint256"
        }
      ],
      "stateMutability": "view",
      "type": "function"
    },
    {
      "inputs": [
        {
          "internalType": "uint256",
          "name": "",
          "type": "uint256"
        }
      ],
      "name": "bets",
      "outputs": [
        {
          "internalType": "address",
          "name": "bettor",
          "type": "address"
        },
        {
          "internalType": "uint256",
          "name": "targetTimestamp",
          "type": "uint256"
        },
        {
          "internalType": "uint256",
          "name": "rangeMin",
          "type": "uint256"
        },
        {
          "internalType": "uint256",
          "name": "rangeMax",
          "type": "uint256"
        },
        {
          "internalType": "uint256",
          "name": "stake",
          "type": "uint256"
        },
        {
          "internalType": "uint256",
          "name": "qualityBps",
          "type": "uint256"
        },
        {
          "internalType": "uint256",
          "name": "weight",
          "type": "uint256"
        },
        {
          "internalType": "bool",
          "name": "finalized",
          "type": "bool"
        },
        {
          "internalType": "bool",
          "name": "claimed",
          "type": "bool"
        },
        {
          "internalType": "uint256",
          "name": "actualValue",
          "type": "uint256"
        },
        {
          "internalType": "bool",
          "name": "won",
          "type": "bool"
        },
        {
          "internalType": "uint256",
          "name": "entryBandWeight",
          "type": "uint256"
        },
        {
          "internalType": "bool",
          "name": "exited",
          "type": "bool"
        }
      ],
      "stateMutability": "view",
      "type": "function"
    },
    {
      "inputs": [
        {
          "internalType": "uint256",
          "name": "targetTs",
          "type": "uint256"
        }
      ],
      "name": "bucketIndex",
      "outputs": [
        {
          "internalType": "uint256",
          "name": "",
          "type": "uint256"
        }
      ],
      "stateMutability": "view",
      "type": "function"
    },
    {
      "inputs": [
        {
          "internalType": "uint256",
          "name": "",
          "type": "uint256"
        }
      ],
      "name": "buckets",
      "outputs": [
        {
          "internalType": "uint256",
          "name": "totalStaked",
          "type": "uint256"
        },
        {
          "internalType": "uint256",
          "name": "totalWeight",
          "type": "uint256"
        },
        {
          "internalType": "uint256",
          "name": "totalWinningWeight",
          "type": "uint256"
        },
        {
          "internalType": "uint256",
          "name": "nextProcessIndex",
          "type": "uint256"
        },
        {
          "internalType": "bool",
          "name": "aggregationComplete",
          "type": "bool"
        },
        {
          "internalType": "uint256",
          "name": "totalExited",
          "type": "uint256"
        }
      ],
      "stateMutability": "view",
      "type": "function"
    },
    {
      "inputs": [
        {
          "internalType": "uint256",
          "name": "betId",
          "type": "uint256"
        }
      ],
      "name": "claimBet",
      "outputs": [],
      "stateMutability": "nonpayable",
      "type": "function"
    },
    {
      "inputs": [
        {
          "internalType": "string",
          "name": "eventName",
          "type": "string"
        },
        {
          "internalType": "string",
          "name": "candidate",
          "type": "string"
        },
        {
          "internalType": "enum PoliticsPredictionMarket.PredictionType",
          "name": "predType",
          "type": "uint8"
        },
        {
          "internalType": "uint256",
          "name": "eventTimestamp",
          "type": "uint256"
        }
      ],
      "name": "createPoliticalEvent",
      "outputs": [
        {
          "internalType": "uint256",
          "name": "",
          "type": "uint256"
        }
      ],
      "stateMutability": "nonpayable",
      "type": "function"
    },
    {
      "inputs": [],
      "name": "emergencyWithdraw",
      "outputs": [],
      "stateMutability": "nonpayable",
      "type": "function"
    },
    {
      "inputs": [
        {
          "internalType": "uint256",
          "name": "bpsValue",
          "type": "uint256"
        }
      ],
      "name": "formatPercentage",
      "outputs": [
        {
          "internalType": "string",
          "name": "",
          "type": "string"
        }
      ],
      "stateMutability": "pure",
      "type": "function"
    },
    {
      "inputs": [
        {
          "internalType": "uint256",
          "name": "betId",
          "type": "uint256"
        }
      ],
      "name": "getBet",
      "outputs": [
        {
          "components": [
            {
              "internalType": "address",
              "name": "bettor",
              "type": "address"
            },
            {
              "internalType": "uint256",
              "name": "targetTimestamp",
              "type": "uint256"
            },
            {
              "internalType": "uint256",
              "name": "rangeMin",
              "type": "uint256"
            },
            {
              "internalType": "uint256",
              "name": "rangeMax",
              "type": "uint256"
            },
            {
              "internalType": "uint256",
              "name": "stake",
              "type": "uint256"
            },
            {
              "internalType": "uint256",
              "name": "qualityBps",
              "type": "uint256"
            },
            {
              "internalType": "uint256",
              "name": "weight",
              "type": "uint256"
            },
            {
              "internalType": "bool",
              "name": "finalized",
              "type": "bool"
            },
            {
              "internalType": "bool",
              "name": "claimed",
              "type": "bool"
            },
            {
              "internalType": "uint256",
              "name": "actualValue",
              "type": "uint256"
            },
            {
              "internalType": "bool",
              "name": "won",
              "type": "bool"
            },
            {
              "internalType": "uint256",
              "name": "entryBandWeight",
              "type": "uint256"
            },
            {
              "internalType": "bool",
              "name": "exited",
              "type": "bool"
            }
          ],
          "internalType": "struct BasePredictionMarket.Bet",
          "name": "",
          "type": "tuple"
        }
      ],
      "stateMutability": "view",
      "type": "function"
    },
    {
      "inputs": [
        {
          "internalType": "uint256",
          "name": "betId",
          "type": "uint256"
        }
      ],
      "name": "getBetEventId",
      "outputs": [
        {
          "internalType": "uint256",
          "name": "",
          "type": "uint256"
        }
      ],
      "stateMutability": "view",
      "type": "function"
    },
    {
      "inputs": [
        {
          "internalType": "uint256",
          "name": "bucket",
          "type": "uint256"
        }
      ],
      "name": "getBucketInfo",
      "outputs": [
        {
          "internalType": "uint256",
          "name": "totalBets",
          "type": "uint256"
        },
        {
          "internalType": "uint256",
          "name": "totalWinningWeight",
          "type": "uint256"
        },
        {
          "internalType": "uint256",
          "name": "nextProcessIndex",
          "type": "uint256"
        },
        {
          "internalType": "bool",
          "name": "aggregationComplete",
          "type": "bool"
        }
      ],
      "stateMutability": "view",
      "type": "function"
    },
    {
      "inputs": [
        {
          "internalType": "uint256",
          "name": "betId",
          "type": "uint256"
        }
      ],
      "name": "getDPMInfo",
      "outputs": [
        {
          "internalType": "uint256",
          "name": "rawExitValue",
          "type": "uint256"
        },
        {
          "internalType": "uint256",
          "name": "exitFee",
          "type": "uint256"
        },
        {
          "internalType": "uint256",
          "name": "netExitPayout",
          "type": "uint256"
        },
        {
          "internalType": "bool",
          "name": "canExit",
          "type": "bool"
        },
        {
          "internalType": "uint256",
          "name": "exitPoolRemaining",
          "type": "uint256"
        }
      ],
      "stateMutability": "view",
      "type": "function"
    },
    {
      "inputs": [
        {
          "internalType": "uint256",
          "name": "betId",
          "type": "uint256"
        }
      ],
      "name": "getExitValue",
      "outputs": [
        {
          "internalType": "uint256",
          "name": "rawExit",
          "type": "uint256"
        }
      ],
      "stateMutability": "view",
      "type": "function"
    },
    {
      "inputs": [
        {
          "internalType": "uint256",
          "name": "bucket",
          "type": "uint256"
        }
      ],
      "name": "getK",
      "outputs": [
        {
          "internalType": "uint256",
          "name": "",
          "type": "uint256"
        }
      ],
      "stateMutability": "view",
      "type": "function"
    },
    {
      "inputs": [
        {
          "internalType": "uint256",
          "name": "eventId",
          "type": "uint256"
        }
      ],
      "name": "getPoliticalEvent",
      "outputs": [
        {
          "internalType": "string",
          "name": "eventName",
          "type": "string"
        },
        {
          "internalType": "string",
          "name": "candidate",
          "type": "string"
        },
        {
          "internalType": "enum PoliticsPredictionMarket.PredictionType",
          "name": "predType",
          "type": "uint8"
        },
        {
          "internalType": "uint256",
          "name": "eventTimestamp",
          "type": "uint256"
        },
        {
          "internalType": "bool",
          "name": "resolved",
          "type": "bool"
        },
        {
          "internalType": "uint256",
          "name": "actualValue",
          "type": "uint256"
        }
      ],
      "stateMutability": "view",
      "type": "function"
    },
    {
      "inputs": [
        {
          "internalType": "uint256",
          "name": "timestamp",
          "type": "uint256"
        }
      ],
      "name": "getResolvedValue",
      "outputs": [
        {
          "internalType": "uint256",
          "name": "",
          "type": "uint256"
        }
      ],
      "stateMutability": "view",
      "type": "function"
    },
    {
      "inputs": [
        {
          "internalType": "uint256",
          "name": "rangeMin",
          "type": "uint256"
        },
        {
          "internalType": "uint256",
          "name": "rangeMax",
          "type": "uint256"
        }
      ],
      "name": "getSharpnessMultiplier",
      "outputs": [
        {
          "internalType": "uint256",
          "name": "",
          "type": "uint256"
        }
      ],
      "stateMutability": "pure",
      "type": "function"
    },
    {
      "inputs": [],
      "name": "getStats",
      "outputs": [
        {
          "internalType": "uint256",
          "name": "totalBets",
          "type": "uint256"
        },
        {
          "internalType": "uint256",
          "name": "totalFees",
          "type": "uint256"
        },
        {
          "internalType": "uint256",
          "name": "contractBalance",
          "type": "uint256"
        }
      ],
      "stateMutability": "view",
      "type": "function"
    },
    {
      "inputs": [
        {
          "internalType": "uint256",
          "name": "targetTimestamp",
          "type": "uint256"
        }
      ],
      "name": "getTimeMultiplier",
      "outputs": [
        {
          "internalType": "uint256",
          "name": "",
          "type": "uint256"
        }
      ],
      "stateMutability": "view",
      "type": "function"
    },
    {
      "inputs": [],
      "name": "getTotalEvents",
      "outputs": [
        {
          "internalType": "uint256",
          "name": "",
          "type": "uint256"
        }
      ],
      "stateMutability": "view",
      "type": "function"
    },
    {
      "inputs": [
        {
          "internalType": "uint256",
          "name": "",
          "type": "uint256"
        }
      ],
      "name": "isResolved",
      "outputs": [
        {
          "internalType": "bool",
          "name": "",
          "type": "bool"
        }
      ],
      "stateMutability": "view",
      "type": "function"
    },
    {
      "inputs": [],
      "name": "isTokenMode",
      "outputs": [
        {
          "internalType": "bool",
          "name": "",
          "type": "bool"
        }
      ],
      "stateMutability": "view",
      "type": "function"
    },
    {
      "inputs": [],
      "name": "nextBetId",
      "outputs": [
        {
          "internalType": "uint256",
          "name": "",
          "type": "uint256"
        }
      ],
      "stateMutability": "view",
      "type": "function"
    },
    {
      "inputs": [],
      "name": "nextEventId",
      "outputs": [
        {
          "internalType": "uint256",
          "name": "",
          "type": "uint256"
        }
      ],
      "stateMutability": "view",
      "type": "function"
    },
    {
      "inputs": [],
      "name": "oracleCount",
      "outputs": [
        {
          "internalType": "uint256",
          "name": "",
          "type": "uint256"
        }
      ],
      "stateMutability": "view",
      "type": "function"
    },
    {
      "inputs": [
        {
          "internalType": "uint256",
          "name": "",
          "type": "uint256"
        },
        {
          "internalType": "address",
          "name": "",
          "type": "address"
        }
      ],
      "name": "oracleSubmissions",
      "outputs": [
        {
          "internalType": "uint256",
          "name": "",
          "type": "uint256"
        }
      ],
      "stateMutability": "view",
      "type": "function"
    },
    {
      "inputs": [],
      "name": "owner",
      "outputs": [
        {
          "internalType": "address",
          "name": "",
          "type": "address"
        }
      ],
      "stateMutability": "view",
      "type": "function"
    },
    {
      "inputs": [
        {
          "internalType": "uint256",
          "name": "targetTimestamp",
          "type": "uint256"
        },
        {
          "internalType": "uint256",
          "name": "rangeMin",
          "type": "uint256"
        },
        {
          "internalType": "uint256",
          "name": "rangeMax",
          "type": "uint256"
        }
      ],
      "name": "placeBet",
      "outputs": [
        {
          "internalType": "uint256",
          "name": "",
          "type": "uint256"
        }
      ],
      "stateMutability": "payable",
      "type": "function"
    },
    {
      "inputs": [
        {
          "internalType": "uint256",
          "name": "targetTimestamp",
          "type": "uint256"
        },
        {
          "internalType": "uint256",
          "name": "rangeMin",
          "type": "uint256"
        },
        {
          "internalType": "uint256",
          "name": "rangeMax",
          "type": "uint256"
        },
        {
          "internalType": "uint256",
          "name": "amount",
          "type": "uint256"
        }
      ],
      "name": "placeBetWithToken",
      "outputs": [
        {
          "internalType": "uint256",
          "name": "",
          "type": "uint256"
        }
      ],
      "stateMutability": "nonpayable",
      "type": "function"
    },
    {
      "inputs": [
        {
          "internalType": "uint256",
          "name": "eventId",
          "type": "uint256"
        },
        {
          "internalType": "uint256",
          "name": "rangeMin",
          "type": "uint256"
        },
        {
          "internalType": "uint256",
          "name": "rangeMax",
          "type": "uint256"
        }
      ],
      "name": "placePoliticalBet",
      "outputs": [
        {
          "internalType": "uint256",
          "name": "",
          "type": "uint256"
        }
      ],
      "stateMutability": "payable",
      "type": "function"
    },
    {
      "inputs": [
        {
          "internalType": "uint256",
          "name": "",
          "type": "uint256"
        }
      ],
      "name": "politicalEvents",
      "outputs": [
        {
          "internalType": "string",
          "name": "eventName",
          "type": "string"
        },
        {
          "internalType": "string",
          "name": "candidate",
          "type": "string"
        },
        {
          "internalType": "enum PoliticsPredictionMarket.PredictionType",
          "name": "predType",
          "type": "uint8"
        },
        {
          "internalType": "uint256",
          "name": "eventTimestamp",
          "type": "uint256"
        },
        {
          "internalType": "bool",
          "name": "resolved",
          "type": "bool"
        },
        {
          "internalType": "uint256",
          "name": "actualValue",
          "type": "uint256"
        }
      ],
      "stateMutability": "view",
      "type": "function"
    },
    {
      "inputs": [
        {
          "internalType": "uint256",
          "name": "bucket",
          "type": "uint256"
        }
      ],
      "name": "processBatch",
      "outputs": [
        {
          "internalType": "uint256",
          "name": "processedCount",
          "type": "uint256"
        },
        {
          "internalType": "uint256",
          "name": "winningWeight",
          "type": "uint256"
        }
      ],
      "stateMutability": "nonpayable",
      "type": "function"
    },
    {
      "inputs": [
        {
          "internalType": "address",
          "name": "oracle",
          "type": "address"
        }
      ],
      "name": "removeTrustedOracle",
      "outputs": [],
      "stateMutability": "nonpayable",
      "type": "function"
    },
    {
      "inputs": [],
      "name": "renounceOwnership",
      "outputs": [],
      "stateMutability": "nonpayable",
      "type": "function"
    },
    {
      "inputs": [],
      "name": "requiredConfirmations",
      "outputs": [
        {
          "internalType": "uint256",
          "name": "",
          "type": "uint256"
        }
      ],
      "stateMutability": "view",
      "type": "function"
    },
    {
      "inputs": [
        {
          "internalType": "uint256",
          "name": "",
          "type": "uint256"
        }
      ],
      "name": "resolvedValues",
      "outputs": [
        {
          "internalType": "uint256",
          "name": "",
          "type": "uint256"
        }
      ],
      "stateMutability": "view",
      "type": "function"
    },
    {
      "inputs": [
        {
          "internalType": "uint256",
          "name": "betId",
          "type": "uint256"
        }
      ],
      "name": "sellShares",
      "outputs": [],
      "stateMutability": "nonpayable",
      "type": "function"
    },
    {
      "inputs": [
        {
          "internalType": "uint256",
          "name": "targetTimestamp",
          "type": "uint256"
        },
        {
          "internalType": "uint256",
          "name": "rangeMin",
          "type": "uint256"
        },
        {
          "internalType": "uint256",
          "name": "rangeMax",
          "type": "uint256"
        },
        {
          "internalType": "uint256",
          "name": "stakeAmount",
          "type": "uint256"
        }
      ],
      "name": "simulatePlaceBet",
      "outputs": [
        {
          "components": [
            {
              "internalType": "uint256",
              "name": "fee",
              "type": "uint256"
            },
            {
              "internalType": "uint256",
              "name": "stakeNet",
              "type": "uint256"
            },
            {
              "internalType": "uint256",
              "name": "sharpnessBps",
              "type": "uint256"
            },
            {
              "internalType": "uint256",
              "name": "timeBps",
              "type": "uint256"
            },
            {
              "internalType": "uint256",
              "name": "qualityBps",
              "type": "uint256"
            },
            {
              "internalType": "uint256",
              "name": "weight",
              "type": "uint256"
            },
            {
              "internalType": "uint256",
              "name": "bucket",
              "type": "uint256"
            },
            {
              "internalType": "bool",
              "name": "isValid",
              "type": "bool"
            },
            {
              "internalType": "string",
              "name": "errorMessage",
              "type": "string"
            }
          ],
          "internalType": "struct BasePredictionMarket.BetSimulation",
          "name": "",
          "type": "tuple"
        }
      ],
      "stateMutability": "view",
      "type": "function"
    },
    {
      "inputs": [],
      "name": "stakingToken",
      "outputs": [
        {
          "internalType": "contract IERC20",
          "name": "",
          "type": "address"
        }
      ],
      "stateMutability": "view",
      "type": "function"
    },
    {
      "inputs": [],
      "name": "startTimestamp",
      "outputs": [
        {
          "internalType": "uint256",
          "name": "",
          "type": "uint256"
        }
      ],
      "stateMutability": "view",
      "type": "function"
    },
    {
      "inputs": [
        {
          "internalType": "uint256",
          "name": "",
          "type": "uint256"
        }
      ],
      "name": "submissionCount",
      "outputs": [
        {
          "internalType": "uint256",
          "name": "",
          "type": "uint256"
        }
      ],
      "stateMutability": "view",
      "type": "function"
    },
    {
      "inputs": [
        {
          "internalType": "uint256",
          "name": "eventId",
          "type": "uint256"
        },
        {
          "internalType": "uint256",
          "name": "actualValue",
          "type": "uint256"
        }
      ],
      "name": "submitPoliticalResult",
      "outputs": [],
      "stateMutability": "nonpayable",
      "type": "function"
    },
    {
      "inputs": [
        {
          "internalType": "uint256",
          "name": "timestamp",
          "type": "uint256"
        },
        {
          "internalType": "uint256",
          "name": "value",
          "type": "uint256"
        }
      ],
      "name": "submitValue",
      "outputs": [],
      "stateMutability": "nonpayable",
      "type": "function"
    },
    {
      "inputs": [],
      "name": "totalFeesCollected",
      "outputs": [
        {
          "internalType": "uint256",
          "name": "",
          "type": "uint256"
        }
      ],
      "stateMutability": "view",
      "type": "function"
    },
    {
      "inputs": [],
      "name": "totalObligations",
      "outputs": [
        {
          "internalType": "uint256",
          "name": "",
          "type": "uint256"
        }
      ],
      "stateMutability": "view",
      "type": "function"
    },
    {
      "inputs": [
        {
          "internalType": "address",
          "name": "newOwner",
          "type": "address"
        }
      ],
      "name": "transferOwnership",
      "outputs": [],
      "stateMutability": "nonpayable",
      "type": "function"
    },
    {
      "inputs": [
        {
          "internalType": "address",
          "name": "",
          "type": "address"
        }
      ],
      "name": "trustedOracles",
      "outputs": [
        {
          "internalType": "bool",
          "name": "",
          "type": "bool"
        }
      ],
      "stateMutability": "view",
      "type": "function"
    },
    {
      "inputs": [],
      "name": "withdrawFees",
      "outputs": [],
      "stateMutability": "nonpayable",
      "type": "function"
    }
  ],
  "bytecode": "0x60a060405260036001553480156200001657600080fd5b5060405162004db538038062004db58339810160408190526200003991620001a8565b80620000453362000077565b600580546001600160a01b0319166001600160a01b038316179055426080526200006f33620000c7565b5050620001da565b600080546001600160a01b038381166001600160a01b0319831681178455604051919092169283917f8be0079c531659141344cd1fd0a4f28419497f9722a3daafe3b4186f6b6457e09190a35050565b620000d16200014a565b6001600160a01b0381166200013c5760405162461bcd60e51b815260206004820152602660248201527f4f776e61626c653a206e6577206f776e657220697320746865207a65726f206160448201526564647265737360d01b60648201526084015b60405180910390fd5b620001478162000077565b50565b6000546001600160a01b03163314620001a65760405162461bcd60e51b815260206004820181905260248201527f4f776e61626c653a2063616c6c6572206973206e6f7420746865206f776e6572604482015260640162000133565b565b600060208284031215620001bb57600080fd5b81516001600160a01b0381168114620001d357600080fd5b9392505050565b608051614bb16200020460003960008181610cd50152818161296501526129dc0152614bb16000f3fe6080604052600436106103c35760003560e01c806372f702f3116101f2578063bf333f2c1161010d578063db296602116100a0578063f2fde38b1161006f578063f2fde38b14610d0a578063f37ed7de14610d2a578063f78ed10814610d40578063fbe1f9eb14610d5557600080fd5b8063db29660214610c7e578063db2e21bc14610cae578063e6fd48bc14610cc3578063e71c969714610cf757600080fd5b8063cb1c2b5c116100dc578063cb1c2b5c14610be6578063cc4e195414610c01578063d07c256114610c31578063d6f074cc14610c5157600080fd5b8063bf333f2c146106b8578063c59d484714610b6c578063c98517c514610b9c578063cab6522314610bb957600080fd5b80639aca279211610185578063a14ec52f11610154578063a14ec52f14610ad4578063a3a56cbb14610af4578063b285e72814610b14578063bc92fe3214610b3457600080fd5b80639aca2792146109f45780639b51fb0d14610a0a5780639f9d903a14610a925780639fa4cc8614610aa857600080fd5b80637ec174df116101c15780637ec174df1461097357806382e717f7146109a05780638da5cb5b146109b65780639568786c146109d457600080fd5b806372f702f3146108d757806374f0314f1461090f57806377751c5b146109265780637e8c5f141461095357600080fd5b8063476343ee116102e2578063613d8fcc116102755780636637e38c116102445780636637e38c146108125780636df0751c14610828578063706cabd51461085a578063715018a6146108c257600080fd5b8063613d8fcc1461079257806361606940146107a857806362f55112146107bd5780636309463b146107dd57600080fd5b8063587d8127116102b1578063587d81271461070d5780635c626335146107225780635d8b2ca21461074f57806360c6d8ae1461077c57600080fd5b8063476343ee146106a357806349faa4d4146106b85780634ba8ae81146106cd5780634df86c43146106ed57600080fd5b80632485ac671161035a578063324d843811610329578063324d84381461060457806332ddfa271461061957806338b2f2981461066357806345c354b51461068357600080fd5b80632485ac671461056c578063285fe7771461058c5780632ca5d7ca146105c457806331ca4665146105e457600080fd5b8063227f960411610396578063227f96041461045d57806322af00fa1461047257806322d6a5df1461051f5780632312cbf61461053f57600080fd5b8063061e494f146103c8578063160e0901146103fe57806317f85f8514610428578063198faba91461044a575b600080fd5b3480156103d457600080fd5b506103e86103e336600461432d565b610d6b565b6040516103f59190614346565b60405180910390f35b34801561040a57600080fd5b5061041a678ac7230489e8000081565b6040519081526020016103f5565b34801561043457600080fd5b50610448610443366004614408565b610ea9565b005b61041a61045836600461442a565b610fe1565b34801561046957600080fd5b5061041a601e81565b34801561047e57600080fd5b5061050661048d36600461432d565b600860208190526000918252604090912080546001820154600283015460038401546004850154600586015460068701546007880154988801546009890154600a8a0154600b909a01546001600160a01b039099169a97999698959794969395929460ff8082169561010090920481169492811692168d565b6040516103f59d9c9b9a99989796959493929190614456565b34801561052b57600080fd5b5061044861053a366004614408565b611111565b34801561054b57600080fd5b5061041a61055a36600461432d565b600d6020526000908152604090205481565b34801561057857600080fd5b5061041a61058736600461432d565b6111e2565b34801561059857600080fd5b5061041a6105a73660046144d8565b600b60209081526000928352604080842090915290825290205481565b3480156105d057600080fd5b506104486105df366004614546565b6112ed565b3480156105f057600080fd5b5061041a6105ff36600461432d565b61163b565b34801561061057600080fd5b5061041a605081565b34801561062557600080fd5b5061063961063436600461432d565b611690565b6040805195865260208601949094529284019190915215156060830152608082015260a0016103f5565b34801561066f57600080fd5b5061041a61067e3660046144d8565b61177e565b34801561068f57600080fd5b5061041a61069e3660046145b2565b6117d3565b3480156106af57600080fd5b50610448611b0b565b3480156106c457600080fd5b5061041a603281565b3480156106d957600080fd5b506104486106e836600461432d565b611bda565b3480156106f957600080fd5b5061044861070836600461432d565b611ef3565b34801561071957600080fd5b5061041a600381565b34801561072e57600080fd5b5061074261073d36600461432d565b6121e0565b6040516103f5919061463c565b34801561075b57600080fd5b5061041a61076a36600461432d565b600a6020526000908152604090205481565b34801561078857600080fd5b5061041a60025481565b34801561079e57600080fd5b5061041a60075481565b3480156107b457600080fd5b5060115461041a565b3480156107c957600080fd5b506104486107d83660046144d8565b61228d565b3480156107e957600080fd5b506107fd6107f836600461432d565b6124c6565b604080519283526020830191909152016103f5565b34801561081e57600080fd5b5061041a61271081565b34801561083457600080fd5b5061084861084336600461432d565b612800565b6040516103f596959493929190614687565b34801561086657600080fd5b506108a061087536600461432d565b6000908152600960205260409020805460038201546004830154600590930154919390929160ff1690565b60408051948552602085019390935291830152151560608201526080016103f5565b3480156108ce57600080fd5b5061044861294d565b3480156108e357600080fd5b506005546108f7906001600160a01b031681565b6040516001600160a01b0390911681526020016103f5565b34801561091b57600080fd5b5061041a6201518081565b34801561093257600080fd5b5061041a61094136600461432d565b60106020526000908152604090205481565b34801561095f57600080fd5b5061041a61096e36600461432d565b612961565b34801561097f57600080fd5b5061099361098e3660046145b2565b612a0b565b6040516103f591906146d9565b3480156109ac57600080fd5b5061041a60015481565b3480156109c257600080fd5b506000546001600160a01b03166108f7565b3480156109e057600080fd5b5061041a6109ef36600461432d565b612cee565b348015610a0057600080fd5b5061041a60045481565b348015610a1657600080fd5b50610a63610a2536600461432d565b600960205260009081526040902060018101546002820154600383015460048401546005850154600690950154939492939192909160ff9091169086565b6040805196875260208701959095529385019290925260608401521515608083015260a082015260c0016103f5565b348015610a9e57600080fd5b5061041a60115481565b348015610ab457600080fd5b506005546001600160a01b031615155b60405190151581526020016103f5565b348015610ae057600080fd5b50610448610aef3660046144d8565b612d8d565b348015610b0057600080fd5b5061041a610b0f3660046147f4565b612f89565b348015610b2057600080fd5b50610848610b2f36600461432d565b6130c8565b348015610b4057600080fd5b5061041a610b4f366004614876565b600c60209081526000928352604080842090915290825290205481565b348015610b7857600080fd5b50610b81613238565b604080519384526020840192909252908201526060016103f5565b348015610ba857600080fd5b5061041a68056bc75e2d6310000081565b348015610bc557600080fd5b5061041a610bd436600461432d565b60009081526010602052604090205490565b348015610bf257600080fd5b5061041a662386f26fc1000081565b348015610c0d57600080fd5b50610ac4610c1c36600461432d565b600e6020526000908152604090205460ff1681565b348015610c3d57600080fd5b5061041a610c4c3660046144d8565b613256565b348015610c5d57600080fd5b5061041a610c6c36600461432d565b6000908152600a602052604090205490565b348015610c8a57600080fd5b50610ac4610c99366004614408565b60066020526000908152604090205460ff1681565b348015610cba57600080fd5b50610448613323565b348015610ccf57600080fd5b5061041a7f000000000000000000000000000000000000000000000000000000000000000081565b61041a610d0536600461442a565b6133c2565b348015610d1657600080fd5b50610448610d25366004614408565b613639565b348015610d3657600080fd5b5061041a610bb881565b348015610d4c57600080fd5b5061041a600181565b348015610d6157600080fd5b5061041a60035481565b610de7604051806101a0016040528060006001600160a01b0316815260200160008152602001600081526020016000815260200160008152602001600081526020016000815260200160001515815260200160001515815260200160008152602001600015158152602001600081526020016000151581525090565b5060009081526008602081815260409283902083516101a08101855281546001600160a01b031681526001820154928101929092526002810154938201939093526003830154606082015260048301546080820152600583015460a0820152600683015460c0820152600783015460ff808216151560e084015261010091829004811615159183019190915291830154610120820152600983015482161515610140820152600a830154610160820152600b9092015416151561018082015290565b610eb16136b2565b6001600160a01b038116610f0c5760405162461bcd60e51b815260206004820152600f60248201527f496e76616c69642061646472657373000000000000000000000000000000000060448201526064015b60405180910390fd5b6001600160a01b03811660009081526006602052604090205460ff1615610f755760405162461bcd60e51b815260206004820152600f60248201527f416c7265616479207472757374656400000000000000000000000000000000006044820152606401610f03565b6001600160a01b0381166000908152600660205260408120805460ff191660011790556007805491610fa6836148b8565b90915550506040516001600160a01b038216907e47706786c922d17b39285dc59d696bafea72c0b003d3841ae1202076f4c2e490600090a250565b6000601154841061102b5760405162461bcd60e51b8152602060048201526014602482015273115d995b9d08191bd95cc81b9bdd08195e1a5cdd60621b6044820152606401610f03565b6000848152600f60205260409020600481015460ff161561108e5760405162461bcd60e51b815260206004820152601660248201527f4576656e7420616c7265616479207265736f6c766564000000000000000000006044820152606401610f03565b428160030154116110d15760405162461bcd60e51b815260206004820152600d60248201526c115d995b9d081a5b881c185cdd609a1b6044820152606401610f03565b60028101546110e49060ff16858561370c565b60006110f5826003015486866133c2565b6000818152601060205260409020879055925050509392505050565b6111196136b2565b6001600160a01b03811660009081526006602052604090205460ff166111785760405162461bcd60e51b81526020600482015260146024820152734e6f7420612074727573746564206f7261636c6560601b6044820152606401610f03565b6001600160a01b0381166000908152600660205260408120805460ff1916905560078054916111a6836148d3565b90915550506040516001600160a01b038216907f9c8e7d83025bef8a04c664b2f753f64b8814bdb7e27291d7e50935f18cc3c71290600090a250565b6000818152600860205260408120600781015460ff16806112075750600b81015460ff165b806112145750600a810154155b156112225750600092915050565b60006112318260010154612961565b905060006112478360020154846003015461177e565b6000838152600b60209081526040808320848452909152902054600a85015491925090811161127c5750600095945050505050565b600084600a01548261128e91906148ea565b9050600085600a015461271087600601546112a99190614901565b6112b39190614936565b90506127106112c28284614901565b6112cc9190614936565b965085600401548711156112e257856004015496505b505050505050919050565b6112f56136b2565b8281146113445760405162461bcd60e51b815260206004820152601260248201527f4c656e67746873206d757374206d6174636800000000000000000000000000006044820152606401610f03565b60005b83811015611634576011548585838181106113645761136461494a565b90506020020135106113af5760405162461bcd60e51b8152602060048201526014602482015273115d995b9d08191bd95cc81b9bdd08195e1a5cdd60621b6044820152606401610f03565b6000600f60008787858181106113c7576113c761494a565b60209081029290920135835250810191909152604001600020600481015490915060ff161561142b5760405162461bcd60e51b815260206004820152601060248201526f105b1c9958591e481c995cdbdb1d995960821b6044820152606401610f03565b42816003015411156114745760405162461bcd60e51b8152602060048201526012602482015271115d995b9d081b9bdd081bd8d8dd5c9c995960721b6044820152606401610f03565b60008484848181106114885761148861494a565b90506020020135116114d55760405162461bcd60e51b815260206004820152601660248201527556616c7565206d75737420626520706f73697469766560501b6044820152606401610f03565b8383838181106114e7576114e761494a565b6003840180546000908152600a60209081526040808320948202969096013590935590548152600e909152919091208054600160ff1991821681179092556004840180549091169091179055508383838181106115465761154661494a565b602002919091013560058301555060038101547f3d0851805149bdb1d3be4c433d056a1e9389f2dd9df643e72f47260a88b759bf85858581811061158c5761158c61494a565b9050602002013560016040516115ac929190918252602082015260400190565b60405180910390a28585838181106115c6576115c661494a565b905060200201357f5d20e81557cfc62592529f4b37445e9bf55b07a42e313c9510a2f6413bff5959826000018686868181106116045761160461494a565b90506020020135604051611619929190614995565b60405180910390a2508061162c816148b8565b915050611347565b5050505050565b6000818152600960205260408120600101548161271061165d836107d0614901565b6116679190614936565b9050678ac7230489e80000811161168657678ac7230489e80000611688565b805b949350505050565b60008181526008602052604081206001810154829182918291829182906116b690612961565b60008181526009602052604090209091506116d0896111e2565b97506127106116e060508a614901565b6116ea9190614936565b96506116f687896148ea565b95506000612710610bb8836001015461170f9190614901565b6117199190614936565b600683015490915080821161172f576000611739565b61173981836148ea565b600786015490965060ff161580156117565750600b85015460ff16155b8015611762575060008a115b801561176e5750858811155b9650505050505091939590929450565b600080600261178d8486614a45565b6117979190614936565b905060006127106117a98360c8614901565b6117b39190614936565b9050806117be575060015b6117c88183614936565b925050505b92915050565b600084816117e5620151806001614901565b6117ef9042614a45565b9050600061180162015180601e614901565b61180b9042614a45565b90508183101561184f5760405162461bcd60e51b815260206004820152600f60248201526e2a30b933b2ba103a37b79039b7b7b760891b6044820152606401610f03565b808311156118905760405162461bcd60e51b815260206004820152600e60248201526d2a30b933b2ba103a37b7903330b960911b6044820152606401610f03565b6005546001600160a01b03166118e85760405162461bcd60e51b815260206004820152601660248201527f546f6b656e206d6f6465206e6f7420656e61626c6564000000000000000000006044820152606401610f03565b600085116119385760405162461bcd60e51b815260206004820152601260248201527f416d6f756e74206d757374206265203e203000000000000000000000000000006044820152606401610f03565b8587106119775760405162461bcd60e51b815260206004820152600d60248201526c496e76616c69642072616e676560981b6044820152606401610f03565b6000871180156119875750600086115b6119d35760405162461bcd60e51b815260206004820152601760248201527f56616c756573206d75737420626520706f7369746976650000000000000000006044820152606401610f03565b428811611a175760405162461bcd60e51b815260206004820152601260248201527110d85b9b9bdd0818995d081bdb881c185cdd60721b6044820152606401610f03565b600554611a2f906001600160a01b0316333088613838565b6000612710611a3f603288614901565b611a499190614936565b90506000611a5782886148ea565b90508160026000828254611a6b9190614a45565b90915550506040518281527fc472cb3a7a659a876494d66b3063145f279701771d6150b9329c31611ed6405c9060200160405180910390a16000612710611ab18c612cee565b611abb8c8c613256565b611ac59190614901565b611acf9190614936565b90506000612710611ae08385614901565b611aea9190614936565b9050611afb338d8d8d8787876138d0565b9c9b505050505050505050505050565b611b136136b2565b6000611b1d613a75565b905060006003548211611b31576000611b3e565b600354611b3e90836148ea565b905060008160025410611b515781611b55565b6002545b905060008111611ba75760405162461bcd60e51b815260206004820152601460248201527f4e6f20776974686472617761626c6520666565730000000000000000000000006044820152606401610f03565b8060026000828254611bb991906148ea565b9091555050600054611bd5906001600160a01b03165b82613b0e565b505050565b600081815260086020526040902080546001600160a01b03163314611c315760405162461bcd60e51b815260206004820152600d60248201526c2737ba103132ba1037bbb732b960991b6044820152606401610f03565b600781015460ff1615611c795760405162461bcd60e51b815260206004820152601060248201526f105b1c9958591e481c995cdbdb1d995960821b6044820152606401610f03565b600b81015460ff1615611cce5760405162461bcd60e51b815260206004820152600e60248201527f416c7265616479206578697465640000000000000000000000000000000000006044820152606401610f03565b6000611cd9836111e2565b905060008111611d2b5760405162461bcd60e51b815260206004820152601760248201527f4e6f20657869742076616c756520617661696c61626c650000000000000000006044820152606401610f03565b6000612710611d3b605084614901565b611d459190614936565b90506000611d5382846148ea565b90506000611d648560010154612961565b600081815260096020526040902060018101549192509061271090611d8c90610bb890614901565b611d969190614936565b838260060154611da69190614a45565b1115611df45760405162461bcd60e51b815260206004820152601360248201527f4578697420706f6f6c20657868617573746564000000000000000000000000006044820152606401610f03565b600b8601805460ff19166001179055600681018054849190600090611e1a908490614a45565b90915550506006860154600282018054600090611e389084906148ea565b925050819055506000611e538760020154886003015461177e565b60068801546000858152600b60209081526040808320858452909152812080549394509192611e839084906148ea565b925050819055508460026000828254611e9c9190614a45565b90915550611eac90503385613b0e565b604080518581526020810187905233918a917fc84ba642853b7fceb52ece6998aa2618edc77f7a182996141f2a470af347cea3910160405180910390a35050505050505050565b600081815260086020526040902080546001600160a01b03163314611f4a5760405162461bcd60e51b815260206004820152600d60248201526c2737ba103132ba1037bbb732b960991b6044820152606401610f03565b600781015460ff16611f9e5760405162461bcd60e51b815260206004820152601160248201527f426574206e6f742066696e616c697a65640000000000000000000000000000006044820152606401610f03565b6007810154610100900460ff1615611ff85760405162461bcd60e51b815260206004820152600f60248201527f416c726561647920636c61696d656400000000000000000000000000000000006044820152606401610f03565b600b81015460ff161561204d5760405162461bcd60e51b815260206004820152601660248201527f416c726561647920657869746564207669612044504d000000000000000000006044820152606401610f03565b600061205c8260010154612961565b600081815260096020526040902060058101549192509060ff166120c25760405162461bcd60e51b815260206004820152601860248201527f4167677265676174696f6e206e6f7420636f6d706c65746500000000000000006044820152606401610f03565b60078301805461ff001916610100179055600983015460ff16156121a1576000816006015482600101546120f691906148ea565b905060008083600301541161210c57600061212b565b82600301548286600601546121219190614901565b61212b9190614936565b9050600354811161215357806003600082825461214891906148ea565b909155506121599050565b60006003555b6121633382613b0e565b604051818152339087907fad65ef4ba28f4ce1aaee7e8f86645eb4ce0ddc8b6c8fa2821564a94dbd2485fe9060200160405180910390a350506121da565b60405160008152339085907fad65ef4ba28f4ce1aaee7e8f86645eb4ce0ddc8b6c8fa2821564a94dbd2485fe9060200160405180910390a35b50505050565b60606127108211156122345760405162461bcd60e51b815260206004820152601160248201527f496e76616c6964204250532076616c75650000000000000000000000000000006044820152606401610f03565b6000612241606484614936565b90506000612250606485614a5d565b905061225b82613be2565b61226482613be2565b604051602001612275929190614a71565b60405160208183030381529060405292505050919050565b3360009081526006602052604090205460ff166122e35760405162461bcd60e51b81526020600482015260146024820152734e6f7420612074727573746564206f7261636c6560601b6044820152606401610f03565b6000828152600e602052604090205460ff16156123355760405162461bcd60e51b815260206004820152601060248201526f105b1c9958591e481c995cdbdb1d995960821b6044820152606401610f03565b6000811161237e5760405162461bcd60e51b815260206004820152601660248201527556616c7565206d75737420626520706f73697469766560501b6044820152606401610f03565b428211156123ce5760405162461bcd60e51b815260206004820152601560248201527f43616e6e6f74207265736f6c76652066757475726500000000000000000000006044820152606401610f03565b6000828152600c60209081526040808320338452909152902054156124355760405162461bcd60e51b815260206004820152601160248201527f416c7265616479207375626d69747465640000000000000000000000000000006044820152606401610f03565b6000828152600c602090815260408083203384528252808320849055848352600d9091528120805491612467836148b8565b9091555050604051818152339083907f2d666290500c2f337244a567b8f90f9f5446005631fd32da2ec2b70f174971729060200160405180910390a36000828152600d60205260409020546003116124c2576124c282613d23565b5050565b6000818152600960205260408120600581015482919060ff161561252c5760405162461bcd60e51b815260206004820152601460248201527f4167677265676174696f6e20636f6d706c6574650000000000000000000000006044820152606401610f03565b6004810154600061253e603283614a45565b835490915081111561254e575081545b825482106125d95760058301805460ff1916600190811790915560068401549084015461257b91906148ea565b6003600082825461258c9190614a45565b9091555050600383015460405190815286907fc8076cf096b541fb33d9acbd6bfd0ef234ae377710816fd316e2964d795b7afb9060200160405180910390a2506000958695509350505050565b600080835b8381101561271a5760008660000182815481106125fd576125fd61494a565b60009182526020808320909101548083526008909152604090912060078101549192509060ff161580156126365750600b81015460ff16155b156127055760018101546000908152600a60205260409020548061269c5760405162461bcd60e51b815260206004820152601260248201527f56616c7565206e6f74207265736f6c76656400000000000000000000000000006044820152606401610f03565b60078201805460ff1916600117905560088201819055600282015481108015906126ca575081600301548111155b60098301805460ff1916911515918217905560ff16156126f65760068201546126f39087614a45565b95505b84612700816148b8565b955050505b50508080612712906148b8565b9150506125de565b508185600301600082825461272f9190614a45565b909155505060048501839055845483106127b95760058501805460ff1916600190811790915560068601549086015461276891906148ea565b600360008282546127799190614a45565b9091555050600385015460405190815288907fc8076cf096b541fb33d9acbd6bfd0ef234ae377710816fd316e2964d795b7afb9060200160405180910390a25b604080518281526020810184905289917fd03f99f321df6e5a7f705a548f7e6b4880d02286dda4ffbbf00ff5353381fa89910160405180910390a297909650945050505050565b600f6020526000908152604090208054819061281b90614960565b80601f016020809104026020016040519081016040528092919081815260200182805461284790614960565b80156128945780601f1061286957610100808354040283529160200191612894565b820191906000526020600020905b81548152906001019060200180831161287757829003601f168201915b5050505050908060010180546128a990614960565b80601f01602080910402602001604051908101604052809291908181526020018280546128d590614960565b80156129225780601f106128f757610100808354040283529160200191612922565b820191906000526020600020905b81548152906001019060200180831161290557829003601f168201915b505050600284015460038501546004860154600590960154949560ff92831695919450909116915086565b6129556136b2565b61295f6000613efa565b565b60007f00000000000000000000000000000000000000000000000000000000000000008210156129d35760405162461bcd60e51b815260206004820152601060248201527f4d757374206265203e3d207374617274000000000000000000000000000000006044820152606401610f03565b62015180612a017f0000000000000000000000000000000000000000000000000000000000000000846148ea565b6117cd9190614936565b612a5c60405180610120016040528060008152602001600081526020016000815260200160008152602001600081526020016000815260200160008152602001600015158152602001606081525090565b428511612ae957604051806101200160405280600081526020016000815260200160008152602001600081526020016000815260200160008152602001600081526020016000151581526020016040518060400160405280601881526020017f4d757374206265206675747572652074696d657374616d7000000000000000008152508152509050611688565b828410612b6657604051806101200160405280600081526020016000815260200160008152602001600081526020016000815260200160008152602001600081526020016000151581526020016040518060400160405280600d81526020016c496e76616c69642072616e676560981b8152508152509050611688565b662386f26fc10000821080612b83575068056bc75e2d6310000082115b15612c0e57604051806101200160405280600081526020016000815260200160008152602001600081526020016000815260200160008152602001600081526020016000151581526020016040518060400160405280601481526020017f496e76616c6964207374616b6520616d6f756e740000000000000000000000008152508152509050611688565b6000612710612c1e603285614901565b612c289190614936565b90506000612c3682856148ea565b90506000612c448787613256565b90506000612c5189612cee565b90506000612710612c628385614901565b612c6c9190614936565b90506000612710612c7d8387614901565b612c879190614936565b90506000612c948c612961565b60408051610120810182529889526020808a019890985288810196909652606088019490945250608086019190915260a085015260c0840152600160e0840152805191820190526000815261010082015295945050505050565b600080612cfb42846148ea565b9050612d0b620151806004614901565b8110612d1b5750614e2092915050565b612d29620151806002614901565b8110612d395750613a9892915050565b612d47620151806001614901565b8110612d57575061271092915050565b6170808110612d6a575061138892915050565b611c208110612d7d5750610bb892915050565b506103e892915050565b50919050565b612d956136b2565b6011548210612ddd5760405162461bcd60e51b8152602060048201526014602482015273115d995b9d08191bd95cc81b9bdd08195e1a5cdd60621b6044820152606401610f03565b6000828152600f60205260409020600481015460ff1615612e335760405162461bcd60e51b815260206004820152601060248201526f105b1c9958591e481c995cdbdb1d995960821b6044820152606401610f03565b4281600301541115612e7c5760405162461bcd60e51b8152602060048201526012602482015271115d995b9d081b9bdd081bd8d8dd5c9c995960721b6044820152606401610f03565b60008211612ec55760405162461bcd60e51b815260206004820152601660248201527556616c7565206d75737420626520706f73697469766560501b6044820152606401610f03565b6003810180546000908152600a6020908152604080832086905583548352600e8252918290208054600160ff199182168117909255600486018054909116821790556005850186905592548251868152918201939093527f3d0851805149bdb1d3be4c433d056a1e9389f2dd9df643e72f47260a88b759bf910160405180910390a2827f5d20e81557cfc62592529f4b37445e9bf55b07a42e313c9510a2f6413bff59598260000184604051612f7c929190614995565b60405180910390a2505050565b6000612f936136b2565b6011805460009182612fa4836148b8565b9190505590506040518060c00160405280878152602001868152602001856006811115612fd357612fd361464f565b81526020808201869052600060408084018290526060909301819052848152600f82529190912082518051919261300f92849290910190614294565b5060208281015180516130289260018501920190614294565b50604082015160028201805460ff1916600183600681111561304c5761304c61464f565b021790555060608201516003820155608082015160048201805460ff191691151591909117905560a09091015160059091015560405181907fe627aa4d170cb611f767e3c8691b4c035ad11f57b91cda6b2707ae231ecbe788906130b7908990899089908990614abb565b60405180910390a295945050505050565b6000818152600f60205260408120600281015460038201546004830154600584015484546060968796909586958695869593948594600186019460ff90811694931691869061311690614960565b80601f016020809104026020016040519081016040528092919081815260200182805461314290614960565b801561318f5780601f106131645761010080835404028352916020019161318f565b820191906000526020600020905b81548152906001019060200180831161317257829003601f168201915b505050505095508480546131a290614960565b80601f01602080910402602001604051908101604052809291908181526020018280546131ce90614960565b801561321b5780601f106131f05761010080835404028352916020019161321b565b820191906000526020600020905b8154815290600101906020018083116131fe57829003601f168201915b505050505094509650965096509650965096505091939550919395565b600080600060045460025461324b613a75565b925092509250909192565b60008061326384846148ea565b9050600060026132738587614a45565b61327d9190614936565b9050600080821161328f5760006132a6565b8161329c61271085614901565b6132a69190614936565b9050610fa08111156132bf576103e893505050506117cd565b6107d081106132d557610bb893505050506117cd565b6103e881106132eb5761138893505050506117cd565b6101f481106133015761271093505050506117cd565b60c8811061331657613a9893505050506117cd565b614e2093505050506117cd565b61332b6136b2565b6000613335613a75565b905060006003548211613349576000613356565b60035461335690836148ea565b9050600081116133a85760405162461bcd60e51b815260206004820152601660248201527f4e6f20737572706c757320746f207769746864726177000000000000000000006044820152606401610f03565b60006002556124c2611bcf6000546001600160a01b031690565b600083816133d4620151806001614901565b6133de9042614a45565b905060006133f062015180601e614901565b6133fa9042614a45565b90508183101561343e5760405162461bcd60e51b815260206004820152600f60248201526e2a30b933b2ba103a37b79039b7b7b760891b6044820152606401610f03565b8083111561347f5760405162461bcd60e51b815260206004820152600e60248201526d2a30b933b2ba103a37b7903330b960911b6044820152606401610f03565b8486106134be5760405162461bcd60e51b815260206004820152600d60248201526c496e76616c69642072616e676560981b6044820152606401610f03565b6000861180156134ce5750600085115b61351a5760405162461bcd60e51b815260206004820152601760248201527f56616c756573206d75737420626520706f7369746976650000000000000000006044820152606401610f03565b42871161355e5760405162461bcd60e51b815260206004820152601260248201527110d85b9b9bdd0818995d081bdb881c185cdd60721b6044820152606401610f03565b600061271061356e603234614901565b6135789190614936565b9050600061358682346148ea565b9050816002600082825461359a9190614a45565b90915550506040518281527fc472cb3a7a659a876494d66b3063145f279701771d6150b9329c31611ed6405c9060200160405180910390a160006127106135e08b612cee565b6135ea8b8b613256565b6135f49190614901565b6135fe9190614936565b9050600061271061360f8385614901565b6136199190614936565b905061362a338c8c8c8787876138d0565b9b9a5050505050505050505050565b6136416136b2565b6001600160a01b0381166136a65760405162461bcd60e51b815260206004820152602660248201527f4f776e61626c653a206e6577206f776e657220697320746865207a65726f206160448201526564647265737360d01b6064820152608401610f03565b6136af81613efa565b50565b6000546001600160a01b0316331461295f5760405162461bcd60e51b815260206004820181905260248201527f4f776e61626c653a2063616c6c6572206973206e6f7420746865206f776e65726044820152606401610f03565b60008360068111156137205761372061464f565b148061373d5750600283600681111561373b5761373b61464f565b145b80613759575060038360068111156137575761375761464f565b145b80613775575060048360068111156137735761377361464f565b145b156137cc57612710811115611bd55760405162461bcd60e51b815260206004820152601660248201527f4d61782063616e6e6f74206578636565642031303025000000000000000000006044820152606401610f03565b60018360068111156137e0576137e061464f565b1415611bd55761021a811115611bd55760405162461bcd60e51b815260206004820152601560248201527f4d61782063616e6e6f74206578636565642035333800000000000000000000006044820152606401610f03565b6040516001600160a01b03808516602483015283166044820152606481018290526121da9085906323b872dd60e01b906084015b60408051601f198184030181529190526020810180517bffffffffffffffffffffffffffffffffffffffffffffffffffffffff167fffffffff0000000000000000000000000000000000000000000000000000000090931692909217909152613f57565b60048054600091829190826138e4836148b8565b91905055905060006138f589612961565b90506000613903898961177e565b6000838152600b60209081526040808320848452808352818420805489865260088552928520600a0183905585855292529293508792909190613947908490614a45565b9091555050506000828152600860209081526040808320805473ffffffffffffffffffffffffffffffffffffffff19166001600160a01b038f1617815560018082018e9055600282018d9055600382018c9055600482018b9055600582018a9055600690910188905584845260098352908320805480830182558185529284209092018590558383520180548892906139e1908490614a45565b909155505060008181526009602052604081206002018054869290613a07908490614a45565b9091555050604080518281526020810188905290810189905260608101889052608081018a90526001600160a01b038b169083907f8d90e2d49bbaba150dc98acd6247789ec6b22ffccd431ff70f42f56136ad8d329060a00160405180910390a35098975050505050505050565b6005546000906001600160a01b031615613b09576005546040516370a0823160e01b81523060048201526001600160a01b03909116906370a082319060240160206040518083038186803b158015613acc57600080fd5b505afa158015613ae0573d6000803e3d6000fd5b505050506040513d601f19601f82011682018060405250810190613b049190614aff565b905090565b504790565b80613b17575050565b6005546001600160a01b031615613b3f576005546124c2906001600160a01b0316838361402c565b6000826001600160a01b03168260405160006040518083038185875af1925050503d8060008114613b8c576040519150601f19603f3d011682016040523d82523d6000602084013e613b91565b606091505b5050905080611bd55760405162461bcd60e51b815260206004820152600f60248201527f5472616e73666572206661696c656400000000000000000000000000000000006044820152606401610f03565b606081613c065750506040805180820190915260018152600360fc1b602082015290565b8160005b8115613c305780613c1a816148b8565b9150613c299050600a83614936565b9150613c0a565b60008167ffffffffffffffff811115613c4b57613c4b614751565b6040519080825280601f01601f191660200182016040528015613c75576020820181803683370190505b509050815b8515613d1a57613c8b6001826148ea565b90506000613c9a600a88614936565b613ca590600a614901565b613caf90886148ea565b613cba906030614b18565b905060008160f81b905080848481518110613cd757613cd761494a565b60200101907effffffffffffffffffffffffffffffffffffffffffffffffffffffffffffff1916908160001a905350613d11600a89614936565b97505050613c7a565b50949350505050565b6000818152600e602052604090205460ff1615613d3d5750565b600060075467ffffffffffffffff811115613d5a57613d5a614751565b604051908082528060200260200182016040528015613d83578160200160208202803683370190505b509050600080613d9161405c565b905060005b8151811015613e36576000858152600c6020526040812083518290859085908110613dc357613dc361494a565b60200260200101516001600160a01b03166001600160a01b031681526020019081526020016000205490506000811115613e235780858581518110613e0a57613e0a61494a565b602090810291909101015283613e1f816148b8565b9450505b5080613e2e816148b8565b915050613d96565b506003821015613e465750505050565b6000613e5284846140ab565b90508015611634576000858152600a60209081526040808320849055600e825291829020805460ff19166001179055815183815290810185905286917f3d0851805149bdb1d3be4c433d056a1e9389f2dd9df643e72f47260a88b759bf910160405180910390a2847fb4b82c02c181c71a186ae8edc4fcb6f987173b24248af2fa819488df23b9494e82604051613eeb91815260200190565b60405180910390a25050505050565b600080546001600160a01b0383811673ffffffffffffffffffffffffffffffffffffffff19831681178455604051919092169283917f8be0079c531659141344cd1fd0a4f28419497f9722a3daafe3b4186f6b6457e09190a35050565b6000613fac826040518060400160405280602081526020017f5361666545524332303a206c6f772d6c6576656c2063616c6c206661696c6564815250856001600160a01b03166141749092919063ffffffff16565b9050805160001480613fcd575080806020019051810190613fcd9190614b3d565b611bd55760405162461bcd60e51b815260206004820152602a60248201527f5361666545524332303a204552433230206f7065726174696f6e20646964206e6044820152691bdd081cdd58d8d9595960b21b6064820152608401610f03565b6040516001600160a01b038316602482015260448101829052611bd590849063a9059cbb60e01b9060640161386c565b6060600060075467ffffffffffffffff81111561407b5761407b614751565b6040519080825280602002602001820160405280156140a4578160200160208202803683370190505b5092915050565b6000816140ba575060006117cd565b60005b8281101561416a576000805b8481101561412b578581815181106140e3576140e361494a565b60200260200101518684815181106140fd576140fd61494a565b602002602001015114156141195781614115816148b8565b9250505b80614123816148b8565b9150506140c9565b5060038110614157578482815181106141465761414661494a565b6020026020010151925050506117cd565b5080614162816148b8565b9150506140bd565b5060009392505050565b6060611688848460008585600080866001600160a01b0316858760405161419b9190614b5f565b60006040518083038185875af1925050503d80600081146141d8576040519150601f19603f3d011682016040523d82523d6000602084013e6141dd565b606091505b50915091506141ee878383876141f9565b979650505050505050565b6060831561426557825161425e576001600160a01b0385163b61425e5760405162461bcd60e51b815260206004820152601d60248201527f416464726573733a2063616c6c20746f206e6f6e2d636f6e74726163740000006044820152606401610f03565b5081611688565b611688838381511561427a5781518083602001fd5b8060405162461bcd60e51b8152600401610f03919061463c565b8280546142a090614960565b90600052602060002090601f0160209004810192826142c25760008555614308565b82601f106142db57805160ff1916838001178555614308565b82800160010185558215614308579182015b828111156143085782518255916020019190600101906142ed565b50614314929150614318565b5090565b5b808211156143145760008155600101614319565b60006020828403121561433f57600080fd5b5035919050565b81516001600160a01b031681526101a081016020830151602083015260408301516040830152606083015160608301526080830151608083015260a083015160a083015260c083015160c083015260e08301516143a760e084018215159052565b50610100838101511515908301526101208084015190830152610140808401511515908301526101608084015190830152610180928301511515929091019190915290565b80356001600160a01b038116811461440357600080fd5b919050565b60006020828403121561441a57600080fd5b614423826143ec565b9392505050565b60008060006060848603121561443f57600080fd5b505081359360208301359350604090920135919050565b60006101a0820190506001600160a01b038f1682528d60208301528c60408301528b60608301528a60808301528960a08301528860c083015287151560e083015286151561010083015285610120830152841515610140830152836101608301526144c661018083018415159052565b9e9d5050505050505050505050505050565b600080604083850312156144eb57600080fd5b50508035926020909101359150565b60008083601f84011261450c57600080fd5b50813567ffffffffffffffff81111561452457600080fd5b6020830191508360208260051b850101111561453f57600080fd5b9250929050565b6000806000806040858703121561455c57600080fd5b843567ffffffffffffffff8082111561457457600080fd5b614580888389016144fa565b9096509450602087013591508082111561459957600080fd5b506145a6878288016144fa565b95989497509550505050565b600080600080608085870312156145c857600080fd5b5050823594602084013594506040840135936060013592509050565b60005b838110156145ff5781810151838201526020016145e7565b838111156121da5750506000910152565b600081518084526146288160208601602086016145e4565b601f01601f19169290920160200192915050565b6020815260006144236020830184614610565b634e487b7160e01b600052602160045260246000fd5b6007811061468357634e487b7160e01b600052602160045260246000fd5b9052565b60c08152600061469a60c0830189614610565b82810360208401526146ac8189614610565b9150506146bc6040830187614665565b6060820194909452911515608083015260a0909101529392505050565b6020815281516020820152602082015160408201526040820151606082015260608201516080820152608082015160a082015260a082015160c082015260c082015160e0820152600060e08301516101006147378185018315159052565b840151610120848101529050611688610140840182614610565b634e487b7160e01b600052604160045260246000fd5b600082601f83011261477857600080fd5b813567ffffffffffffffff8082111561479357614793614751565b604051601f8301601f19908116603f011681019082821181831017156147bb576147bb614751565b816040528381528660208588010111156147d457600080fd5b836020870160208301376000602085830101528094505050505092915050565b6000806000806080858703121561480a57600080fd5b843567ffffffffffffffff8082111561482257600080fd5b61482e88838901614767565b9550602087013591508082111561484457600080fd5b5061485187828801614767565b93505060408501356007811061486657600080fd5b9396929550929360600135925050565b6000806040838503121561488957600080fd5b82359150614899602084016143ec565b90509250929050565b634e487b7160e01b600052601160045260246000fd5b60006000198214156148cc576148cc6148a2565b5060010190565b6000816148e2576148e26148a2565b506000190190565b6000828210156148fc576148fc6148a2565b500390565b600081600019048311821515161561491b5761491b6148a2565b500290565b634e487b7160e01b600052601260045260246000fd5b60008261494557614945614920565b500490565b634e487b7160e01b600052603260045260246000fd5b600181811c9082168061497457607f821691505b60208210811415612d8757634e487b7160e01b600052602260045260246000fd5b60408152600080845481600182811c9150808316806149b557607f831692505b60208084108214156149d557634e487b7160e01b86526022600452602486fd5b60408801849052606088018280156149f45760018114614a0557614a30565b60ff19871682528282019750614a30565b60008c81526020902060005b87811015614a2a57815484820152908601908401614a11565b83019850505b50509690960196909652509095945050505050565b60008219821115614a5857614a586148a2565b500190565b600082614a6c57614a6c614920565b500690565b60008351614a838184602088016145e4565b601760f91b9083019081528351614aa18160018401602088016145e4565b602560f81b60019290910191820152600201949350505050565b608081526000614ace6080830187614610565b8281036020840152614ae08187614610565b915050614af06040830185614665565b82606083015295945050505050565b600060208284031215614b1157600080fd5b5051919050565b600060ff821660ff84168060ff03821115614b3557614b356148a2565b019392505050565b600060208284031215614b4f57600080fd5b8151801515811461442357600080fd5b60008251614b718184602087016145e4565b919091019291505056fea2646970667358221220f9f61ceed533633233c4a0cff7091bc2cf1e3d12ecd349ae598ff640433b104a64736f6c63430008090033",
  "linkReferences": {},
  "deployedLinkReferences": {}
}