{
  "_format": "hh-sol-artifact-1",
  "contractName": "SportsPredictionMarket",
  "sourceName": "contracts/SportsPredictionMarket.sol",
  "abi": [
    {
      "inputs": [
        {
          "internalType": "address",
          "name": "_stakingToken",
          "type": "address"
        }
      ],
      "stateMutability": "nonpayable",
      "type": "constructor"
    },
    {
      "anonymous": false,
      "inputs": [
        {
          "indexed": true,
          "internalType": "uint256",
          "name": "bucket",
          "type": "uint256"
        },
        {
          "indexed": false,
          "internalType": "uint256",
          "name": "totalWinningWeight",
          "type": "uint256"
        }
      ],
      "name": "AggregationCompleted",
      "type": "event"
    },
    {
      "anonymous": false,
      "inputs": [
        {
          "indexed": true,
          "internalType": "uint256",
          "name": "bucket",
          "type": "uint256"
        },
        {
          "indexed": false,
          "internalType": "uint256",
          "name": "processedCount",
          "type": "uint256"
        },
        {
          "indexed": false,
          "internalType": "uint256",
          "name": "winningWeight",
          "type": "uint256"
        }
      ],
      "name": "BatchProcessed",
      "type": "event"
    },
    {
      "anonymous": false,
      "inputs": [
        {
          "indexed": true,
          "internalType": "uint256",
          "name": "betId",
          "type": "uint256"
        },
        {
          "indexed": true,
          "internalType": "address",
          "name": "bettor",
          "type": "address"
        },
        {
          "indexed": false,
          "internalType": "uint256",
          "name": "payout",
          "type": "uint256"
        }
      ],
      "name": "BetClaimed",
      "type": "event"
    },
    {
      "anonymous": false,
      "inputs": [
        {
          "indexed": true,
          "internalType": "uint256",
          "name": "betId",
          "type": "uint256"
        },
        {
          "indexed": false,
          "internalType": "uint256",
          "name": "actualValue",
          "type": "uint256"
        },
        {
          "indexed": false,
          "internalType": "bool",
          "name": "won",
          "type": "bool"
        },
        {
          "indexed": false,
          "internalType": "uint256",
          "name": "payout",
          "type": "uint256"
        }
      ],
      "name": "BetFinalized",
      "type": "event"
    },
    {
      "anonymous": false,
      "inputs": [
        {
          "indexed": true,
          "internalType": "uint256",
          "name": "betId",
          "type": "uint256"
        },
        {
          "indexed": true,
          "internalType": "address",
          "name": "bettor",
          "type": "address"
        },
        {
          "indexed": false,
          "internalType": "uint256",
          "name": "bucket",
          "type": "uint256"
        },
        {
          "indexed": false,
          "internalType": "uint256",
          "name": "stake",
          "type": "uint256"
        },
        {
          "indexed": false,
          "internalType": "uint256",
          "name": "rangeMin",
          "type": "uint256"
        },
        {
          "indexed": false,
          "internalType": "uint256",
          "name": "rangeMax",
          "type": "uint256"
        },
        {
          "indexed": false,
          "internalType": "uint256",
          "name": "targetTimestamp",
          "type": "uint256"
        }
      ],
      "name": "BetPlaced",
      "type": "event"
    },
    {
      "anonymous": false,
      "inputs": [
        {
          "indexed": true,
          "internalType": "uint256",
          "name": "bucket",
          "type": "uint256"
        },
        {
          "indexed": false,
          "internalType": "uint256",
          "name": "value",
          "type": "uint256"
        }
      ],
      "name": "BucketValueSet",
      "type": "event"
    },
    {
      "anonymous": false,
      "inputs": [
        {
          "indexed": false,
          "internalType": "uint256",
          "name": "amount",
          "type": "uint256"
        }
      ],
      "name": "FeeCollected",
      "type": "event"
    },
    {
      "anonymous": false,
      "inputs": [
        {
          "indexed": true,
          "internalType": "address",
          "name": "oracle",
          "type": "address"
        }
      ],
      "name": "OracleAdded",
      "type": "event"
    },
    {
      "anonymous": false,
      "inputs": [
        {
          "indexed": true,
          "internalType": "address",
          "name": "oracle",
          "type": "address"
        }
      ],
      "name": "OracleRemoved",
      "type": "event"
    },
    {
      "anonymous": false,
      "inputs": [
        {
          "indexed": true,
          "internalType": "address",
          "name": "previousOwner",
          "type": "address"
        },
        {
          "indexed": true,
          "internalType": "address",
          "name": "newOwner",
          "type": "address"
        }
      ],
      "name": "OwnershipTransferred",
      "type": "event"
    },
    {
      "anonymous": false,
      "inputs": [
        {
          "indexed": true,
          "internalType": "uint256",
          "name": "betId",
          "type": "uint256"
        },
        {
          "indexed": true,
          "internalType": "address",
          "name": "bettor",
          "type": "address"
        },
        {
          "indexed": false,
          "internalType": "uint256",
          "name": "exitPayout",
          "type": "uint256"
        },
        {
          "indexed": false,
          "internalType": "uint256",
          "name": "exitFee",
          "type": "uint256"
        }
      ],
      "name": "SharesSold",
      "type": "event"
    },
    {
      "anonymous": false,
      "inputs": [
        {
          "indexed": true,
          "internalType": "uint256",
          "name": "eventId",
          "type": "uint256"
        },
        {
          "indexed": false,
          "internalType": "string",
          "name": "eventName",
          "type": "string"
        },
        {
          "indexed": false,
          "internalType": "enum SportsPredictionMarket.SportType",
          "name": "sport",
          "type": "uint8"
        },
        {
          "indexed": false,
          "internalType": "enum SportsPredictionMarket.PredictionType",
          "name": "predType",
          "type": "uint8"
        },
        {
          "indexed": false,
          "internalType": "uint256",
          "name": "eventTimestamp",
          "type": "uint256"
        }
      ],
      "name": "SportsEventCreated",
      "type": "event"
    },
    {
      "anonymous": false,
      "inputs": [
        {
          "indexed": true,
          "internalType": "uint256",
          "name": "eventId",
          "type": "uint256"
        },
        {
          "indexed": false,
          "internalType": "string",
          "name": "eventName",
          "type": "string"
        },
        {
          "indexed": false,
          "internalType": "uint256",
          "name": "actualValue",
          "type": "uint256"
        }
      ],
      "name": "SportsEventResolved",
      "type": "event"
    },
    {
      "anonymous": false,
      "inputs": [
        {
          "indexed": true,
          "internalType": "uint256",
          "name": "timestamp",
          "type": "uint256"
        },
        {
          "indexed": false,
          "internalType": "uint256",
          "name": "value",
          "type": "uint256"
        },
        {
          "indexed": false,
          "internalType": "uint256",
          "name": "confirmations",
          "type": "uint256"
        }
      ],
      "name": "ValueResolved",
      "type": "event"
    },
    {
      "anonymous": false,
      "inputs": [
        {
          "indexed": true,
          "internalType": "uint256",
          "name": "timestamp",
          "type": "uint256"
        },
        {
          "indexed": true,
          "internalType": "address",
          "name": "oracle",
          "type": "address"
        },
        {
          "indexed": false,
          "internalType": "uint256",
          "name": "value",
          "type": "uint256"
        }
      ],
      "name": "ValueSubmitted",
      "type": "event"
    },
    {
      "inputs": [],
      "name": "BATCH_SIZE",
      "outputs": [
        {
          "internalType": "uint256",
          "name": "",
          "type": "uint256"
        }
      ],
      "stateMutability": "view",
      "type": "function"
    },
    {
      "inputs": [],
      "name": "BPS_DENOM",
      "outputs": [
        {
          "internalType": "uint256",
          "name": "",
          "type": "uint256"
        }
      ],
      "stateMutability": "view",
      "type": "function"
    },
    {
      "inputs": [],
      "name": "EXIT_FEE_BPS",
      "outputs": [
        {
          "internalType": "uint256",
          "name": "",
          "type": "uint256"
        }
      ],
      "stateMutability": "view",
      "type": "function"
    },
    {
      "inputs": [],
      "name": "FEE_BPS",
      "outputs": [
        {
          "internalType": "uint256",
          "name": "",
          "type": "uint256"
        }
      ],
      "stateMutability": "view",
      "type": "function"
    },
    {
      "inputs": [],
      "name": "MAX_DAYS_AHEAD",
      "outputs": [
        {
          "internalType": "uint256",
          "name": "",
          "type": "uint256"
        }
      ],
      "stateMutability": "view",
      "type": "function"
    },
    {
      "inputs": [],
      "name": "MAX_EXIT_RATIO_BPS",
      "outputs": [
        {
          "internalType": "uint256",
          "name": "",
          "type": "uint256"
        }
      ],
      "stateMutability": "view",
      "type": "function"
    },
    {
      "inputs": [],
      "name": "MAX_STAKE",
      "outputs": [
        {
          "internalType": "uint256",
          "name": "",
          "type": "uint256"
        }
      ],
      "stateMutability": "view",
      "type": "function"
    },
    {
      "inputs": [],
      "name": "MIN_DAYS_AHEAD",
      "outputs": [
        {
          "internalType": "uint256",
          "name": "",
          "type": "uint256"
        }
      ],
      "stateMutability": "view",
      "type": "function"
    },
    {
      "inputs": [],
      "name": "MIN_K",
      "outputs": [
        {
          "internalType": "uint256",
          "name": "",
          "type": "uint256"
        }
      ],
      "stateMutability": "view",
      "type": "function"
    },
    {
      "inputs": [],
      "name": "MIN_STAKE",
      "outputs": [
        {
          "internalType": "uint256",
          "name": "",
          "type": "uint256"
        }
      ],
      "stateMutability": "view",
      "type": "function"
    },
    {
      "inputs": [],
      "name": "REQUIRED_CONFIRMATIONS",
      "outputs": [
        {
          "internalType": "uint256",
          "name": "",
          "type": "uint256"
        }
      ],
      "stateMutability": "view",
      "type": "function"
    },
    {
      "inputs": [],
      "name": "SECONDS_PER_DAY",
      "outputs": [
        {
          "internalType": "uint256",
          "name": "",
          "type": "uint256"
        }
      ],
      "stateMutability": "view",
      "type": "function"
    },
    {
      "inputs": [
        {
          "internalType": "address",
          "name": "oracle",
          "type": "address"
        }
      ],
      "name": "addTrustedOracle",
      "outputs": [],
      "stateMutability": "nonpayable",
      "type": "function"
    },
    {
      "inputs": [
        {
          "internalType": "uint256",
          "name": "rangeMin",
          "type": "uint256"
        },
        {
          "internalType": "uint256",
          "name": "rangeMax",
          "type": "uint256"
        }
      ],
      "name": "bandIndex",
      "outputs": [
        {
          "internalType": "uint256",
          "name": "",
          "type": "uint256"
        }
      ],
      "stateMutability": "pure",
      "type": "function"
    },
    {
      "inputs": [
        {
          "internalType": "uint256",
          "name": "",
          "type": "uint256"
        },
        {
          "internalType": "uint256",
          "name": "",
          "type": "uint256"
        }
      ],
      "name": "bandWeights",
      "outputs": [
        {
          "internalType": "uint256",
          "name": "",
          "type": "uint256"
        }
      ],
      "stateMutability": "view",
      "type": "function"
    },
    {
      "inputs": [
        {
          "internalType": "uint256[]",
          "name": "eventIds",
          "type": "uint256[]"
        },
        {
          "internalType": "uint256[]",
          "name": "actualValues",
          "type": "uint256[]"
        }
      ],
      "name": "batchResolveSportsEvents",
      "outputs": [],
      "stateMutability": "nonpayable",
      "type": "function"
    },
    {
      "inputs": [
        {
          "internalType": "uint256",
          "name": "",
          "type": "uint256"
        }
      ],
      "name": "betToEventId",
      "outputs": [
        {
          "internalType": "uint256",
          "name": "",
          "type": "uint256"
        }
      ],
      "stateMutability": "view",
      "type": "function"
    },
    {
      "inputs": [
        {
          "internalType": "uint256",
          "name": "",
          "type": "uint256"
        }
      ],
      "name": "bets",
      "outputs": [
        {
          "internalType": "address",
          "name": "bettor",
          "type": "address"
        },
        {
          "internalType": "uint256",
          "name": "targetTimestamp",
          "type": "uint256"
        },
        {
          "internalType": "uint256",
          "name": "rangeMin",
          "type": "uint256"
        },
        {
          "internalType": "uint256",
          "name": "rangeMax",
          "type": "uint256"
        },
        {
          "internalType": "uint256",
          "name": "stake",
          "type": "uint256"
        },
        {
          "internalType": "uint256",
          "name": "qualityBps",
          "type": "uint256"
        },
        {
          "internalType": "uint256",
          "name": "weight",
          "type": "uint256"
        },
        {
          "internalType": "bool",
          "name": "finalized",
          "type": "bool"
        },
        {
          "internalType": "bool",
          "name": "claimed",
          "type": "bool"
        },
        {
          "internalType": "uint256",
          "name": "actualValue",
          "type": "uint256"
        },
        {
          "internalType": "bool",
          "name": "won",
          "type": "bool"
        },
        {
          "internalType": "uint256",
          "name": "entryBandWeight",
          "type": "uint256"
        },
        {
          "internalType": "bool",
          "name": "exited",
          "type": "bool"
        }
      ],
      "stateMutability": "view",
      "type": "function"
    },
    {
      "inputs": [
        {
          "internalType": "uint256",
          "name": "targetTs",
          "type": "uint256"
        }
      ],
      "name": "bucketIndex",
      "outputs": [
        {
          "internalType": "uint256",
          "name": "",
          "type": "uint256"
        }
      ],
      "stateMutability": "view",
      "type": "function"
    },
    {
      "inputs": [
        {
          "internalType": "uint256",
          "name": "",
          "type": "uint256"
        }
      ],
      "name": "buckets",
      "outputs": [
        {
          "internalType": "uint256",
          "name": "totalStaked",
          "type": "uint256"
        },
        {
          "internalType": "uint256",
          "name": "totalWeight",
          "type": "uint256"
        },
        {
          "internalType": "uint256",
          "name": "totalWinningWeight",
          "type": "uint256"
        },
        {
          "internalType": "uint256",
          "name": "nextProcessIndex",
          "type": "uint256"
        },
        {
          "internalType": "bool",
          "name": "aggregationComplete",
          "type": "bool"
        },
        {
          "internalType": "uint256",
          "name": "totalExited",
          "type": "uint256"
        }
      ],
      "stateMutability": "view",
      "type": "function"
    },
    {
      "inputs": [
        {
          "internalType": "uint256",
          "name": "betId",
          "type": "uint256"
        }
      ],
      "name": "claimBet",
      "outputs": [],
      "stateMutability": "nonpayable",
      "type": "function"
    },
    {
      "inputs": [
        {
          "internalType": "string",
          "name": "eventName",
          "type": "string"
        },
        {
          "internalType": "string",
          "name": "team1",
          "type": "string"
        },
        {
          "internalType": "string",
          "name": "team2",
          "type": "string"
        },
        {
          "internalType": "string",
          "name": "player",
          "type": "string"
        },
        {
          "internalType": "enum SportsPredictionMarket.SportType",
          "name": "sport",
          "type": "uint8"
        },
        {
          "internalType": "enum SportsPredictionMarket.PredictionType",
          "name": "predType",
          "type": "uint8"
        },
        {
          "internalType": "uint256",
          "name": "eventTimestamp",
          "type": "uint256"
        }
      ],
      "name": "createSportsEvent",
      "outputs": [
        {
          "internalType": "uint256",
          "name": "",
          "type": "uint256"
        }
      ],
      "stateMutability": "nonpayable",
      "type": "function"
    },
    {
      "inputs": [],
      "name": "emergencyWithdraw",
      "outputs": [],
      "stateMutability": "nonpayable",
      "type": "function"
    },
    {
      "inputs": [
        {
          "internalType": "uint256",
          "name": "betId",
          "type": "uint256"
        }
      ],
      "name": "getBet",
      "outputs": [
        {
          "components": [
            {
              "internalType": "address",
              "name": "bettor",
              "type": "address"
            },
            {
              "internalType": "uint256",
              "name": "targetTimestamp",
              "type": "uint256"
            },
            {
              "internalType": "uint256",
              "name": "rangeMin",
              "type": "uint256"
            },
            {
              "internalType": "uint256",
              "name": "rangeMax",
              "type": "uint256"
            },
            {
              "internalType": "uint256",
              "name": "stake",
              "type": "uint256"
            },
            {
              "internalType": "uint256",
              "name": "qualityBps",
              "type": "uint256"
            },
            {
              "internalType": "uint256",
              "name": "weight",
              "type": "uint256"
            },
            {
              "internalType": "bool",
              "name": "finalized",
              "type": "bool"
            },
            {
              "internalType": "bool",
              "name": "claimed",
              "type": "bool"
            },
            {
              "internalType": "uint256",
              "name": "actualValue",
              "type": "uint256"
            },
            {
              "internalType": "bool",
              "name": "won",
              "type": "bool"
            },
            {
              "internalType": "uint256",
              "name": "entryBandWeight",
              "type": "uint256"
            },
            {
              "internalType": "bool",
              "name": "exited",
              "type": "bool"
            }
          ],
          "internalType": "struct BasePredictionMarket.Bet",
          "name": "",
          "type": "tuple"
        }
      ],
      "stateMutability": "view",
      "type": "function"
    },
    {
      "inputs": [
        {
          "internalType": "uint256",
          "name": "betId",
          "type": "uint256"
        }
      ],
      "name": "getBetEventId",
      "outputs": [
        {
          "internalType": "uint256",
          "name": "",
          "type": "uint256"
        }
      ],
      "stateMutability": "view",
      "type": "function"
    },
    {
      "inputs": [
        {
          "internalType": "uint256",
          "name": "bucket",
          "type": "uint256"
        }
      ],
      "name": "getBucketInfo",
      "outputs": [
        {
          "internalType": "uint256",
          "name": "totalBets",
          "type": "uint256"
        },
        {
          "internalType": "uint256",
          "name": "totalWinningWeight",
          "type": "uint256"
        },
        {
          "internalType": "uint256",
          "name": "nextProcessIndex",
          "type": "uint256"
        },
        {
          "internalType": "bool",
          "name": "aggregationComplete",
          "type": "bool"
        }
      ],
      "stateMutability": "view",
      "type": "function"
    },
    {
      "inputs": [
        {
          "internalType": "uint256",
          "name": "betId",
          "type": "uint256"
        }
      ],
      "name": "getDPMInfo",
      "outputs": [
        {
          "internalType": "uint256",
          "name": "rawExitValue",
          "type": "uint256"
        },
        {
          "internalType": "uint256",
          "name": "exitFee",
          "type": "uint256"
        },
        {
          "internalType": "uint256",
          "name": "netExitPayout",
          "type": "uint256"
        },
        {
          "internalType": "bool",
          "name": "canExit",
          "type": "bool"
        },
        {
          "internalType": "uint256",
          "name": "exitPoolRemaining",
          "type": "uint256"
        }
      ],
      "stateMutability": "view",
      "type": "function"
    },
    {
      "inputs": [
        {
          "internalType": "uint256",
          "name": "betId",
          "type": "uint256"
        }
      ],
      "name": "getExitValue",
      "outputs": [
        {
          "internalType": "uint256",
          "name": "rawExit",
          "type": "uint256"
        }
      ],
      "stateMutability": "view",
      "type": "function"
    },
    {
      "inputs": [
        {
          "internalType": "uint256",
          "name": "bucket",
          "type": "uint256"
        }
      ],
      "name": "getK",
      "outputs": [
        {
          "internalType": "uint256",
          "name": "",
          "type": "uint256"
        }
      ],
      "stateMutability": "view",
      "type": "function"
    },
    {
      "inputs": [
        {
          "internalType": "enum SportsPredictionMarket.PredictionType",
          "name": "predType",
          "type": "uint8"
        }
      ],
      "name": "getPredictionTypeName",
      "outputs": [
        {
          "internalType": "string",
          "name": "",
          "type": "string"
        }
      ],
      "stateMutability": "pure",
      "type": "function"
    },
    {
      "inputs": [
        {
          "internalType": "uint256",
          "name": "timestamp",
          "type": "uint256"
        }
      ],
      "name": "getResolvedValue",
      "outputs": [
        {
          "internalType": "uint256",
          "name": "",
          "type": "uint256"
        }
      ],
      "stateMutability": "view",
      "type": "function"
    },
    {
      "inputs": [
        {
          "internalType": "uint256",
          "name": "rangeMin",
          "type": "uint256"
        },
        {
          "internalType": "uint256",
          "name": "rangeMax",
          "type": "uint256"
        }
      ],
      "name": "getSharpnessMultiplier",
      "outputs": [
        {
          "internalType": "uint256",
          "name": "",
          "type": "uint256"
        }
      ],
      "stateMutability": "pure",
      "type": "function"
    },
    {
      "inputs": [
        {
          "internalType": "enum SportsPredictionMarket.SportType",
          "name": "sport",
          "type": "uint8"
        }
      ],
      "name": "getSportTypeName",
      "outputs": [
        {
          "internalType": "string",
          "name": "",
          "type": "string"
        }
      ],
      "stateMutability": "pure",
      "type": "function"
    },
    {
      "inputs": [
        {
          "internalType": "uint256",
          "name": "eventId",
          "type": "uint256"
        }
      ],
      "name": "getSportsEvent",
      "outputs": [
        {
          "internalType": "string",
          "name": "eventName",
          "type": "string"
        },
        {
          "internalType": "string",
          "name": "team1",
          "type": "string"
        },
        {
          "internalType": "string",
          "name": "team2",
          "type": "string"
        },
        {
          "internalType": "string",
          "name": "player",
          "type": "string"
        },
        {
          "internalType": "enum SportsPredictionMarket.SportType",
          "name": "sport",
          "type": "uint8"
        },
        {
          "internalType": "enum SportsPredictionMarket.PredictionType",
          "name": "predType",
          "type": "uint8"
        },
        {
          "internalType": "uint256",
          "name": "eventTimestamp",
          "type": "uint256"
        },
        {
          "internalType": "bool",
          "name": "resolved",
          "type": "bool"
        },
        {
          "internalType": "uint256",
          "name": "actualValue",
          "type": "uint256"
        }
      ],
      "stateMutability": "view",
      "type": "function"
    },
    {
      "inputs": [],
      "name": "getStats",
      "outputs": [
        {
          "internalType": "uint256",
          "name": "totalBets",
          "type": "uint256"
        },
        {
          "internalType": "uint256",
          "name": "totalFees",
          "type": "uint256"
        },
        {
          "internalType": "uint256",
          "name": "contractBalance",
          "type": "uint256"
        }
      ],
      "stateMutability": "view",
      "type": "function"
    },
    {
      "inputs": [
        {
          "internalType": "uint256",
          "name": "targetTimestamp",
          "type": "uint256"
        }
      ],
      "name": "getTimeMultiplier",
      "outputs": [
        {
          "internalType": "uint256",
          "name": "",
          "type": "uint256"
        }
      ],
      "stateMutability": "view",
      "type": "function"
    },
    {
      "inputs": [],
      "name": "getTotalEvents",
      "outputs": [
        {
          "internalType": "uint256",
          "name": "",
          "type": "uint256"
        }
      ],
      "stateMutability": "view",
      "type": "function"
    },
    {
      "inputs": [
        {
          "internalType": "uint256",
          "name": "",
          "type": "uint256"
        }
      ],
      "name": "isResolved",
      "outputs": [
        {
          "internalType": "bool",
          "name": "",
          "type": "bool"
        }
      ],
      "stateMutability": "view",
      "type": "function"
    },
    {
      "inputs": [],
      "name": "isTokenMode",
      "outputs": [
        {
          "internalType": "bool",
          "name": "",
          "type": "bool"
        }
      ],
      "stateMutability": "view",
      "type": "function"
    },
    {
      "inputs": [],
      "name": "nextBetId",
      "outputs": [
        {
          "internalType": "uint256",
          "name": "",
          "type": "uint256"
        }
      ],
      "stateMutability": "view",
      "type": "function"
    },
    {
      "inputs": [],
      "name": "nextEventId",
      "outputs": [
        {
          "internalType": "uint256",
          "name": "",
          "type": "uint256"
        }
      ],
      "stateMutability": "view",
      "type": "function"
    },
    {
      "inputs": [],
      "name": "oracleCount",
      "outputs": [
        {
          "internalType": "uint256",
          "name": "",
          "type": "uint256"
        }
      ],
      "stateMutability": "view",
      "type": "function"
    },
    {
      "inputs": [
        {
          "internalType": "uint256",
          "name": "",
          "type": "uint256"
        },
        {
          "internalType": "address",
          "name": "",
          "type": "address"
        }
      ],
      "name": "oracleSubmissions",
      "outputs": [
        {
          "internalType": "uint256",
          "name": "",
          "type": "uint256"
        }
      ],
      "stateMutability": "view",
      "type": "function"
    },
    {
      "inputs": [],
      "name": "owner",
      "outputs": [
        {
          "internalType": "address",
          "name": "",
          "type": "address"
        }
      ],
      "stateMutability": "view",
      "type": "function"
    },
    {
      "inputs": [
        {
          "internalType": "uint256",
          "name": "targetTimestamp",
          "type": "uint256"
        },
        {
          "internalType": "uint256",
          "name": "rangeMin",
          "type": "uint256"
        },
        {
          "internalType": "uint256",
          "name": "rangeMax",
          "type": "uint256"
        }
      ],
      "name": "placeBet",
      "outputs": [
        {
          "internalType": "uint256",
          "name": "",
          "type": "uint256"
        }
      ],
      "stateMutability": "payable",
      "type": "function"
    },
    {
      "inputs": [
        {
          "internalType": "uint256",
          "name": "targetTimestamp",
          "type": "uint256"
        },
        {
          "internalType": "uint256",
          "name": "rangeMin",
          "type": "uint256"
        },
        {
          "internalType": "uint256",
          "name": "rangeMax",
          "type": "uint256"
        },
        {
          "internalType": "uint256",
          "name": "amount",
          "type": "uint256"
        }
      ],
      "name": "placeBetWithToken",
      "outputs": [
        {
          "internalType": "uint256",
          "name": "",
          "type": "uint256"
        }
      ],
      "stateMutability": "nonpayable",
      "type": "function"
    },
    {
      "inputs": [
        {
          "internalType": "uint256",
          "name": "eventId",
          "type": "uint256"
        },
        {
          "internalType": "uint256",
          "name": "rangeMin",
          "type": "uint256"
        },
        {
          "internalType": "uint256",
          "name": "rangeMax",
          "type": "uint256"
        }
      ],
      "name": "placeSportsBet",
      "outputs": [
        {
          "internalType": "uint256",
          "name": "",
          "type": "uint256"
        }
      ],
      "stateMutability": "payable",
      "type": "function"
    },
    {
      "inputs": [
        {
          "internalType": "uint256",
          "name": "bucket",
          "type": "uint256"
        }
      ],
      "name": "processBatch",
      "outputs": [
        {
          "internalType": "uint256",
          "name": "processedCount",
          "type": "uint256"
        },
        {
          "internalType": "uint256",
          "name": "winningWeight",
          "type": "uint256"
        }
      ],
      "stateMutability": "nonpayable",
      "type": "function"
    },
    {
      "inputs": [
        {
          "internalType": "address",
          "name": "oracle",
          "type": "address"
        }
      ],
      "name": "removeTrustedOracle",
      "outputs": [],
      "stateMutability": "nonpayable",
      "type": "function"
    },
    {
      "inputs": [],
      "name": "renounceOwnership",
      "outputs": [],
      "stateMutability": "nonpayable",
      "type": "function"
    },
    {
      "inputs": [],
      "name": "requiredConfirmations",
      "outputs": [
        {
          "internalType": "uint256",
          "name": "",
          "type": "uint256"
        }
      ],
      "stateMutability": "view",
      "type": "function"
    },
    {
      "inputs": [
        {
          "internalType": "uint256",
          "name": "",
          "type": "uint256"
        }
      ],
      "name": "resolvedValues",
      "outputs": [
        {
          "internalType": "uint256",
          "name": "",
          "type": "uint256"
        }
      ],
      "stateMutability": "view",
      "type": "function"
    },
    {
      "inputs": [
        {
          "internalType": "uint256",
          "name": "betId",
          "type": "uint256"
        }
      ],
      "name": "sellShares",
      "outputs": [],
      "stateMutability": "nonpayable",
      "type": "function"
    },
    {
      "inputs": [
        {
          "internalType": "uint256",
          "name": "targetTimestamp",
          "type": "uint256"
        },
        {
          "internalType": "uint256",
          "name": "rangeMin",
          "type": "uint256"
        },
        {
          "internalType": "uint256",
          "name": "rangeMax",
          "type": "uint256"
        },
        {
          "internalType": "uint256",
          "name": "stakeAmount",
          "type": "uint256"
        }
      ],
      "name": "simulatePlaceBet",
      "outputs": [
        {
          "components": [
            {
              "internalType": "uint256",
              "name": "fee",
              "type": "uint256"
            },
            {
              "internalType": "uint256",
              "name": "stakeNet",
              "type": "uint256"
            },
            {
              "internalType": "uint256",
              "name": "sharpnessBps",
              "type": "uint256"
            },
            {
              "internalType": "uint256",
              "name": "timeBps",
              "type": "uint256"
            },
            {
              "internalType": "uint256",
              "name": "qualityBps",
              "type": "uint256"
            },
            {
              "internalType": "uint256",
              "name": "weight",
              "type": "uint256"
            },
            {
              "internalType": "uint256",
              "name": "bucket",
              "type": "uint256"
            },
            {
              "internalType": "bool",
              "name": "isValid",
              "type": "bool"
            },
            {
              "internalType": "string",
              "name": "errorMessage",
              "type": "string"
            }
          ],
          "internalType": "struct BasePredictionMarket.BetSimulation",
          "name": "",
          "type": "tuple"
        }
      ],
      "stateMutability": "view",
      "type": "function"
    },
    {
      "inputs": [
        {
          "internalType": "uint256",
          "name": "",
          "type": "uint256"
        }
      ],
      "name": "sportsEvents",
      "outputs": [
        {
          "internalType": "string",
          "name": "eventName",
          "type": "string"
        },
        {
          "internalType": "string",
          "name": "team1",
          "type": "string"
        },
        {
          "internalType": "string",
          "name": "team2",
          "type": "string"
        },
        {
          "internalType": "string",
          "name": "player",
          "type": "string"
        },
        {
          "internalType": "enum SportsPredictionMarket.SportType",
          "name": "sport",
          "type": "uint8"
        },
        {
          "internalType": "enum SportsPredictionMarket.PredictionType",
          "name": "predType",
          "type": "uint8"
        },
        {
          "internalType": "uint256",
          "name": "eventTimestamp",
          "type": "uint256"
        },
        {
          "internalType": "bool",
          "name": "resolved",
          "type": "bool"
        },
        {
          "internalType": "uint256",
          "name": "actualValue",
          "type": "uint256"
        }
      ],
      "stateMutability": "view",
      "type": "function"
    },
    {
      "inputs": [],
      "name": "stakingToken",
      "outputs": [
        {
          "internalType": "contract IERC20",
          "name": "",
          "type": "address"
        }
      ],
      "stateMutability": "view",
      "type": "function"
    },
    {
      "inputs": [],
      "name": "startTimestamp",
      "outputs": [
        {
          "internalType": "uint256",
          "name": "",
          "type": "uint256"
        }
      ],
      "stateMutability": "view",
      "type": "function"
    },
    {
      "inputs": [
        {
          "internalType": "uint256",
          "name": "",
          "type": "uint256"
        }
      ],
      "name": "submissionCount",
      "outputs": [
        {
          "internalType": "uint256",
          "name": "",
          "type": "uint256"
        }
      ],
      "stateMutability": "view",
      "type": "function"
    },
    {
      "inputs": [
        {
          "internalType": "uint256",
          "name": "eventId",
          "type": "uint256"
        },
        {
          "internalType": "uint256",
          "name": "actualValue",
          "type": "uint256"
        }
      ],
      "name": "submitSportsResult",
      "outputs": [],
      "stateMutability": "nonpayable",
      "type": "function"
    },
    {
      "inputs": [
        {
          "internalType": "uint256",
          "name": "timestamp",
          "type": "uint256"
        },
        {
          "internalType": "uint256",
          "name": "value",
          "type": "uint256"
        }
      ],
      "name": "submitValue",
      "outputs": [],
      "stateMutability": "nonpayable",
      "type": "function"
    },
    {
      "inputs": [],
      "name": "totalFeesCollected",
      "outputs": [
        {
          "internalType": "uint256",
          "name": "",
          "type": "uint256"
        }
      ],
      "stateMutability": "view",
      "type": "function"
    },
    {
      "inputs": [],
      "name": "totalObligations",
      "outputs": [
        {
          "internalType": "uint256",
          "name": "",
          "type": "uint256"
        }
      ],
      "stateMutability": "view",
      "type": "function"
    },
    {
      "inputs": [
        {
          "internalType": "address",
          "name": "newOwner",
          "type": "address"
        }
      ],
      "name": "transferOwnership",
      "outputs": [],
      "stateMutability": "nonpayable",
      "type": "function"
    },
    {
      "inputs": [
        {
          "internalType": "address",
          "name": "",
          "type": "address"
        }
      ],
      "name": "trustedOracles",
      "outputs": [
        {
          "internalType": "bool",
          "name": "",
          "type": "bool"
        }
      ],
      "stateMutability": "view",
      "type": "function"
    },
    {
      "inputs": [],
      "name": "withdrawFees",
      "outputs": [],
      "stateMutability": "nonpayable",
      "type": "function"
    }
  ],
  "bytecode": "0x60a060405260036001553480156200001657600080fd5b5060405162005335380380620053358339810160408190526200003991620001a8565b80620000453362000077565b600580546001600160a01b0319166001600160a01b038316179055426080526200006f33620000c7565b5050620001da565b600080546001600160a01b038381166001600160a01b0319831681178455604051919092169283917f8be0079c531659141344cd1fd0a4f28419497f9722a3daafe3b4186f6b6457e09190a35050565b620000d16200014a565b6001600160a01b0381166200013c5760405162461bcd60e51b815260206004820152602660248201527f4f776e61626c653a206e6577206f776e657220697320746865207a65726f206160448201526564647265737360d01b60648201526084015b60405180910390fd5b620001478162000077565b50565b6000546001600160a01b03163314620001a65760405162461bcd60e51b815260206004820181905260248201527f4f776e61626c653a2063616c6c6572206973206e6f7420746865206f776e6572604482015260640162000133565b565b600060208284031215620001bb57600080fd5b81516001600160a01b0381168114620001d357600080fd5b9392505050565b6080516151316200020460003960008181610cff01528181612ad90152612b5001526151316000f3fe6080604052600436106103ce5760003560e01c806374f0314f116101fd578063bf333f2c11610118578063d6f074cc116100ab578063e71c96971161007a578063e71c969714610d21578063f2fde38b14610d34578063f37ed7de14610d54578063f78ed10814610d6a578063fbe1f9eb14610d7f57600080fd5b8063d6f074cc14610c7b578063db29660214610ca8578063db2e21bc14610cd8578063e6fd48bc14610ced57600080fd5b8063cb1c2b5c116100e7578063cb1c2b5c14610bf0578063cb68b0d814610c0b578063cc4e195414610c2b578063d07c256114610c5b57600080fd5b8063bf333f2c146106ac578063c59d484714610b76578063c98517c514610ba6578063cab6522314610bc357600080fd5b80639568786c116101905780639f9d903a1161015f5780639f9d903a14610adc5780639fa4cc8614610af2578063a800a63814610b1e578063bc92fe3214610b3e57600080fd5b80639568786c14610a0b578063983f371314610a2b5780639aca279214610a3e5780639b51fb0d14610a5457600080fd5b806382e717f7116101cc57806382e717f71461098a5780638ba6c6db146109a05780638da5cb5b146109cd5780639521e902146109eb57600080fd5b806374f0314f146108f957806377751c5b146109105780637e8c5f141461093d5780637ec174df1461095d57600080fd5b806349faa4d4116102ed57806362f5511211610280578063706cabd51161024f578063706cabd514610824578063715018a61461088c57806372f702f3146108a157806374d0bf13146108d957600080fd5b806362f55112146107845780636309463b146107a45780636637e38c146107d9578063671eb698146107ef57600080fd5b80635d8b2ca2116102bc5780635d8b2ca21461071657806360c6d8ae14610743578063613d8fcc14610759578063616069401461076f57600080fd5b806349faa4d4146106ac5780634ba8ae81146106c15780634df86c43146106e1578063587d81271461070157600080fd5b80632485ac671161036557806332ddfa271161033457806332ddfa271461060d57806338b2f2981461065757806345c354b514610677578063476343ee1461069757600080fd5b80632485ac6714610580578063285fe777146105a057806331ca4665146105d8578063324d8438146105f857600080fd5b8063227f9604116103a1578063227f96041461047157806322af00fa1461048657806322d6a5df146105335780632312cbf61461055357600080fd5b806303568613146103d3578063061e494f14610406578063160e09011461043357806317f85f851461044f575b600080fd5b3480156103df57600080fd5b506103f36103ee36600461491c565b610d95565b6040519081526020015b60405180910390f35b34801561041257600080fd5b506104266104213660046149f4565b610f5e565b6040516103fd9190614a0d565b34801561043f57600080fd5b506103f3678ac7230489e8000081565b34801561045b57600080fd5b5061046f61046a366004614aca565b61109c565b005b34801561047d57600080fd5b506103f3601e81565b34801561049257600080fd5b5061051a6104a13660046149f4565b600860208190526000918252604090912080546001820154600283015460038401546004850154600586015460068701546007880154988801546009890154600a8a0154600b909a01546001600160a01b039099169a97999698959794969395929460ff8082169561010090920481169492811692168d565b6040516103fd9d9c9b9a99989796959493929190614aec565b34801561053f57600080fd5b5061046f61054e366004614aca565b6111d4565b34801561055f57600080fd5b506103f361056e3660046149f4565b600d6020526000908152604090205481565b34801561058c57600080fd5b506103f361059b3660046149f4565b6112a5565b3480156105ac57600080fd5b506103f36105bb366004614b6e565b600b60209081526000928352604080842090915290825290205481565b3480156105e457600080fd5b506103f36105f33660046149f4565b6113b0565b34801561060457600080fd5b506103f3605081565b34801561061957600080fd5b5061062d6106283660046149f4565b611405565b6040805195865260208601949094529284019190915215156060830152608082015260a0016103fd565b34801561066357600080fd5b506103f3610672366004614b6e565b6114f3565b34801561068357600080fd5b506103f3610692366004614b90565b611548565b3480156106a357600080fd5b5061046f611880565b3480156106b857600080fd5b506103f3603281565b3480156106cd57600080fd5b5061046f6106dc3660046149f4565b61194f565b3480156106ed57600080fd5b5061046f6106fc3660046149f4565b611c68565b34801561070d57600080fd5b506103f3600381565b34801561072257600080fd5b506103f36107313660046149f4565b600a6020526000908152604090205481565b34801561074f57600080fd5b506103f360025481565b34801561076557600080fd5b506103f360075481565b34801561077b57600080fd5b506011546103f3565b34801561079057600080fd5b5061046f61079f366004614b6e565b611f55565b3480156107b057600080fd5b506107c46107bf3660046149f4565b61218e565b604080519283526020830191909152016103fd565b3480156107e557600080fd5b506103f361271081565b3480156107fb57600080fd5b5061080f61080a3660046149f4565b6124c8565b6040516103fd99989796959493929190614c54565b34801561083057600080fd5b5061086a61083f3660046149f4565b6000908152600960205260409020805460038201546004830154600590930154919390929160ff1690565b60408051948552602085019390935291830152151560608201526080016103fd565b34801561089857600080fd5b5061046f612773565b3480156108ad57600080fd5b506005546108c1906001600160a01b031681565b6040516001600160a01b0390911681526020016103fd565b3480156108e557600080fd5b5061046f6108f4366004614d2e565b612787565b34801561090557600080fd5b506103f36201518081565b34801561091c57600080fd5b506103f361092b3660046149f4565b60106020526000908152604090205481565b34801561094957600080fd5b506103f36109583660046149f4565b612ad5565b34801561096957600080fd5b5061097d610978366004614b90565b612b7f565b6040516103fd9190614d9a565b34801561099657600080fd5b506103f360015481565b3480156109ac57600080fd5b506109c06109bb366004614e12565b612e62565b6040516103fd9190614e2d565b3480156109d957600080fd5b506000546001600160a01b03166108c1565b3480156109f757600080fd5b506109c0610a06366004614e40565b61315e565b348015610a1757600080fd5b506103f3610a263660046149f4565b613306565b6103f3610a39366004614e5b565b6133a5565b348015610a4a57600080fd5b506103f360045481565b348015610a6057600080fd5b50610aad610a6f3660046149f4565b600960205260009081526040902060018101546002820154600383015460048401546005850154600690950154939492939192909160ff9091169086565b6040805196875260208701959095529385019290925260608401521515608083015260a082015260c0016103fd565b348015610ae857600080fd5b506103f360115481565b348015610afe57600080fd5b506005546001600160a01b031615155b60405190151581526020016103fd565b348015610b2a57600080fd5b5061046f610b39366004614b6e565b6134da565b348015610b4a57600080fd5b506103f3610b59366004614e87565b600c60209081526000928352604080842090915290825290205481565b348015610b8257600080fd5b50610b8b6136d6565b604080519384526020840192909252908201526060016103fd565b348015610bb257600080fd5b506103f368056bc75e2d6310000081565b348015610bcf57600080fd5b506103f3610bde3660046149f4565b60009081526010602052604090205490565b348015610bfc57600080fd5b506103f3662386f26fc1000081565b348015610c1757600080fd5b5061080f610c263660046149f4565b6136f4565b348015610c3757600080fd5b50610b0e610c463660046149f4565b600e6020526000908152604090205460ff1681565b348015610c6757600080fd5b506103f3610c76366004614b6e565b613964565b348015610c8757600080fd5b506103f3610c963660046149f4565b6000908152600a602052604090205490565b348015610cb457600080fd5b50610b0e610cc3366004614aca565b60066020526000908152604090205460ff1681565b348015610ce457600080fd5b5061046f613a31565b348015610cf957600080fd5b506103f37f000000000000000000000000000000000000000000000000000000000000000081565b6103f3610d2f366004614e5b565b613ad0565b348015610d4057600080fd5b5061046f610d4f366004614aca565b613d47565b348015610d6057600080fd5b506103f3610bb881565b348015610d7657600080fd5b506103f3600181565b348015610d8b57600080fd5b506103f360035481565b6000610d9f613dc0565b6011805460009182610db083614ec9565b9190505590506040518061012001604052808a8152602001898152602001888152602001878152602001866006811115610dec57610dec614c1a565b8152602001856009811115610e0357610e03614c1a565b81526020808201869052600060408084018290526060909301819052848152600f825291909120825180519192610e3f928492909101906147bd565b506020828101518051610e5892600185019201906147bd565b5060408201518051610e749160028401916020909101906147bd565b5060608201518051610e909160038401916020909101906147bd565b50608082015160048201805460ff19166001836006811115610eb457610eb4614c1a565b021790555060a082015160048201805461ff001916610100836009811115610ede57610ede614c1a565b021790555060c0820151600582015560e082015160068201805460ff19169115159190911790556101009091015160079091015560405181907f94482cb8f56f12c2ba533615451ad1aef953f5f9a4325e8211564be5cbb402be90610f4a908c90899089908990614ee4565b60405180910390a298975050505050505050565b610fda604051806101a0016040528060006001600160a01b0316815260200160008152602001600081526020016000815260200160008152602001600081526020016000815260200160001515815260200160001515815260200160008152602001600015158152602001600081526020016000151581525090565b5060009081526008602081815260409283902083516101a08101855281546001600160a01b031681526001820154928101929092526002810154938201939093526003830154606082015260048301546080820152600583015460a0820152600683015460c0820152600783015460ff808216151560e084015261010091829004811615159183019190915291830154610120820152600983015482161515610140820152600a830154610160820152600b9092015416151561018082015290565b6110a4613dc0565b6001600160a01b0381166110ff5760405162461bcd60e51b815260206004820152600f60248201527f496e76616c69642061646472657373000000000000000000000000000000000060448201526064015b60405180910390fd5b6001600160a01b03811660009081526006602052604090205460ff16156111685760405162461bcd60e51b815260206004820152600f60248201527f416c72656164792074727573746564000000000000000000000000000000000060448201526064016110f6565b6001600160a01b0381166000908152600660205260408120805460ff19166001179055600780549161119983614ec9565b90915550506040516001600160a01b038216907e47706786c922d17b39285dc59d696bafea72c0b003d3841ae1202076f4c2e490600090a250565b6111dc613dc0565b6001600160a01b03811660009081526006602052604090205460ff1661123b5760405162461bcd60e51b81526020600482015260146024820152734e6f7420612074727573746564206f7261636c6560601b60448201526064016110f6565b6001600160a01b0381166000908152600660205260408120805460ff19169055600780549161126983614f22565b90915550506040516001600160a01b038216907f9c8e7d83025bef8a04c664b2f753f64b8814bdb7e27291d7e50935f18cc3c71290600090a250565b6000818152600860205260408120600781015460ff16806112ca5750600b81015460ff165b806112d75750600a810154155b156112e55750600092915050565b60006112f48260010154612ad5565b9050600061130a836002015484600301546114f3565b6000838152600b60209081526040808320848452909152902054600a85015491925090811161133f5750600095945050505050565b600084600a0154826113519190614f39565b9050600085600a0154612710876006015461136c9190614f50565b6113769190614f6f565b90506127106113858284614f50565b61138f9190614f6f565b965085600401548711156113a557856004015496505b505050505050919050565b600081815260096020526040812060010154816127106113d2836107d0614f50565b6113dc9190614f6f565b9050678ac7230489e8000081116113fb57678ac7230489e800006113fd565b805b949350505050565b600081815260086020526040812060018101548291829182918291829061142b90612ad5565b6000818152600960205260409020909150611445896112a5565b975061271061145560508a614f50565b61145f9190614f6f565b965061146b8789614f39565b95506000612710610bb883600101546114849190614f50565b61148e9190614f6f565b60068301549091508082116114a45760006114ae565b6114ae8183614f39565b600786015490965060ff161580156114cb5750600b85015460ff16155b80156114d7575060008a115b80156114e35750858811155b9650505050505091939590929450565b60008060026115028486614f91565b61150c9190614f6f565b9050600061271061151e8360c8614f50565b6115289190614f6f565b905080611533575060015b61153d8183614f6f565b925050505b92915050565b6000848161155a620151806001614f50565b6115649042614f91565b9050600061157662015180601e614f50565b6115809042614f91565b9050818310156115c45760405162461bcd60e51b815260206004820152600f60248201526e2a30b933b2ba103a37b79039b7b7b760891b60448201526064016110f6565b808311156116055760405162461bcd60e51b815260206004820152600e60248201526d2a30b933b2ba103a37b7903330b960911b60448201526064016110f6565b6005546001600160a01b031661165d5760405162461bcd60e51b815260206004820152601660248201527f546f6b656e206d6f6465206e6f7420656e61626c65640000000000000000000060448201526064016110f6565b600085116116ad5760405162461bcd60e51b815260206004820152601260248201527f416d6f756e74206d757374206265203e2030000000000000000000000000000060448201526064016110f6565b8587106116ec5760405162461bcd60e51b815260206004820152600d60248201526c496e76616c69642072616e676560981b60448201526064016110f6565b6000871180156116fc5750600086115b6117485760405162461bcd60e51b815260206004820152601760248201527f56616c756573206d75737420626520706f73697469766500000000000000000060448201526064016110f6565b42881161178c5760405162461bcd60e51b815260206004820152601260248201527110d85b9b9bdd0818995d081bdb881c185cdd60721b60448201526064016110f6565b6005546117a4906001600160a01b0316333088613e1a565b60006127106117b4603288614f50565b6117be9190614f6f565b905060006117cc8288614f39565b905081600260008282546117e09190614f91565b90915550506040518281527fc472cb3a7a659a876494d66b3063145f279701771d6150b9329c31611ed6405c9060200160405180910390a160006127106118268c613306565b6118308c8c613964565b61183a9190614f50565b6118449190614f6f565b905060006127106118558385614f50565b61185f9190614f6f565b9050611870338d8d8d878787613eb2565b9c9b505050505050505050505050565b611888613dc0565b6000611892614057565b9050600060035482116118a65760006118b3565b6003546118b39083614f39565b9050600081600254106118c657816118ca565b6002545b90506000811161191c5760405162461bcd60e51b815260206004820152601460248201527f4e6f20776974686472617761626c65206665657300000000000000000000000060448201526064016110f6565b806002600082825461192e9190614f39565b909155505060005461194a906001600160a01b03165b826140f0565b505050565b600081815260086020526040902080546001600160a01b031633146119a65760405162461bcd60e51b815260206004820152600d60248201526c2737ba103132ba1037bbb732b960991b60448201526064016110f6565b600781015460ff16156119ee5760405162461bcd60e51b815260206004820152601060248201526f105b1c9958591e481c995cdbdb1d995960821b60448201526064016110f6565b600b81015460ff1615611a435760405162461bcd60e51b815260206004820152600e60248201527f416c72656164792065786974656400000000000000000000000000000000000060448201526064016110f6565b6000611a4e836112a5565b905060008111611aa05760405162461bcd60e51b815260206004820152601760248201527f4e6f20657869742076616c756520617661696c61626c6500000000000000000060448201526064016110f6565b6000612710611ab0605084614f50565b611aba9190614f6f565b90506000611ac88284614f39565b90506000611ad98560010154612ad5565b600081815260096020526040902060018101549192509061271090611b0190610bb890614f50565b611b0b9190614f6f565b838260060154611b1b9190614f91565b1115611b695760405162461bcd60e51b815260206004820152601360248201527f4578697420706f6f6c206578686175737465640000000000000000000000000060448201526064016110f6565b600b8601805460ff19166001179055600681018054849190600090611b8f908490614f91565b90915550506006860154600282018054600090611bad908490614f39565b925050819055506000611bc8876002015488600301546114f3565b60068801546000858152600b60209081526040808320858452909152812080549394509192611bf8908490614f39565b925050819055508460026000828254611c119190614f91565b90915550611c21905033856140f0565b604080518581526020810187905233918a917fc84ba642853b7fceb52ece6998aa2618edc77f7a182996141f2a470af347cea3910160405180910390a35050505050505050565b600081815260086020526040902080546001600160a01b03163314611cbf5760405162461bcd60e51b815260206004820152600d60248201526c2737ba103132ba1037bbb732b960991b60448201526064016110f6565b600781015460ff16611d135760405162461bcd60e51b815260206004820152601160248201527f426574206e6f742066696e616c697a656400000000000000000000000000000060448201526064016110f6565b6007810154610100900460ff1615611d6d5760405162461bcd60e51b815260206004820152600f60248201527f416c726561647920636c61696d6564000000000000000000000000000000000060448201526064016110f6565b600b81015460ff1615611dc25760405162461bcd60e51b815260206004820152601660248201527f416c726561647920657869746564207669612044504d0000000000000000000060448201526064016110f6565b6000611dd18260010154612ad5565b600081815260096020526040902060058101549192509060ff16611e375760405162461bcd60e51b815260206004820152601860248201527f4167677265676174696f6e206e6f7420636f6d706c657465000000000000000060448201526064016110f6565b60078301805461ff001916610100179055600983015460ff1615611f1657600081600601548260010154611e6b9190614f39565b9050600080836003015411611e81576000611ea0565b8260030154828660060154611e969190614f50565b611ea09190614f6f565b90506003548111611ec8578060036000828254611ebd9190614f39565b90915550611ece9050565b60006003555b611ed833826140f0565b604051818152339087907fad65ef4ba28f4ce1aaee7e8f86645eb4ce0ddc8b6c8fa2821564a94dbd2485fe9060200160405180910390a35050611f4f565b60405160008152339085907fad65ef4ba28f4ce1aaee7e8f86645eb4ce0ddc8b6c8fa2821564a94dbd2485fe9060200160405180910390a35b50505050565b3360009081526006602052604090205460ff16611fab5760405162461bcd60e51b81526020600482015260146024820152734e6f7420612074727573746564206f7261636c6560601b60448201526064016110f6565b6000828152600e602052604090205460ff1615611ffd5760405162461bcd60e51b815260206004820152601060248201526f105b1c9958591e481c995cdbdb1d995960821b60448201526064016110f6565b600081116120465760405162461bcd60e51b815260206004820152601660248201527556616c7565206d75737420626520706f73697469766560501b60448201526064016110f6565b428211156120965760405162461bcd60e51b815260206004820152601560248201527f43616e6e6f74207265736f6c766520667574757265000000000000000000000060448201526064016110f6565b6000828152600c60209081526040808320338452909152902054156120fd5760405162461bcd60e51b815260206004820152601160248201527f416c7265616479207375626d697474656400000000000000000000000000000060448201526064016110f6565b6000828152600c602090815260408083203384528252808320849055848352600d909152812080549161212f83614ec9565b9091555050604051818152339083907f2d666290500c2f337244a567b8f90f9f5446005631fd32da2ec2b70f174971729060200160405180910390a36000828152600d602052604090205460031161218a5761218a826141c4565b5050565b6000818152600960205260408120600581015482919060ff16156121f45760405162461bcd60e51b815260206004820152601460248201527f4167677265676174696f6e20636f6d706c65746500000000000000000000000060448201526064016110f6565b60048101546000612206603283614f91565b8354909150811115612216575081545b825482106122a15760058301805460ff191660019081179091556006840154908401546122439190614f39565b600360008282546122549190614f91565b9091555050600383015460405190815286907fc8076cf096b541fb33d9acbd6bfd0ef234ae377710816fd316e2964d795b7afb9060200160405180910390a2506000958695509350505050565b600080835b838110156123e25760008660000182815481106122c5576122c5614fa9565b60009182526020808320909101548083526008909152604090912060078101549192509060ff161580156122fe5750600b81015460ff16155b156123cd5760018101546000908152600a6020526040902054806123645760405162461bcd60e51b815260206004820152601260248201527f56616c7565206e6f74207265736f6c766564000000000000000000000000000060448201526064016110f6565b60078201805460ff191660011790556008820181905560028201548110801590612392575081600301548111155b60098301805460ff1916911515918217905560ff16156123be5760068201546123bb9087614f91565b95505b846123c881614ec9565b955050505b505080806123da90614ec9565b9150506122a6565b50818560030160008282546123f79190614f91565b909155505060048501839055845483106124815760058501805460ff191660019081179091556006860154908601546124309190614f39565b600360008282546124419190614f91565b9091555050600385015460405190815288907fc8076cf096b541fb33d9acbd6bfd0ef234ae377710816fd316e2964d795b7afb9060200160405180910390a25b604080518281526020810184905289917fd03f99f321df6e5a7f705a548f7e6b4880d02286dda4ffbbf00ff5353381fa89910160405180910390a297909650945050505050565b6000818152600f60205260408120600481015460058201546006830154600784015484546060968796879687969295869586958695869594859460018601946002870194600388019460ff8086169561010090048116949193911691899061252f90614fbf565b80601f016020809104026020016040519081016040528092919081815260200182805461255b90614fbf565b80156125a85780601f1061257d576101008083540402835291602001916125a8565b820191906000526020600020905b81548152906001019060200180831161258b57829003601f168201915b505050505098508780546125bb90614fbf565b80601f01602080910402602001604051908101604052809291908181526020018280546125e790614fbf565b80156126345780601f1061260957610100808354040283529160200191612634565b820191906000526020600020905b81548152906001019060200180831161261757829003601f168201915b5050505050975086805461264790614fbf565b80601f016020809104026020016040519081016040528092919081815260200182805461267390614fbf565b80156126c05780601f10612695576101008083540402835291602001916126c0565b820191906000526020600020905b8154815290600101906020018083116126a357829003601f168201915b505050505096508580546126d390614fbf565b80601f01602080910402602001604051908101604052809291908181526020018280546126ff90614fbf565b801561274c5780601f106127215761010080835404028352916020019161274c565b820191906000526020600020905b81548152906001019060200180831161272f57829003601f168201915b50505050509550995099509950995099509950995099509950509193959799909294969850565b61277b613dc0565b612785600061439b565b565b61278f613dc0565b8281146127de5760405162461bcd60e51b815260206004820152601260248201527f4c656e67746873206d757374206d61746368000000000000000000000000000060448201526064016110f6565b60005b83811015612ace576011548585838181106127fe576127fe614fa9565b90506020020135106128495760405162461bcd60e51b8152602060048201526014602482015273115d995b9d08191bd95cc81b9bdd08195e1a5cdd60621b60448201526064016110f6565b6000600f600087878581811061286157612861614fa9565b60209081029290920135835250810191909152604001600020600681015490915060ff16156128c55760405162461bcd60e51b815260206004820152601060248201526f105b1c9958591e481c995cdbdb1d995960821b60448201526064016110f6565b428160050154111561290e5760405162461bcd60e51b8152602060048201526012602482015271115d995b9d081b9bdd081bd8d8dd5c9c995960721b60448201526064016110f6565b600084848481811061292257612922614fa9565b905060200201351161296f5760405162461bcd60e51b815260206004820152601660248201527556616c7565206d75737420626520706f73697469766560501b60448201526064016110f6565b83838381811061298157612981614fa9565b6005840180546000908152600a60209081526040808320948202969096013590935590548152600e909152919091208054600160ff1991821681179092556006840180549091169091179055508383838181106129e0576129e0614fa9565b602002919091013560078301555060058101547f3d0851805149bdb1d3be4c433d056a1e9389f2dd9df643e72f47260a88b759bf858585818110612a2657612a26614fa9565b905060200201356001604051612a46929190918252602082015260400190565b60405180910390a2858583818110612a6057612a60614fa9565b905060200201357f80f23dc23aa070ef5b59fb5695c63f9cccb80b0436772591fa4284226b0da32a82600001868686818110612a9e57612a9e614fa9565b90506020020135604051612ab3929190614ff4565b60405180910390a25080612ac681614ec9565b9150506127e1565b5050505050565b60007f0000000000000000000000000000000000000000000000000000000000000000821015612b475760405162461bcd60e51b815260206004820152601060248201527f4d757374206265203e3d2073746172740000000000000000000000000000000060448201526064016110f6565b62015180612b757f000000000000000000000000000000000000000000000000000000000000000084614f39565b6115429190614f6f565b612bd060405180610120016040528060008152602001600081526020016000815260200160008152602001600081526020016000815260200160008152602001600015158152602001606081525090565b428511612c5d57604051806101200160405280600081526020016000815260200160008152602001600081526020016000815260200160008152602001600081526020016000151581526020016040518060400160405280601881526020017f4d757374206265206675747572652074696d657374616d70000000000000000081525081525090506113fd565b828410612cda57604051806101200160405280600081526020016000815260200160008152602001600081526020016000815260200160008152602001600081526020016000151581526020016040518060400160405280600d81526020016c496e76616c69642072616e676560981b81525081525090506113fd565b662386f26fc10000821080612cf7575068056bc75e2d6310000082115b15612d8257604051806101200160405280600081526020016000815260200160008152602001600081526020016000815260200160008152602001600081526020016000151581526020016040518060400160405280601481526020017f496e76616c6964207374616b6520616d6f756e7400000000000000000000000081525081525090506113fd565b6000612710612d92603285614f50565b612d9c9190614f6f565b90506000612daa8285614f39565b90506000612db88787613964565b90506000612dc589613306565b90506000612710612dd68385614f50565b612de09190614f6f565b90506000612710612df18387614f50565b612dfb9190614f6f565b90506000612e088c612ad5565b60408051610120810182529889526020808a019890985288810196909652606088019490945250608086019190915260a085015260c0840152600160e0840152805191820190526000815261010082015295945050505050565b60606000826009811115612e7857612e78614c1a565b1415612ea557505060408051808201909152600b81526a46696e616c2053636f726560a81b602082015290565b6001826009811115612eb957612eb9614c1a565b1415612ef857505060408051808201909152601281527f506f696e7420446966666572656e7469616c0000000000000000000000000000602082015290565b6002826009811115612f0c57612f0c614c1a565b1415612f3b57505060408051808201909152600d81526c506c6179657220506f696e747360981b602082015290565b6003826009811115612f4f57612f4f614c1a565b1415612f8e57505060408051808201909152600e81527f506c617965722041737369737473000000000000000000000000000000000000602082015290565b6004826009811115612fa257612fa2614c1a565b1415612fe157505060408051808201909152600f81527f506c61796572205265626f756e64730000000000000000000000000000000000602082015290565b6005826009811115612ff557612ff5614c1a565b141561303457505060408051808201909152601181527f5465616d20506f7373657373696f6e2025000000000000000000000000000000602082015290565b600682600981111561304857613048614c1a565b141561307757505060408051808201909152600d81526c14da1bdd1cc81bdb8811dbd85b609a1b602082015290565b600782600981111561308b5761308b614c1a565b14156130b857505060408051808201909152600b81526a546f74616c20476f616c7360a81b602082015290565b60088260098111156130cc576130cc614c1a565b14156130f957505060408051808201909152600b81526a546f74616c20596172647360a81b602082015290565b600982600981111561310d5761310d614c1a565b141561313b57505060408051808201909152600c81526b436f6d706c6574696f6e202560a01b602082015290565b50506040805180820190915260078152662ab735b737bbb760c91b602082015290565b6060600082600681111561317457613174614c1a565b14156131a057505060408051808201909152600a81526910985cdad95d18985b1b60b21b602082015290565b60018260068111156131b4576131b4614c1a565b14156131f357505060408051808201909152601181527f416d65726963616e20466f6f7462616c6c000000000000000000000000000000602082015290565b600282600681111561320757613207614c1a565b141561322f57505060408051808201909152600681526529b7b1b1b2b960d11b602082015290565b600382600681111561324357613243614c1a565b141561326d57505060408051808201909152600881526710985cd958985b1b60c21b602082015290565b600482600681111561328157613281614c1a565b14156132a9575050604080518082019091526006815265486f636b657960d01b602082015290565b60058260068111156132bd576132bd614c1a565b14156132e557505060408051808201909152600681526554656e6e697360d01b602082015290565b505060408051808201909152600581526427ba3432b960d91b602082015290565b6000806133134284614f39565b9050613323620151806004614f50565b81106133335750614e2092915050565b613341620151806002614f50565b81106133515750613a9892915050565b61335f620151806001614f50565b811061336f575061271092915050565b6170808110613382575061138892915050565b611c2081106133955750610bb892915050565b506103e892915050565b50919050565b600060115484106133ef5760405162461bcd60e51b8152602060048201526014602482015273115d995b9d08191bd95cc81b9bdd08195e1a5cdd60621b60448201526064016110f6565b6000848152600f60205260409020600681015460ff16156134525760405162461bcd60e51b815260206004820152601660248201527f4576656e7420616c7265616479207265736f6c7665640000000000000000000060448201526064016110f6565b428160050154116134955760405162461bcd60e51b815260206004820152600d60248201526c115d995b9d081a5b881c185cdd609a1b60448201526064016110f6565b60048101546134ad90610100900460ff1685856143f8565b60006134be82600501548686613ad0565b6000818152601060205260409020879055925050509392505050565b6134e2613dc0565b601154821061352a5760405162461bcd60e51b8152602060048201526014602482015273115d995b9d08191bd95cc81b9bdd08195e1a5cdd60621b60448201526064016110f6565b6000828152600f60205260409020600681015460ff16156135805760405162461bcd60e51b815260206004820152601060248201526f105b1c9958591e481c995cdbdb1d995960821b60448201526064016110f6565b42816005015411156135c95760405162461bcd60e51b8152602060048201526012602482015271115d995b9d081b9bdd081bd8d8dd5c9c995960721b60448201526064016110f6565b600082116136125760405162461bcd60e51b815260206004820152601660248201527556616c7565206d75737420626520706f73697469766560501b60448201526064016110f6565b6005810180546000908152600a6020908152604080832086905583548352600e8252918290208054600160ff199182168117909255600686018054909116821790556007850186905592548251868152918201939093527f3d0851805149bdb1d3be4c433d056a1e9389f2dd9df643e72f47260a88b759bf910160405180910390a2827f80f23dc23aa070ef5b59fb5695c63f9cccb80b0436772591fa4284226b0da32a82600001846040516136c9929190614ff4565b60405180910390a2505050565b60008060006004546002546136e9614057565b925092509250909192565b600f6020526000908152604090208054819061370f90614fbf565b80601f016020809104026020016040519081016040528092919081815260200182805461373b90614fbf565b80156137885780601f1061375d57610100808354040283529160200191613788565b820191906000526020600020905b81548152906001019060200180831161376b57829003601f168201915b50505050509080600101805461379d90614fbf565b80601f01602080910402602001604051908101604052809291908181526020018280546137c990614fbf565b80156138165780601f106137eb57610100808354040283529160200191613816565b820191906000526020600020905b8154815290600101906020018083116137f957829003601f168201915b50505050509080600201805461382b90614fbf565b80601f016020809104026020016040519081016040528092919081815260200182805461385790614fbf565b80156138a45780601f10613879576101008083540402835291602001916138a4565b820191906000526020600020905b81548152906001019060200180831161388757829003601f168201915b5050505050908060030180546138b990614fbf565b80601f01602080910402602001604051908101604052809291908181526020018280546138e590614fbf565b80156139325780601f1061390757610100808354040283529160200191613932565b820191906000526020600020905b81548152906001019060200180831161391557829003601f168201915b505050600484015460058501546006860154600790960154949560ff8084169661010090940481169550919350169089565b6000806139718484614f39565b9050600060026139818587614f91565b61398b9190614f6f565b9050600080821161399d5760006139b4565b816139aa61271085614f50565b6139b49190614f6f565b9050610fa08111156139cd576103e89350505050611542565b6107d081106139e357610bb89350505050611542565b6103e881106139f9576113889350505050611542565b6101f48110613a0f576127109350505050611542565b60c88110613a2457613a989350505050611542565b614e209350505050611542565b613a39613dc0565b6000613a43614057565b905060006003548211613a57576000613a64565b600354613a649083614f39565b905060008111613ab65760405162461bcd60e51b815260206004820152601660248201527f4e6f20737572706c757320746f2077697468647261770000000000000000000060448201526064016110f6565b600060025561218a6119446000546001600160a01b031690565b60008381613ae2620151806001614f50565b613aec9042614f91565b90506000613afe62015180601e614f50565b613b089042614f91565b905081831015613b4c5760405162461bcd60e51b815260206004820152600f60248201526e2a30b933b2ba103a37b79039b7b7b760891b60448201526064016110f6565b80831115613b8d5760405162461bcd60e51b815260206004820152600e60248201526d2a30b933b2ba103a37b7903330b960911b60448201526064016110f6565b848610613bcc5760405162461bcd60e51b815260206004820152600d60248201526c496e76616c69642072616e676560981b60448201526064016110f6565b600086118015613bdc5750600085115b613c285760405162461bcd60e51b815260206004820152601760248201527f56616c756573206d75737420626520706f73697469766500000000000000000060448201526064016110f6565b428711613c6c5760405162461bcd60e51b815260206004820152601260248201527110d85b9b9bdd0818995d081bdb881c185cdd60721b60448201526064016110f6565b6000612710613c7c603234614f50565b613c869190614f6f565b90506000613c948234614f39565b90508160026000828254613ca89190614f91565b90915550506040518281527fc472cb3a7a659a876494d66b3063145f279701771d6150b9329c31611ed6405c9060200160405180910390a16000612710613cee8b613306565b613cf88b8b613964565b613d029190614f50565b613d0c9190614f6f565b90506000612710613d1d8385614f50565b613d279190614f6f565b9050613d38338c8c8c878787613eb2565b9b9a5050505050505050505050565b613d4f613dc0565b6001600160a01b038116613db45760405162461bcd60e51b815260206004820152602660248201527f4f776e61626c653a206e6577206f776e657220697320746865207a65726f206160448201526564647265737360d01b60648201526084016110f6565b613dbd8161439b565b50565b6000546001600160a01b031633146127855760405162461bcd60e51b815260206004820181905260248201527f4f776e61626c653a2063616c6c6572206973206e6f7420746865206f776e657260448201526064016110f6565b6040516001600160a01b0380851660248301528316604482015260648101829052611f4f9085906323b872dd60e01b906084015b60408051601f198184030181529190526020810180517bffffffffffffffffffffffffffffffffffffffffffffffffffffffff167fffffffff0000000000000000000000000000000000000000000000000000000090931692909217909152614480565b6004805460009182919082613ec683614ec9565b9190505590506000613ed789612ad5565b90506000613ee589896114f3565b6000838152600b60209081526040808320848452808352818420805489865260088552928520600a0183905585855292529293508792909190613f29908490614f91565b9091555050506000828152600860209081526040808320805473ffffffffffffffffffffffffffffffffffffffff19166001600160a01b038f1617815560018082018e9055600282018d9055600382018c9055600482018b9055600582018a905560069091018890558484526009835290832080548083018255818552928420909201859055838352018054889290613fc3908490614f91565b909155505060008181526009602052604081206002018054869290613fe9908490614f91565b9091555050604080518281526020810188905290810189905260608101889052608081018a90526001600160a01b038b169083907f8d90e2d49bbaba150dc98acd6247789ec6b22ffccd431ff70f42f56136ad8d329060a00160405180910390a35098975050505050505050565b6005546000906001600160a01b0316156140eb576005546040516370a0823160e01b81523060048201526001600160a01b03909116906370a082319060240160206040518083038186803b1580156140ae57600080fd5b505afa1580156140c2573d6000803e3d6000fd5b505050506040513d601f19601f820116820180604052508101906140e691906150a4565b905090565b504790565b806140f9575050565b6005546001600160a01b0316156141215760055461218a906001600160a01b03168383614555565b6000826001600160a01b03168260405160006040518083038185875af1925050503d806000811461416e576040519150601f19603f3d011682016040523d82523d6000602084013e614173565b606091505b505090508061194a5760405162461bcd60e51b815260206004820152600f60248201527f5472616e73666572206661696c6564000000000000000000000000000000000060448201526064016110f6565b6000818152600e602052604090205460ff16156141de5750565b600060075467ffffffffffffffff8111156141fb576141fb614856565b604051908082528060200260200182016040528015614224578160200160208202803683370190505b509050600080614232614585565b905060005b81518110156142d7576000858152600c602052604081208351829085908590811061426457614264614fa9565b60200260200101516001600160a01b03166001600160a01b0316815260200190815260200160002054905060008111156142c457808585815181106142ab576142ab614fa9565b6020908102919091010152836142c081614ec9565b9450505b50806142cf81614ec9565b915050614237565b5060038210156142e75750505050565b60006142f384846145d4565b90508015612ace576000858152600a60209081526040808320849055600e825291829020805460ff19166001179055815183815290810185905286917f3d0851805149bdb1d3be4c433d056a1e9389f2dd9df643e72f47260a88b759bf910160405180910390a2847fb4b82c02c181c71a186ae8edc4fcb6f987173b24248af2fa819488df23b9494e8260405161438c91815260200190565b60405180910390a25050505050565b600080546001600160a01b0383811673ffffffffffffffffffffffffffffffffffffffff19831681178455604051919092169283917f8be0079c531659141344cd1fd0a4f28419497f9722a3daafe3b4186f6b6457e09190a35050565b600583600981111561440c5761440c614c1a565b14806144295750600983600981111561442757614427614c1a565b145b1561194a5761271081111561194a5760405162461bcd60e51b815260206004820152601660248201527f4d61782063616e6e6f742065786365656420313030250000000000000000000060448201526064016110f6565b60006144d5826040518060400160405280602081526020017f5361666545524332303a206c6f772d6c6576656c2063616c6c206661696c6564815250856001600160a01b031661469d9092919063ffffffff16565b90508051600014806144f65750808060200190518101906144f691906150bd565b61194a5760405162461bcd60e51b815260206004820152602a60248201527f5361666545524332303a204552433230206f7065726174696f6e20646964206e6044820152691bdd081cdd58d8d9595960b21b60648201526084016110f6565b6040516001600160a01b03831660248201526044810182905261194a90849063a9059cbb60e01b90606401613e4e565b6060600060075467ffffffffffffffff8111156145a4576145a4614856565b6040519080825280602002602001820160405280156145cd578160200160208202803683370190505b5092915050565b6000816145e357506000611542565b60005b82811015614693576000805b848110156146545785818151811061460c5761460c614fa9565b602002602001015186848151811061462657614626614fa9565b60200260200101511415614642578161463e81614ec9565b9250505b8061464c81614ec9565b9150506145f2565b50600381106146805784828151811061466f5761466f614fa9565b602002602001015192505050611542565b508061468b81614ec9565b9150506145e6565b5060009392505050565b60606113fd848460008585600080866001600160a01b031685876040516146c491906150df565b60006040518083038185875af1925050503d8060008114614701576040519150601f19603f3d011682016040523d82523d6000602084013e614706565b606091505b509150915061471787838387614722565b979650505050505050565b6060831561478e578251614787576001600160a01b0385163b6147875760405162461bcd60e51b815260206004820152601d60248201527f416464726573733a2063616c6c20746f206e6f6e2d636f6e747261637400000060448201526064016110f6565b50816113fd565b6113fd83838151156147a35781518083602001fd5b8060405162461bcd60e51b81526004016110f69190614e2d565b8280546147c990614fbf565b90600052602060002090601f0160209004810192826147eb5760008555614831565b82601f1061480457805160ff1916838001178555614831565b82800160010185558215614831579182015b82811115614831578251825591602001919060010190614816565b5061483d929150614841565b5090565b5b8082111561483d5760008155600101614842565b634e487b7160e01b600052604160045260246000fd5b600082601f83011261487d57600080fd5b813567ffffffffffffffff8082111561489857614898614856565b604051601f8301601f19908116603f011681019082821181831017156148c0576148c0614856565b816040528381528660208588010111156148d957600080fd5b836020870160208301376000602085830101528094505050505092915050565b80356007811061490857600080fd5b919050565b8035600a811061490857600080fd5b600080600080600080600060e0888a03121561493757600080fd5b873567ffffffffffffffff8082111561494f57600080fd5b61495b8b838c0161486c565b985060208a013591508082111561497157600080fd5b61497d8b838c0161486c565b975060408a013591508082111561499357600080fd5b61499f8b838c0161486c565b965060608a01359150808211156149b557600080fd5b506149c28a828b0161486c565b9450506149d1608089016148f9565b92506149df60a0890161490d565b915060c0880135905092959891949750929550565b600060208284031215614a0657600080fd5b5035919050565b81516001600160a01b031681526101a081016020830151602083015260408301516040830152606083015160608301526080830151608083015260a083015160a083015260c083015160c083015260e0830151614a6e60e084018215159052565b50610100838101511515908301526101208084015190830152610140808401511515908301526101608084015190830152610180928301511515929091019190915290565b80356001600160a01b038116811461490857600080fd5b600060208284031215614adc57600080fd5b614ae582614ab3565b9392505050565b60006101a0820190506001600160a01b038f1682528d60208301528c60408301528b60608301528a60808301528960a08301528860c083015287151560e08301528615156101008301528561012083015284151561014083015283610160830152614b5c61018083018415159052565b9e9d5050505050505050505050505050565b60008060408385031215614b8157600080fd5b50508035926020909101359150565b60008060008060808587031215614ba657600080fd5b5050823594602084013594506040840135936060013592509050565b60005b83811015614bdd578181015183820152602001614bc5565b83811115611f4f5750506000910152565b60008151808452614c06816020860160208601614bc2565b601f01601f19169290920160200192915050565b634e487b7160e01b600052602160045260246000fd5b60078110614c4057614c40614c1a565b9052565b600a8110614c4057614c40614c1a565b6000610120808352614c688184018d614bee565b90508281036020840152614c7c818c614bee565b90508281036040840152614c90818b614bee565b90508281036060840152614ca4818a614bee565b915050614cb46080830188614c30565b614cc160a0830187614c44565b60c082019490945291151560e0830152610100909101529695505050505050565b60008083601f840112614cf457600080fd5b50813567ffffffffffffffff811115614d0c57600080fd5b6020830191508360208260051b8501011115614d2757600080fd5b9250929050565b60008060008060408587031215614d4457600080fd5b843567ffffffffffffffff80821115614d5c57600080fd5b614d6888838901614ce2565b90965094506020870135915080821115614d8157600080fd5b50614d8e87828801614ce2565b95989497509550505050565b6020815281516020820152602082015160408201526040820151606082015260608201516080820152608082015160a082015260a082015160c082015260c082015160e0820152600060e0830151610100614df88185018315159052565b8401516101208481015290506113fd610140840182614bee565b600060208284031215614e2457600080fd5b614ae58261490d565b602081526000614ae56020830184614bee565b600060208284031215614e5257600080fd5b614ae5826148f9565b600080600060608486031215614e7057600080fd5b505081359360208301359350604090920135919050565b60008060408385031215614e9a57600080fd5b82359150614eaa60208401614ab3565b90509250929050565b634e487b7160e01b600052601160045260246000fd5b6000600019821415614edd57614edd614eb3565b5060010190565b608081526000614ef76080830187614bee565b9050614f066020830186614c30565b614f136040830185614c44565b82606083015295945050505050565b600081614f3157614f31614eb3565b506000190190565b600082821015614f4b57614f4b614eb3565b500390565b6000816000190483118215151615614f6a57614f6a614eb3565b500290565b600082614f8c57634e487b7160e01b600052601260045260246000fd5b500490565b60008219821115614fa457614fa4614eb3565b500190565b634e487b7160e01b600052603260045260246000fd5b600181811c90821680614fd357607f821691505b6020821081141561339f57634e487b7160e01b600052602260045260246000fd5b60408152600080845481600182811c91508083168061501457607f831692505b602080841082141561503457634e487b7160e01b86526022600452602486fd5b604088018490526060880182801561505357600181146150645761508f565b60ff1987168252828201975061508f565b60008c81526020902060005b8781101561508957815484820152908601908401615070565b83019850505b50509690960196909652509095945050505050565b6000602082840312156150b657600080fd5b5051919050565b6000602082840312156150cf57600080fd5b81518015158114614ae557600080fd5b600082516150f1818460208701614bc2565b919091019291505056fea2646970667358221220c2827740857a2cadd266c139044dab496c3362e6d9110e09b32815632965c21964736f6c63430008090033",
  "linkReferences": {},
  "deployedLinkReferences": {}
}